:020000021000EC
:1040000050AF0420793E020007FC0600113E02007A
:10401000113E0200113E0200113E0200113E02005C
:1040200000000000000000000000000051400200FD
:10403000113E020000000000A53F0200113E0200F8
:1040400099420200994202009942020099420200FC
:1040500099420200994202009942020099420200EC
:1040600099420200994202009942020099420200DC
:1040700099420200994202009942020099420200CC
:1040800099420200994202009942020099420200BC
:1040900099420200994202009942020099420200AC
:1040A000994202009942020099420200994202009C
:1040B000994202009942020099420200994202008C
:1040C000994202009942020099420200994202007C
:1040D000994202009942020099420200994202006C
:1040E000994202009942020099420200994202005C
:1040F000994202009942020099420200994202004C
:10410000994202009942020099420200994202003B
:10411000994202009942020099420200994202002B
:10412000994202009942020099420200994202001B
:10413000994202009942020099420200994202000B
:1041400099420200994202009942020099420200FB
:04415000994202008E
:104158002DE9F04F2DED0C8BFFB0CDE90B2390F836
:10416800B4300446012BB0EE40AAB0EE608AF0EEFF
:1041780041CAB0EE619A8846D0ED2C8A05D0B4EEDB
:10418800E81AF1EE10FA40F1218608F54979484617
:1041980001F0F0FDF0EE400AB0EE680A59F082FA3C
:1041A8004846F0EE409A01F015FEF0EE400AB0EEF7
:1041B800690A59F059FAD8EDC96A98EDCA7AF4EE45
:1041C800406AD8EDCB7AF1EE10FAB4EE407A0CBF23
:1041D80001230023F1EE10FAF4EE407A8DF8443012
:1041E8000CBF01230023F1EE10FA8DF845300CBF07
:1041F8000123002325A911A8F0EE409A8DF8463036
:1042080001F002FA061E00F0128740F3838719A90D
:1042180025AA049102EB860052F8043B03F26B5383
:1042280008EB83035B68824241F8043BF4D114AD88
:10423800009508F5AC52B0EE680A494694F8B40007
:1042480004323AAB01F0F8F912AB294634AA3AA87D
:1042580001F0E0F8129BB1EE49CA4FEA430BBBF1FB
:10426800000F0DDD00270DF1D00A9AED000A8CEE43
:10427800000A59F097FA0137BB45AAEC010AF4D1B4
:1042880094F8B430032B00F0A386002240924192A8
:1042980042924392449245921A0600F10D875B00C0
:1042A80013F0FF0320D09A0008F5AC511C313AA84E
:1042B80002F022F994F8B400B0B13AAA40A907B2C2
:1042C800830002EB800C52F8040B944541F8040B70
:1042D800F9D13AAA134402EBC70743AA53F8041BBF
:1042E8009F4242F8041BF9D1D8EDC96A98EDCA7A01
:1042F800F4EE696AD8EDCB7AF1EE10FAB4EE697A89
:104308000CBF01230023F1EE10FAF4EE697A8DF860
:1043180044300CBF01230023F1EE10FA8DF845302C
:104328000CBF0123002325A911A88DF8463001F000
:104338006BF9002800F05B8640F3E78625A98C46D8
:104348000DF1E80E870001EB80035CF8042B7EA8D2
:1043580000EB820252F8FC2C63454EF8042BF4D192
:104368003AAAD01951F8042B0DF5FC7C0CEB82020B
:1043780052F8F02C8B4240F8042BF3D16EAB069325
:10438800D8EDC96A98EDCA7AF4EE696AD8EDCB7AA5
:10439800F1EE10FAB4EE697A0CBF01230023F1EEB6
:1043A80010FAF4EE697A8DF844300CBF012300232B
:1043B800F1EE10FA8DF845300CBF0123002325A932
:1043C80011A88DF8463001F01FF9031E039300F081
:1043D8001E8640F396861CAA11460592039A25ABC1
:1043E80003EB820053F8042B02F25D5208EB8202C1
:1043F8001268984241F8042BF4D13AAB1F44002EBE
:1044080097ED00BA0DDD94ED197A049A134602EB84
:104418008602D3ED007A67EE877AE3EC017A9A4256
:10442800F7D1B5EEC08AF1EE10FA00F1368594EDB9
:10443800200A3AEE400A59F00BF9F0EE407A94ED72
:104448001E0A30EE480A17EE909A59F001F910EE5C
:10445800107A384602F008FBEBA3D3E9002302F0F8
:10446800EBFD70B1484602F0FFFAE7A3D3E9002359
:1044780002F0E2FD28B1F5EEC0CAF1EE10FA00F143
:104488003886D4ED34BA9FEDDC7AD4ED379ADFED77
:10449800DB7AD4ED36AA69EE879A6AEE87AAEBEE44
:1044A800A79AD4ED2C6AE9EEA7AAB0EE006AF0EE5E
:1044B8006A7AF4EEEC6AD9EE867AF1EE10FACDED6E
:1044C8001F7A05D4F5EEC0CAF1EE10FAC0F2EA85FB
:1044D800039B05991FA89A0002F00EF840220021BC
:1044E8004EA853F04DFCD4ED2F7A0023FDEEE77A69
:1044F800289329932A932B9317EE903A4FF07E52E4
:10450800591E03EB81030F937EA9013B0893002EEC
:1045180001EB830343F8C02C0DDD9FEDB97A049AB3
:10452800134602EB8602D3ED007A67EE877AE3EC56
:10453800017A9A42F7D1049FB0EE4C0A38462B46CE
:10454800314622AA01F078FCD4ED017AD4ED2F5A35
:10455800FDEEE77AD4ED006A17EE90EAFDEEE57A13
:10456800FDEEE66A129B34AA02EB830393ED006A20
:104578009DED345ADFEDA94A94ED1E0AB7EE007A94
:1045880017EE90CA384616EE907A20EE240A77EE97
:10459800456A37EE467ADDF888900DF1A00A0AEBF5
:1045A8008C0C4CF8049C07F1FF3C07EB8C070DF5CD
:1045B800FC7909EB870707ED315A0EF1FF370EEB4F
:1045C800870E0AEB8C0C09EB8E0E0AEB8707CCEDF5
:1045D800006A2B46314620EE090A0EED316A87ED56
:1045E800007A22AA8DED336A01F026FC12AB294627
:1045F80016AA22A800F024FF139B002B14DD16AA8C
:1046080002EB830917461346D3ED007AF1EE677A79
:10461800E3EC017A9945F7D197ED000A59F0C2F811
:10462800A7EC010AB945F7D1D4ED2E7AFDEEE77A69
:104638009FED7ACADDED285A9DED296ADDED2A6ADB
:104648009DED2B7A17EE903A25EE8C5A8DED476A40
:10465800CDED486A26EE0C6A66EE8C6A8DED497AD5
:1046680027EE0C7A169A03EB83037EA901EB8303EA
:1046780094ED1E0A43F8D42CCDED465A8DED4A5AD6
:104688008DED4B6ACDED4C6A8DED4D7A01F07CFCD9
:10469800002800F0CF835B4B93ED00CA07939FED92
:1046A8005F0A31462B4629EE000A049822AA30AE4A
:1046B8000A9601F0C1FB059E2946324612AB22A894
:1046C80000F0BEFEDDED166AB7EE007AD6ED007A90
:1046D800D4ED2E5A36EEC76A67EEE67AFDEEE56A45
:1046E80016EE906A04EB8601D1ED2F6AA6EE8C7A5D
:1046F80067EE877A099128A901EB860C7EA94EAF4F
:104708000DF1B00901EB8606D4ED1E2A94ED303A7E
:10471800D4ED313A94ED324AD4ED334A4D463B4616
:1047280006ED356A4CED017A30A846AAB3EC015A79
:10473800D3ED037AF2EC015A63EEA77A93ED076A98
:1047480092ED037AE5EE037AD3ED0B6A2CEE077A45
:10475800E6EE047AA5EEA27AE6EEA47A52A9994288
:10476800A5EC017AE0EC017AE0D104F1C0034FF046
:10477800000C1D46DDF818E04EA8CDE90D7E0DF1C0
:10478800C00A5EAA04F1400BFAEC017AB9EC017A8E
:10479800B0EC014A77EE877A264617462346D0EDD5
:1047A800034A90ED075AD0ED0B5AE5EC017AD3EDA8
:1047B800037A93ED026A64EEA77AD3ED046AE6EE13
:1047C800047A93ED057AE6EE857A3946E7EE257A9E
:1047D80010339B45C1ED007A07F11007E7D1B2EC21
:1047E800014A7746D2ED034A92ED075AD2ED0B5AA9
:1047F8004EAB15E0AFF3008072F97F3F17B7D138A1
:104808000000614500A00020FCA9F1D24D62703F74
:10481800CDCC4CBD6666863F0000C8420000000053
:10482800B3EC016AD3ED037A64EEA77AD3ED076A95
:10483800E6EE047A93ED0B7AE6EE857A3946E7EEF2
:10484800257AC1ED007A52A9994207F11007E7D1FC
:104858000CF1010CBCF1040F0EF1040E94D1DDE94A
:104868000D75099BBFEE000AD3ED2F0A58F0FCFE28
:10487800D4ED2E7AFDEEE77AF0EE400AB7EE000AA4
:1048880017EE90AA58F00EFFF0EE407A04EB8A0378
:10489800C3ED2F7AD4ED2F7AFDEEE77A17EE903A32
:1048A80004EB8303D3ED2F0A1FED270A58F0DCFE33
:1048B800D4ED2F7AFDEEE77AF0EE400A17EE90AAD3
:1048C8001FED2C0A58F0EEFE04EB8A0181ED2F0A49
:1048D8009DED284A94ED137ADDED294A9DED2A5A7B
:1048E800DDED2B7A0DF1A00927EE044A67EE244A84
:1048F80027EE055A4A4627EE277A4EABF2EC017AA4
:1049080064EE275A27EEA46A67EE856A67EE877A0F
:104918002CA9914203F1100343ED045A03ED036AF5
:1049280043ED026A43ED017AE8D104F1080A5346DF
:10493800069A4032F5EC017AB7EC017A77EE877A7D
:10494800AA42E3EC017AF5D1D4ED2F7AFDEEE77AAD
:1049580017EE903A04EB830393ED2F0A08F63C0216
:10496800F0EE680A404608F5A36100F085FC94ED76
:10497800017AD4ED007ABDEEC77AFDEEE77A17EE3C
:10498800102A17EE903A04EB820292ED2F7A04EB8C
:104998008303D3ED2F7ADDED3A6AA7EE4B0A039B2A
:1049A800A6EEE70A002B0EDD03991FAB049A03EB72
:1049B8008101B3EC017AF0EE407AE7EE487A994249
:1049C800E2EC017AF5D1D4ED2F7AFDEEE77A17EE15
:1049D800905A1FED6ECA04EB8503404693ED2F0AEB
:1049E80008F6846208F53661F0EE680A8DED28CA8B
:1049F8008DED29CA8DED2ACA8DED2BCA00F036FD42
:104A080094ED2E7AD4ED006AD4ED017ABDEEC77A22
:104A1800FDEEE66AFDEEE77A9DED3A6A17EE100ABA
:104A280016EE901A17EE902AB1EE466AB1EE4BBA1E
:104A380028AB013D03EB850585ED000A28AD05EBA4
:104A4800800005EB810105EB820200ED01CA01ED52
:104A5800016A02ED01BAB0EE4C7A2346DDED286A10
:104A68009DED296ADDED2A5A9DED2B5AD3ED037A87
:104A780093ED023A66EE277AD3ED043AE6EE837AAE
:104A880093ED054AE5EEA37AF9EC014AE5EE047ADE
:104A980010339B45A7EEA47AE8D1D4ED127A37EE0D
:104AA80027BA30AB04F11802BAEC014ADAED037AFE
:104AB80066EE277ADAED074AE6EE847A9AED0B7A03
:104AC800E5EEA47AE5EE077A87EE8B7A5245A3ECF9
:104AD800017AE9D11FEDB07A039B2BEE077A002B00
:104AE8001CDD0498059F03463946039D11AA00EB77
:104AF8008505F3EC017A7AEE677AE1EC017AD7ED75
:104B0800006A67EEA67AF4EEC77AF1EE10FACCBF27
:104B1800012000209D4202F8010BEAD1039911A857
:104B280000F050FE0546002800F07B815FEDC57A55
:104B3800B0EE67CACDED307ACDED317ACDED327A6F
:104B4800CDED337AF0EE67CAB0EE67DAF0EE67DAE9
:104B5800059BD4ED2E7A93ED007AD4ED305A94ED7E
:104B6800316AD4ED326A94ED335AFDEEE77AA7EE56
:104B78000C5AE7EE2D5AA7EE0D6AE7EE2C6A17EEEF
:104B8800903A84ED335AC4ED305A84ED316AC4ED5D
:104B9800326A04EB8303D3ED2F0ABFEE000A58F004
:104BA80063FDD4ED2E7AFDEEE77AF0EE400AB7EE1B
:104BB800000A17EE907A58F075FDF0EE407A04EB93
:104BC8008703C3ED2F7AD4ED2F7AFDEEE77A17EE3F
:104BD800903A04EB8303D3ED2F0A9FEDD60A58F0E1
:104BE80043FDD4ED2F7AFDEEE77AF0EE400A17EE9A
:104BF800907AB7EE000A58F055FD04EB87072BEEC4
:104C08000D4A6BEE2C4A6BEE0C3A2DEECB5A87ED23
:104C18002F0A0A9BD6ED025A96ED036AD6ED046A6E
:104C280096ED057AF3EC017AE7EE855AA7EEC46AA9
:104C3800E7EEE46AA7EEE37A10365E4546ED025ADF
:104C480006ED016AC6ED006A86ED017AE2D155B13A
:104C58000F9B94ED147A04EB8303D3ED017A67EE8E
:104C6800877AC3ED017AD4ED2F7AFDEEE77A17EE55
:104C7800903AB5EEC08A04EB8302D4ED240AD2ED53
:104C88002F7AF1EE10FA77EEE07A06DDF5EEC07ACB
:104C9800F1EE10FAC8BFC2ED2F0AB5EEC08AF1EEE8
:104CA80010FA00F1D680013B84ED1E8A04EB8303E1
:104CB800D3F8C030089A0B9904EB82020B6092ED8E
:104CC800020A58F013FEF0EE087A20EE270A0C9A32
:104CD8001F9B82ED000A84ED20AAC4ED34BAC4ED0E
:104CE80036AAC4ED379A94ED220AC4F8D43001F0FC
:104CF8004BF9002800F0AA810023C4F8983000235B
:104D0800B0EE480A84F8943001F03EF9079BD3EDE1
:104D1800009A002865D0FFEE007AF4EE679AF1EE6B
:104D280010FA63D1D4ED2F7AFDEEE77A17EE903AB8
:104D380004EB8303D3F8BC30C4ED279AC4F8A03041
:104D480094F89430002B67D00022F0EE497AD4F81A
:104D5800903084F89420C4F89C30B5EEC08AF1EE07
:104D680010FAC4ED267AC4ED219A05DDB5EEC09A95
:104D7800F1EE10FA00F3E48094ED2F7ABDEEC77AD5
:104D8800F5EEC07A17EE103AF1EE10FA04EB830351
:104D980093ED2F7A05DDB5EEC09AF1EE10FA00F327
:104DA800F080049B94991A681F9B84ED228A84EDF5
:104DB800247AC4ED238A81ED02CAC1ED038A0A6010
:104DC8004B607FB0BDEC0C8BBDE8F08FD0ED2B8A2B
:104DD800F4EEC18AF1EE10FA58BFF0EE418AFFF7FF
:104DE800D4B9B5EEC08AF1EE10FA9BD4D4ED2F7A7F
:104DF800FDEEE77A17EE903AC4ED289A04EB8303A8
:104E0800D3F8BC30C4ED299AC4F89C3094F8943097
:104E1800C4ED2A9A002B97D1D4ED267A79EE277A19
:104E28009BE7DDED30DA9DED31DADDED32CA9DED3F
:104E380033CA8DE6D4ED1E7AF5EEC07AF1EE10FA9B
:104E480000F1348140F351813B4BB7EE00CA079320
:104E580025E4F5EEC07AF1EE10FA00F15F81D2EDAB
:104E68002F0A9FED340A58F0FFFBD4ED2F7AFDEEA0
:104E7800E77AF0EE400A17EE905A9FED300A58F0A4
:104E880011FC04EB850383ED2F0AD4ED2F7AFDEE98
:104E9800E77A17EE903A013B06E794ED2F7AFDEE9C
:104EA800C77A17EE903A04EB8303D4ED1C6AD3ED6E
:104EB8002F7AF4EEE67AF1EE10FA18D5002E7FF785
:104EC800B6AAD4ED176A049A134602EB8602D3ED0C
:104ED800007A67EEA67AE3EC017A9A42F7D1FDEE02
:104EE800C77A17EE903A04EB8303D3ED2F7A9FED40
:104EF800137AF4EEC77AF1EE10FA7FF598AA94EDDA
:104F08001D7AB4EEE77AF1EE10FA7FF590AA002E3A
:104F18007FF78DAA94ED187A049A134602EB86025D
:104F2800D3ED007A67EE877AE3EC017A9A42F7D1FB
:104F3800FFF77DBA0000000000A00020A4707D3FAC
:104F480094ED240A01F020F8D4ED2F7A002840F0DF
:104F5800C380FDEEE77A17EE903A04EB8303D4EDB5
:104F6800246A93ED2F7AB4EEE67AF1EE10FA40F265
:104F78004581D4ED267AF5EEC07AF1EE10FA7FF786
:104F880010AFD4ED1A6AF4EEE76AF1EE10FA7FF585
:104F980008AF94ED246AD4ED276AB4EEC76A77EEB9
:104FA800666AF1EE10FA86EEA7AA00F3D080B5EE95
:104FB800C0AAF1EE10FA00F1EF80D4ED2F7AFDEEE1
:104FC800E77A17EE903A04EB830393ED2F7AE8E63D
:104FD80008F5AC5308F5AD501C33143040AA53F80B
:104FE800041B984242F8041BF9D1FFF77DB96EAB58
:104FF8001A46B0EE690A484640A9069300F0D8FD63
:105008006E9B04273A936F9B3B93FFF7B9B908F55A
:10501800AB51B0EE690A4846183100F04FFE012244
:105028001CAB8DED1C0A05930392FFF7E6B908F552
:10503800AD51B0EE690A4846143100F03FFE19AB95
:1050480001268DED190A0493FFF7F1B894ED220AB1
:1050580000F09AFFA0B3079BFFEE007A93ED00AA39
:10506800B4EE67AAF1EE10FA61D0B0EE480A00F08B
:105078008BFF002855D0079BFFEE007AD3ED009AEE
:10508800F4EE679AF1EE10FA7FF45AAEFFEE007A6A
:10509800B4EE67AAF1EE10FA7FF42EAE079BD3EDBB
:1050A800009A4DE601230393FFF718BA704BBFEE41
:1050B80000CA0793FFF7F3BA4FF47F72FFF7F4B80B
:1050C800D4ED227AF5EEC07AF1EE10FA2FD440F33F
:1050D800B980B7EE00AAC8E7FDEEE77A17EE903A76
:1050E80004EB830393ED2F7A43E7614B0793FFF7B4
:1050F800D6BA07EE909A07EE107AC7EE87BAFFF78E
:10510800C2B91CAB0593FFF778B96EAB870006935D
:10511800FFF736B919AB0493FFF789B8C2ED2F0A28
:105128009FE6B5EEC08AF1EE10FAB7D5AEE7B0EE5D
:10513800480A00F029FF00B3079BFFEE007A93EDC1
:1051480000AAB4EE67AAF1EE10FA8ED0D4E5B0EE5C
:10515800690A00F019FF00287FF429AF89EE8A0A4E
:1051680058F076FAD4ED1B7AB4EEE70AF1EE10FAAD
:1051780071DB012384F8943019E7B5EEC08AF1EEAB
:1051880010FA7FF5B9ADB0EE480A00F0FDFE002830
:1051980084D0BFEE00AA6EE7D4ED247AF1EE677AE8
:1051A80094ED290AC7EE8A9A00F0EEFE00284CD149
:1051B800D4ED295A94ED155AF7EE007A89EE056A6E
:1051C80077EEC67A67EEA57ADFED2A6AE9EE867A87
:1051D800F4EEE67A94ED2F7AF1EE10FABDEEC77A86
:1051E800C4ED297A48BFF0EE667A17EE103AC4ED9E
:1051F800217A04EB830393ED2F7AD2E537EE667AB2
:1052080094ED2A0A87EE09AA00F0BEFE00BBD4ED91
:105218002A6A94ED166AF7EE009A89EE067A79EE14
:10522800C79AD4ED2F7A69EEA69AFDEEE77AEAEEF0
:10523800079A17EE903AC4ED2A9A04EB830393ED8C
:105248002F7A96E69FED0BAA0FE7F0EE695AB1E7C1
:10525800F0EE4A6ADDE78AEE290A58F0F9F9D4ED4A
:105268001B7AB4EEE70AF1EE10FA82DA9FE600BF85
:1052780000A000200000000070B52DED048BF0EEBA
:10528800408A90ED000AB4EEE80AD0ED019AD0ED1C
:10529800C87AF1EE10FA0646B0EE609A0C4615464A
:1052A80079EEC09AF4EEE78AC0F29780F1EE10FA30
:1052B800B4EEE80A72DBF1EE10FA67D40023D5EDFC
:1052C800C85A94EDC86A94EDC75AD5EDC76AB0EECE
:1052D800657AE5EE096AA6EE097A78EEE77A37EE9E
:1052E800667A67EE277A87EEA98A38EE258AA6EECF
:1052F800098AFBB338EEC00A80EE290A58F0B0F9E3
:10530800F0EE007A96ED007AB7EE006A78EEC75AAA
:1053180030EE277A70EE066ABDEEC77A17EE103ABD
:10532800BDEEE67A6FF0404117EE102AC5EEA97A75
:105338000B440A4405EB830104EB830377EEC07A40
:1053480093ED007A91ED005A27EE877A05EB8205F6
:1053580004EB820436EE676A27EE858AD5ED006A8B
:10536800D4ED005AF0EE477AA6EE868AE5EE867A04
:10537800A9EE278AB0EE680A00F006FE9FED240A1F
:10538800002808FE000ABDEC048B70BDF4EEE78A25
:10539800F1EE10FA4CBF0123002390E7F1EE10FA6A
:1053A8002DD4002395ED006AD4ED006A95ED017ABD
:1053B80094ED015AF0EE465AA5EE097AE6EE895ABE
:1053C80078EEC07A37EE657A67EE877A87EEA98A33
:1053D80038EE068AA6EE898A8BE7F1EE10FAB4EE6B
:1053E800E80ABFF668AFF1EE10FA05D5F4EEE78AE1
:1053F800F1EE10FA3FF57EAF9FED058ABAE7F4EEBD
:10540800E78AF1EE10FA4CBF01230023CAE700BF78
:1054180000000000F8B5022409684F00002FC3E916
:1054280000140BDD064615460024B6EC010A58F0B8
:105438000FF90134A742A5EC010AF6D1F8BD00BF67
:10544800F8B501244F681C604968002F59600BDDCE
:10545800064615460024B6EC010A58F0F9F801345E
:10546800A742A5EC010AF6D1F8BD00BF70B52DED35
:10547800048BF0EE408A90ED000AB4EEE80AD0ED15
:10548800019AD0EDC87AF1EE10FA0646B0EE609AAD
:105498000D46144679EEC09AF4EEE78AC0F297807A
:1054A800F1EE10FAB4EEE80A72DBF1EE10FA67D406
:1054B8000023D5EDC85A94EDC86A94EDC75AD5EDC6
:1054C800C76AB0EE657AE5EE096AA6EE097A78EE63
:1054D800E77A37EE667A67EE277A87EEA98A38EE9A
:1054E800258AA6EE098AFBB338EEC00A80EE290A9F
:1054F80058F0B6F8F0EE007A96ED007AB7EE006A4A
:1055080078EEC75A30EE277A70EE066ABDEEC77A93
:1055180017EE103ABDEEE67A6FF0404117EE102A0A
:10552800C5EEA97A0B440A4405EB830104EB830317
:1055380077EEC07A93ED007A91ED005A27EE877ADC
:1055480005EB820504EB820436EE676A27EE858A4E
:10555800D5ED006AD4ED005AF0EE477AA6EE868AB9
:10556800E5EE867AA9EE278AB0EE680A00F00CFD0F
:105578009FED240A002808FE000ABDEC048B70BDCC
:10558800F4EEE78AF1EE10FA4CBF0123002390E70E
:10559800F1EE10FA2DD4002395ED006AD4ED006ADF
:1055A80095ED017A94ED015AF0EE465AA5EE097A86
:1055B800E6EE895A78EEC07A37EE657A67EE877A32
:1055C80087EEA98A38EE068AA6EE898A8BE7F1EE7D
:1055D80010FAB4EEE80ABFF668AFF1EE10FA05D596
:1055E800F4EEE78AF1EE10FA3FF57EAF9FED058AFB
:1055F800BAE7F4EEE78AF1EE10FA4CBF0123002374
:10560800CAE700BF0000000000239C4610B4421EF9
:1056180012F8014F0CF1010001333CB1022841F8A6
:105628002C3002DD5DF8044B70478446032BEFD124
:1056380060465DF8044B70472DE9F0412DED028B73
:10564800032892B0B0EE408A0F461D461A9E00F01D
:10565800918000230C930D930E930F931093119345
:105668000306044600F1A480430013F0FF0310D0A2
:105678000DF11808114640469A0000F03DFF4046DB
:1056880000220CAB50F8041B0132A24243F8041B61
:10569800F8DB5CB106AB03EB840203EBC4000FAB91
:1056A80052F8041B824243F8041BF9D1384600F033
:1056B80061FBF0EE400AB0EE480A57F0F3FF3846B7
:1056C800B0EE408A00F086FBF0EE400AB0EE480AE1
:1056D80057F0CAFFD7ED006A97ED017AF4EE406AF9
:1056E800D7ED027AF1EE10FAB4EE407A0CBF01233E
:1056F8000023F1EE10FAF4EE407A8DF800300CBF7A
:1057080001230023F1EE10FA8DF801300CBF0123BC
:105718000023684603A9B0EE408A8DF80230FFF7EF
:1057280073FF002830D04FF00203C6E900031CDDE8
:1057380003A92A460C4605EB800654F8043B12AF31
:1057480007EB830353F81C3C42F8043BB242F4D104
:1057580005EBC00051F8043B12AC04EB830353F88B
:10576800103C42F8043B9042F4D112B0BDEC028BDD
:10577800BDE8F0810CAB02F1180052F8041B82421C
:1057880043F8041BF9D191E7384601AA0CA9B0EEF9
:10579800480A00F00DFA01200221019A029B3060AC
:1057A80071602A606B6012B0BDEC028BBDE8F081BD
:1057B8000DF11808114640464FF47F7200F09CFE28
:1057C8005DE700BF421EC0F101039818814204DD65
:1057D80012F8010F0028F8D170470120704700BF68
:1057E800F0B54FF07E5C14462DED068B4FF0804EE1
:1057F80006460D4640220146C4F800C089B0C4F8E8
:1058080004E004F108001F46F0EE408AB0EE60AAFA
:10581800B0EE419A00F070FE316C00220020A164C5
:10582800716CDFF874C3E164C4F850C0B16CD74B35
:105838006165F16C1B68A165316DE165716D21666B
:10584800B16D6166F16DA166316EE166716E2167B9
:10585800B16E84F89400A267E267C4F88020C4F8A7
:105868008430C4F88830C4F88C30C4F8903061674C
:10587800C4F89820C4F89C30C4F8A030C4F8A43008
:10588800C4F8A83095EDC97AD5EDCA6AB4EEE67ABF
:10589800F1EE10FA80F2828100F11881B0EE476AC9
:1058A80001DDB0EE667AD5EDCB7AF4EEE76AF1EE7B
:1058B80010FA80F27981B4EEE76AF1EE10FA00F19D
:1058C8002D81B4EEE77AF1EE10FA00F35581F0EE8F
:1058D800467A0323B4EEC79AF1EE10FA00F1268156
:1058E800B4EE679AF1EE10FA37FE899A05F5497613
:1058F80084F8B430C4ED2B7A84ED2C7A304600F06D
:1059080039FAF0EE400AB0EE490A57F0CBFE3046BD
:10591800B0EE408A00F05EFAF0EE400AB0EE480AB7
:1059280057F0A2FED5EDC96A95EDCA7AF4EE406A41
:10593800D5EDCB7AF1EE10FAB4EE407A0CBF012324
:105948000023F1EE10FAF4EE407A8DF804300CBF23
:1059580001230023F1EE10FA8DF805300CBF012366
:10596800002305A901A8B0EE408A8DF80630FFF79C
:105978004BFE002800F0DD800EDD05A902AB01EB2F
:10598800800051F8042B02F25D5205EB8202126886
:10599800814243F8042BF4D1DDED029A7C4A05F2EA
:1059A8001453C4F8B820EAEE298AD3ED007AF4EE4D
:1059B800E87A95EDCC0A95EDCDAAF1EE10FA3AEE1B
:1059C80040AAB4EEE80A40F28480F1EE10FA00F141
:1059D800C380C0F2D780002205F5805393EDE46AB6
:1059E800D3ED6A6A93ED6B5AD3EDE57AF0EE465A39
:1059F800E9EE057AE6EE895A38EEC07A77EEE57A6E
:105A080067EE877A87EE8A8A38EE068AA6EE898A52
:105A1800CAB338EEC00A80EE0A0A57F021FEF0EE4B
:105A2800007A70EE277AB7EE006A95EDCC7AFDEE33
:105A3800E77A70EE066A78EEC75A17EE903AFDEEEE
:105A4800E66A85EE8A7A05EB830303F5805393EDC6
:105A5800E38AD3ED695A16EE903A77EE407A05EB71
:105A6800830303F5805336EE676A27EE888AD3ED01
:105A7800E36A93ED697A67EEA57AA6EE868AE7EE81
:105A8800067AA9EE278AB0EE680A00F07DFADFED03
:105A9800417A4FF08143002808FE278AC4ED349AE2
:105AA800C4ED359AC4ED369AC4ED379AC4ED307A10
:105AB800C4ED317AC4ED327A84ED338AC4F8BC304F
:105AC800C7ED008A09B0BDEC068BF0BDB0EE666A82
:105AD800E9E6F1EE10FA37D4002205F5805303F217
:105AE8007451D1ED005A93EDE36A93EDE25A03F550
:105AF800AE63D3ED006AB0EE657AE5EE096AA6EE0C
:105B0800097A78EEE77A37EE667A67EE277A87EED3
:105B18008A8A38EE258AA6EE098A79E7B4EEC79A0A
:105B2800F1EE10FA4FF003037FF5DAAEB0EE479AC4
:105B3800DCE605F5AB51B0EE480A3046183100F006
:105B4800BDF8F0EE409A29E7F4EEE87AF1EE10FAA3
:105B5800CCBF01220022C0E7F4EEE87AF1EE10FA99
:105B6800B4EE680ACCBF01220022F1EE10FA3FF42D
:105B780033AF9FED088A4BE7B0EE677A0323F0EE68
:105B8800467AA7E69FED038A7DE700BF00A00020C4
:105B980000004040000000000000A040F0EE477AFE
:105BA800B0EE479A0123A1E6F0EE467A022391E689
:105BB800F0B52DED0A8B87B06B460546F0EE409A9E
:105BC800174601F1180251F8040B8A4243F8040BF6
:105BD800F9D1D5ED00BA95ED02BA2C4605F10C06BF
:105BE800B4EC010A00F0D0F9A0BBA642F8D195EDBB
:105BF800019AD5ED007AB4EEE79AF1EE10FADDEDF0
:105C080002AA9DED05AA9DED008ADDED038A0FD558
:105C1800F0EE686AB0EE487AF0EE4A8AB0EE6A8A28
:105C2800D5ED02BAB0EE67BAB0EE66AAF0EE47AAB2
:105C3800B0EE690ADDED01CA9DED04CA00F0A4F9D1
:105C480060B11D4B93ED008AF0EE488AC7ED018ADA
:105C580087ED008A07B0BDEC0A8BF0BD79EE6B6A60
:105C68007CEEC87A3BEE499A3CEE686A7AEEECAA7A
:105C78003AEE4CAA87EEA67ACAEE895AC6EE267A7A
:105C88008AEE096A75EEC75A3BEE6BBA36EE676A5A
:105C980085EE8B5AC6EE0B5A39EEEB0AA6EEC57A9C
:105CA800E6EEE57AA5EE007AE5EE807AA7EE008AC0
:105CB800E7EE808ACAE700BF00A00020F8B52DED06
:105CC800088B04460D46F0EE408A90ED00AAD1ED0F
:105CD80000AAD1ED029A90ED029A064600F10C074F
:105CE800B6EC010A00F050F9E0B9B742F8D194EDEA
:105CF800018AD4ED007AB4EEE78AF1EE10FA07D5FE
:105D080094ED02AAD5ED02AAD5ED009AB0EE679AF5
:105D1800B0EE680A95ED01BA00F036F938B1144BC7
:105D280093ED008AB0EE480ABDEC088BF8BD38EE5A
:105D38004A6A3BEE6A7A39EE488A79EECB9AC7EE20
:105D4800067A89EE887A39EE4A9A37EE677AC7EE8C
:105D5800096A78EECA8AE6EE667AB0EE6A8AE6EEF4
:105D6800A87AA7EEA88AB0EE480ABDEC088BF8BD61
:105D780000A0002010B590ED000A044600F004F9D8
:105D880060B194ED010A00F0FFF8F8B194ED020A51
:105D980000F0FAF8B8B994ED020A10BD94ED000AC3
:105DA800022303F18042013A04EB820000E003235E
:105DB800F0EC017AF4EE407AF1EE10FA37FE800A40
:105DC800022BF4D010BD94ED000A10BD94ED010A29
:105DD8000323E6E710B590ED000A044600F0D4F876
:105DE80060B194ED010A00F0CFF800B394ED020A17
:105DF80000F0CAF8C0B994ED020A10BD94ED000A8B
:105E0800022303F18042013A04EB820000E00323FD
:105E1800F0EC017AF4EE407AF1EE10FA48BFB0EEF9
:105E2800670A022BF3D010BD94ED000A10BD94ED63
:105E3800010A0323E5E700BF2DE9F04F2DED028BA2
:105E480001290C46B0EE408A90461F4689B037D0EB
:105E5800002929DD064601250DF1140B0DF1080A6C
:105E68000DF10409B6EC010A09F8015BABEC010A73
:105E780057F0EEFBA542AAEC010A05F10105F1D1A4
:105E88009DED027ADDED037AF4EEC77AF1EE10FAB1
:105E980023DC032C68D1DDED047AB4EEE77AF1EE69
:105EA80010FA61D5022323E09DED050A57F0D0FBD7
:105EB8000123C7E9003409B0BDEC028BBDE8F08FBF
:105EC8001960596090ED007AC0EE077AC2ED007A49
:105ED80009B0BDEC028BBDE8F08F032C47D19DEDD6
:105EE800047AF4EEC77AF1EE10FA4CBF02230123CC
:105EF80008AA02EB830252ED038A20336B4413F89D
:105F08001C3C8DF80430B0EE680A57F0A1FB07EE90
:105F1800904A9FED197AF8EEE77A67EE877A67EE8E
:105F2800807AF4EEC07AF1EE10FA4FEA84052A4638
:105F38004FF0000102A81CDA51F022FFC8EE287ABF
:105F48009DF9043008AA02EB830343ED077A012385
:105F58002A4640467C6002A93B6000F0CDFA09B0B1
:105F6800BDEC028BBDE8F08FDDED058ACBE70123A0
:105F7800BEE751F005FFEAE70000A0350B6883642F
:105F88004B68C364704700BF08B510EE100A00F0F4
:105F98006BFD02460B4601F059F8003818BF012086
:105FA80008BD00BF90ED210A704700BF2DE9F04100
:105FB8002DED048B674BB0EE408A8EB090ED220A2F
:105FC800D3ED008A04460E461546FFF7DDFF30B9CB
:105FD800D4ED227AF5EEC07AF1EE10FA06DBB0EED7
:105FE800680A0EB0BDEC048BBDE8F081D4ED267ACA
:105FF800F5EE407AF1EE10FAF1D003AB94ED230AF6
:1060080005F5AC52009394F8B40008AB043205F5DA
:106018004971FFF711FB039F002F40F3848008AB01
:1060280005AD03EB8702294610464FEA8708F3ECD3
:10603800017AB2EC017A77EE877A8342E1EC017A51
:10604800F5D1002E48D0D4ED246AD4ED287A94ED09
:10605800266A76EEE77A87EE867AB5EEC07AF1EEB2
:1060680010FABCD4B5EE407AF1EE10FAB7D0F7EEDC
:10607800007A77EEE67A87EE879AB5EEC09AF1EE67
:1060880010FAACD494ED220A88EE000A57F0F8FB17
:10609800002F02AB14DD194605AA02EB8704D2EDE6
:1060A800007A67EEC07AF5EEC07AF1EE10FAE2EC0B
:1060B800017A4CBF01200020944201F8010BEED177
:1060C800002297428BDD1978013200293CD0974293
:1060D80003F10103F7DC82E794ED220A88EE000A57
:1060E80057F0CEFB02AB1A4608EB0501D5ED007A56
:1060F80067EEC07AF5EEC07AF1EE10FAE5EC017AB7
:106108004CBF012000208D4202F8010BEED1002285
:10611800BA42BFF664AF1978013271B1BA4203F1DD
:106128000103F8DB5BE7002E8DD194ED220A88EE9F
:10613800000A57F0A5FB02ABE9E7DFED077ADDEDD2
:10614800058A78EEA78A4AE7DDED058A79EE288A7E
:1061580045E700BF00A000200000000010B1024B7E
:10616800C0F8E430704700BF3412CDAB30B1D0F87E
:10617800E400034BC01AB0FA80F04009704700BF32
:106188003412CDAB00285CD0F0B5C36804460E4687
:106198009DB0E3B12C4D14220021284651F0F0FDAA
:1061A8004FF07E520021294B29706A60AA60EB608B
:1061B8002B6165698DB12846FFF7D8FF50B1E822F9
:1061C8002946234800F098F900201DB0F0BD436926
:1061D800002BDFD16FF01500F7E71D4FE8222946A5
:1061E800384651F0CDFD1B496C2201A800F084F916
:1061F800E168C7F8E01023698BB11A6813925A68EE
:1062080014929A681592DA6816921A6917925A695E
:106218001A929A691B929A6A1892DB6A199394EDFA
:10622800021AD4ED010A94ED000A6B46084A01A847
:10623800FFF7D6FA0EB1009B33600548FFF78EFFD3
:10624800C2E76FF015007047246003200000C07F8C
:1062580038600320683108002DE9F0412DED048BEA
:10626800A4B0CDED030A039BF0EE408A002BB0EEFC
:10627800419AF0EE619A0446434D02DB6B78002B9D
:1062880047D095ED038AB4EE488AF1EE10FA3F4AFA
:106298003F4B12681B680792089302D62B78022B93
:1062A80005D095ED018ADDED037A27EE888A394F0E
:1062B80007A93846FFF762FE2B780DF12408052B55
:1062C80034D006AEB0EE680AD7F8E0103346F0EEE8
:1062D800691AB0EE491AF0EE480A2E48CDF8008047
:1062E80005AAFDF735FFDFED2C7A9DED050A20EEB6
:1062F800270A4CB184ED038A84ED040A09990A9AA5
:106308000C9B21606260A36024B0BDEC048BBDE8E7
:10631800F08195ED028ADDED037A204A204B126860
:106328001B6827EE888A07920893C0E76C221D49EC
:10633800404600F0E1F87B6DBA6D1B93FB6D1C9233
:106348003A6E1D937B6E1E923A6F1F937B6F22925B
:10635800BA6E2393FB6E002120923846E02206AEE7
:10636800219351F00DFD3346B0EE491AF0EE480A7C
:10637800B0EE680A3A464046D7F8E010FFF730FA20
:1063880000232B709EE700BF246003200CA0002090
:1063980008A00020386003200000C84214A0002094
:1063A80010A00020683108000148FFF7FBBD00BFBE
:1063B800386003200E4B93ED040AB4EE400AF1EE68
:1063C80010FA0CD61B78032B07D9042B07D10948E0
:1063D8000021D0F8E020FFF7E9BD012B02D89FED9E
:1063E800060A704703480121D0F8E020FFF7DEBD18
:1063F80024600320386003200000C07F062875D879
:10640800DFE800F01B20242C4257040000296DD03F
:10641800D1ED007AF4EE677AF1EE10FA66D6F5EE71
:10642800407AF1EE10FA61D017EE903A002B57DA65
:10643800304BC3ED047A0020704701222D4B002019
:106448005A70704700222B4B5A70F4E700294DD040
:106458000B78052B4AD8274A1370ECE7002945D05A
:10646800D1ED007AF4EE677AF1EE10FA3ED617EE27
:10647800903A002B3ADBF5EE407AF1EE10FA35D07F
:106488001C4BC3ED017AD6E781B3D1ED007AF4EE67
:10649800677AF1EE10FA29D617EE903A002B25DB31
:1064A800F5EE407AF1EE10FA20D0124BC3ED027AE5
:1064B800C1E7D9B1D1ED007AF4EE677AF1EE10FABE
:1064C80014D6F5EE407AF1EE10FA0FD017EE903AA6
:1064D800002BA8BFF1EE677A064BC3ED037AAAE753
:1064E800F1EE677A034BC3ED047AA4E76FF0150069
:1064F800704700BF24600320844641EA000313F07C
:10650800030349D1403A23D30B6803604B684360C7
:106518008B688360CB68C3600B6903614B69436117
:106528008B698361CB69C3610B6A03624B6A4362FF
:106538008B6A8362CB6AC3620B6B03634B6B4363E7
:106548008B6B8363CB6BC36340304031403ADBD203
:1065580030320BD30B6803604B6843608B688360F1
:10656800CB68C36010301031103AF3D20C3205D327
:1065780051F8043B40F8043B043AF9D2043208D0FD
:10658800D2071CBF11F8013B00F8013B01D30B886F
:1065980003806046704700BF082A13D38B07B1D029
:1065A80010F00303AED0C3F10403D21ADB071CBFFB
:1065B80011F8013B00F8013BA4D331F8023B20F865
:1065C800023B9FE7043AD9D3013A11F8013B00F89E
:1065D800013BF9D20B7803704B7843708B7883704A
:1065E8006046704780EA010C1CF0030F37D110F0A9
:1065F800030C20F0030021F0030150F8042B08BF1E
:1066080051F8043B0ED08CF0030C6FF07F434FEA37
:10661800CC0C23FA0CFC51F8043B42EA0C0243EA86
:106628000C0300BFA2F1013C9A4201BF2CEA020C04
:106638001CF0803F50F8042B51F8043BF2D04FEA8D
:1066480002604FEA1222012828BFB0EB036F08BF8F
:106658001B0AF4D003F0FF03000EC01A704710F0B5
:10666800030F0AD010F8012B11F8013B012A28BFAB
:106678009A42F4D0A2EB030070474DF8045D50F83D
:10668800042B01F0030521F0030151F8043B022D0E
:1066980026D04DD822F07F45B5EB132FA2F1013C4F
:1066A8002CEA020C0DD11CF0803C08BF51F8043BC9
:1066B8000AD185EA0205B5EB036F0CD150F8042B1B
:1066C800E8E74FEA13235BE03CF07F4C54D10B78AA
:1066D8004FEA126554E04FEA126503F0FF034FE0FA
:1066E8004FEA0245A2F1013C4FEA15452CEA020C9B
:1066F800B5EB134F18D11CF0803C08BF51F8043B90
:1067080007D185EA0205B5EB034F09D150F8042BF0
:10671800E6E75FEA0C4C2FD10B884FEA12452FE0D1
:106728004FEA03434FEA12454FEA134328E000BFFC
:1067380002F0FF05B5EB136FA2F1013C2CEA020C45
:106748000DD11CF0803C08BF51F8043B0AD185EA02
:106758000205B5EB032F0AD150F8042BE8E74FEAFE
:1067680013630DE012F0FF0F06D051F8043B4FEA17
:10677800122523F07F4303E04FF0000020BC704750
:1067880005F0FF0203F0FF00012828BF904204BF74
:106798002D0A1B0AF4D0A2EB000020BC704700BFF2
:1067A80081F0004102E000BF83F0004330B54FEABA
:1067B80041044FEA430594EA050F08BF90EA020F27
:1067C8001FBF54EA000C55EA020C7FEA645C7FEABA
:1067D800655C00F0E2804FEA5454D4EB5555B8BFDD
:1067E8006D420CDD2C4480EA020281EA030382EA4E
:1067F800000083EA010180EA020281EA0303362DE0
:1068080088BF30BD11F0004F4FEA01314FF4801CB2
:106818004CEA113102D0404261EB410113F0004FC4
:106828004FEA03334CEA133302D0524263EB43037B
:1068380094EA050F00F0A780A4F10104D5F1200E19
:106848000DDB02FA0EFC22FA05F2801841F1000174
:1068580003FA0EF2801843FA05F359410EE0A5F148
:1068680020050EF1200E012A03FA0EFC28BF4CF079
:10687800020C43FA05F3C01851EBE37101F000452F
:1068880007D54FF0000EDCF1000C7EEB00006EEB3C
:106898000101B1F5801F1BD3B1F5001F0CD34908C6
:1068A8005FEA30004FEA3C0C04F101044FEA44521D
:1068B80012F5800F80F09A80BCF1004F08BF5FEAA4
:1068C800500C50F1000041EB045141EA050130BD84
:1068D8005FEA4C0C404141EB0101013C28BFB1F596
:1068E800801FE9D291F0000F04BF01460020B1FAE1
:1068F80081F308BF2033A3F10B03B3F120020CDAB4
:106908000C3208DD02F1140CC2F10C0201FA0CF091
:1069180021FA02F10CE002F11402D8BFC2F1200CF6
:1069280001FA02F120FA0CFCDCBF41EA0C019040AC
:10693800E41AA2BF01EB0451294330BD6FEA0404F5
:106948001F3C1CDA0C340EDC04F11404C4F12002E0
:1069580020FA04F001FA02F340EA030021FA04F3F2
:1069680045EA030130BDC4F10C04C4F1200220FA49
:1069780002F001FA04F340EA0300294630BD21FA87
:1069880004F0294630BD94F0000F83F4801306BF4D
:1069980081F480110134013D4EE77FEA645C18BF41
:1069A8007FEA655C29D094EA050F08BF90EA020FD8
:1069B80005D054EA000C04BF1946104630BD91EAD0
:1069C800030F1EBF0021002030BD5FEA545C05D1D3
:1069D8004000494128BF41F0004130BD14F5800412
:1069E8003CBF01F5801130BD01F0004545F0FE4186
:1069F80041F470014FF0000030BD7FEA645C1ABFBB
:106A0800194610467FEA655C1CBF0B46024650EAF1
:106A1800013406BF52EA033591EA030F41F400211D
:106A280030BD00BF90F0000F04BF0021704730B5A3
:106A38004FF4806404F132044FF000054FF0000178
:106A480050E700BF90F0000F04BF0021704730B539
:106A58004FF4806404F1320410F0004548BF40420E
:106A68004FF000013EE700BF42004FEAE2014FEA63
:106A780031014FEA02701FBF12F07F4393F07F4F3E
:106A880081F06051704732F07F4208BF704793F041
:106A98007F4F04BF41F40021704730B54FF4607454
:106AA80001F0004521F000411CE700BF50EA010257
:106AB80008BF704730B54FF000050AE050EA010200
:106AC80008BF704730B511F0004502D5404261EB70
:106AD80041014FF4806404F132045FEA915C3FF4B1
:106AE800D8AE4FF003025FEADC0C18BF03325FEA4E
:106AF800DC0C18BF033202EBDC02C2F1200300FAFF
:106B080003FC20FA02F001FA03FE40EA0E0021FA23
:106B180002F11444BDE600BF70B54FF0FF0C4CF411
:106B2800E06C1CEA11541DBF1CEA135594EA0C0FC3
:106B380095EA0C0F00F0DEF82C4481EA030621EAFE
:106B48004C5123EA4C5350EA013518BF52EA033539
:106B580041F4801143F4801338D0A0FB02CE4FF0EB
:106B68000005E1FB02E506F00042E0FB03E54FF01B
:106B78000006E1FB03569CF0000F18BF4EF0010E13
:106B8800A4F1FF04B6F5007F64F5407404D25FEA0F
:106B98004E0E6D4146EB060642EAC62141EA5551C2
:106BA8004FEAC52040EA5E504FEACE2EB4F1FD0C04
:106BB80088BFBCF5E06F1ED8BEF1004F08BF5FEA82
:106BC800500E50F1000041EB045170BD06F0004634
:106BD80046EA010140EA020081EA0301B4EB5C04E1
:106BE800C2BFD4EB0C0541EA045170BD41F48011D9
:106BF8004FF0000E013C00F3AB8014F1360FDEBFFE
:106C0800002001F0004170BDC4F10004203C35DAD9
:106C18000C341BDC04F11404C4F1200500FA05F35C
:106C280020FA04F001FA05F240EA020001F00042FD
:106C380021F0004110EBD37021FA04F642EB060173
:106C48005EEA430E08BF20EAD37070BDC4F10C049D
:106C5800C4F1200500FA04F320FA05F001FA04F261
:106C680040EA020001F0004110EBD37041F100014D
:106C78005EEA430E08BF20EAD37070BDC4F1200558
:106C880000FA05F24EEA020E20FA04F301FA05F2C0
:106C980043EA020321FA04F001F0004121FA04F268
:106CA80020EA020000EBD3705EEA430E08BF20EA38
:106CB800D37070BD94F0000F0FD101F00046400072
:106CC80041EB010111F4801F08BF013CF7D041EAF4
:106CD800060195F0000F18BF704703F000465200F8
:106CE80043EB030313F4801F08BF013DF7D043EAC9
:106CF8000603704794EA0C0F0CEA135518BF95EA7F
:106D08000C0F0CD050EA410618BF52EA4306D1D105
:106D180081EA030101F000414FF0000070BD50EA24
:106D2800410606BF1046194652EA430619D094EAAE
:106D38000C0F02D150EA013613D195EA0C0F05D198
:106D480052EA03361CBF104619460AD181EA0301EC
:106D580001F0004141F0FE4141F470014FF00000A4
:106D680070BD41F0FE4141F4780170BD70B54FF03F
:106D7800FF0C4CF4E06C1CEA11541DBF1CEA1355BF
:106D880094EA0C0F95EA0C0F00F0A7F8A4EB0504A1
:106D980081EA030E52EA03354FEA013100F0888098
:106DA8004FEA03334FF0805545EA131343EA126361
:106DB8004FEA022245EA111545EA10654FEA002616
:106DC8000EF000419D4208BF964244F1FD0404F5CF
:106DD800407402D25B084FEA3202B61A65EB03052B
:106DE8005B084FEA32024FF480104FF4002CB6EBE8
:106DF800020E75EB030E22BFB61A754640EA0C0068
:106E08005B084FEA3202B6EB020E75EB030E22BFA7
:106E1800B61A754640EA5C005B084FEA3202B6EBE8
:106E2800020E75EB030E22BFB61A754640EA9C00A7
:106E38005B084FEA3202B6EB020E75EB030E22BF77
:106E4800B61A754640EADC0055EA060E18D04FEA35
:106E5800051545EA16754FEA06164FEAC30343EAD5
:106E680052734FEAC2025FEA1C1CC0D111F4801FA2
:106E78000BD141EA00014FF000004FF0004CB6E79B
:106E880011F4801F04BF01430020B4F1FD0C88BF3A
:106E9800BCF5E06F3FF6AFAEB5EB030C04BFB6EB45
:106EA800020C5FEA500C50F1000041EB045170BD38
:106EB8000EF0004E4EEA113114EB5C04C2BFD4EB65
:106EC8000C0541EA045170BD41F480114FF0000EE9
:106ED800013C90E645EA060E8DE60CEA135594EA65
:106EE8000C0F08BF95EA0C0F3FF43BAF94EA0C0F68
:106EF8000AD150EA01347FF434AF95EA0C0F7FF4DD
:106F080025AF104619462CE795EA0C0F06D152EA30
:106F180003353FF4FDAE1046194622E750EA410614
:106F280018BF52EA43067FF4C5AE50EA41047FF425
:106F38000DAF52EA43057FF4EBAE12E74FF0FF3C8A
:106F480006E000BF4FF0010C02E000BF4FF0010C5B
:106F58004DF804CD4FEA410C7FEA6C5C4FEA430CD4
:106F680018BF7FEA6C5C1BD001B050EA410C0CBF23
:106F780052EA430C91EA030F02BF90EA020F002085
:106F8800704710F1000F91EA030F58BF994208BFEC
:106F980090422CBFD8176FEAE37040F001007047A9
:106FA8004FEA410C7FEA6C5C02D150EA013C07D100
:106FB8004FEA430C7FEA6C5CD6D152EA033CD3D04B
:106FC8005DF8040B704700BF8446104662468C4645
:106FD8001946634600E000BF01B5FFF7B7FF002878
:106FE80048BF10F1000F01BD4DF808EDFFF7F4FFA1
:106FF8000CBF012000205DF808FB00BF4DF808ED2C
:10700800FFF7EAFF34BF012000205DF808FB00BF4E
:107018004DF808EDFFF7E0FF94BF012000205DF870
:1070280008FB00BF4DF808EDFFF7CEFF94BF012025
:1070380000205DF808FB00BF4DF808EDFFF7C4FF1E
:1070480034BF012000205DF808FB00BF4FEA410C67
:107058007FEA6C5C02D150EA013C0AD14FEA430C4A
:107068007FEA6C5C02D152EA033C02D14FF0000087
:1070780070474FF0010070474FEA410212F50012C5
:1070880015D211D56FF47873B3EB625212D94FEA67
:10709800C12343F0004343EA505311F0004F23FA51
:1070A80002F018BF404270474FF00000704750EAA6
:1070B800013005D111F0004008BF6FF00040704763
:1070C8004FF00000704700BF4A0011D212F50012BD
:1070D80011D20DD56FF47873B3EB62520ED44FEA28
:1070E800C12343F0004343EA505323FA02F07047A8
:1070F8004FF00000704750EA013002D14FF0FF30E6
:1071080070474FF0000070474FEA4102B2F1E04388
:1071180024BFB3F5001CDCF1FE5C0DD901F0004C76
:107128004FEAC0024CEA5070B2F1004F40EB8300C6
:1071380008BF20F00100704711F0804F21D113F1F2
:107148003872BCBF01F00040704741F480114FEA2B
:107158005252C2F11802C2F1200C10FA0CF320FAB4
:1071680002F018BF40F001004FEAC1234FEAD323D1
:1071780003FA0CFC40EA0C0023FA02F34FEA43033B
:10718800CCE77FEA625307D150EA01331EBF4FF0C4
:10719800FE4040F44000704701F0004040F0FE40DF
:1071A80040F40000704700BF80F0004002E000BFDC
:1071B80081F0004142001FBF5FEA410392EA030FDA
:1071C8007FEA226C7FEA236C6AD04FEA1262D2EB24
:1071D8001363C1BFD218414048404140B8BF5B4229
:1071E800192B88BF704710F0004F40F4000020F0C2
:1071F8007F4018BF404211F0004F41F4000121F0D8
:107208007F4118BF494292EA030F3FD0A2F1010221
:1072180041FA03FC10EB0C00C3F1200301FA03F15F
:1072280000F0004302D5494260EB4000B0F5000F82
:1072380013D3B0F1807F06D340084FEA310102F141
:107248000102FE2A51D2B1F1004F40EBC25008BFF3
:1072580020F0010040EA03007047490040EB0000BD
:10726800013A28BFB0F5000FEDD2B0FA80FCACF1BE
:10727800080CB2EB0C0200FA0CF0AABF00EBC250EB
:1072880052421843BCBFD0401843704792F0000FD9
:1072980081F4000106BF80F400000132013BB5E72C
:1072A8004FEA41037FEA226C18BF7FEA236C21D0A2
:1072B80092EA030F04D092F0000F08BF0846704707
:1072C80090EA010F1CBF0020704712F07F4F04D1D5
:1072D800400028BF40F00040704712F100723CBFE8
:1072E80000F50000704700F0004343F0FE4040F412
:1072F800000070477FEA226216BF08467FEA2363D0
:107308000146420206BF5FEA412390EA010F40F4BA
:10731800800070474FF0000304E000BF10F0004306
:1073280048BF40425FEA000C08BF704743F09643ED
:1073380001464FF000001CE050EA010208BF704708
:107348004FF000030AE000BF50EA010208BF70478F
:1073580011F0004302D5404261EB41015FEA010CA4
:1073680002BF84460146002043F0B64308BFA3F19C
:107378008053A3F50003BCFA8CF2083AA3EBC2537E
:1073880010DB01FA02FC634400FA02FCC2F120029D
:10739800BCF1004F20FA02F243EB020008BF20F0D4
:1073A8000100704702F1200201FA02FCC2F120023A
:1073B80050EA4C0021FA02F243EB020008BF20EA2F
:1073C800DC7070477BB972B90029BEBF00204FF04E
:1073D800004106E008BF00281CBF6FF000414FF0D5
:1073E800FF3000F075B8ADF1080C6DE904CE002946
:1073F80009DB002B1ADB00F0E4F8DDF804E0DDE936
:10740800022304B07047404261EB4101002B1BDBB3
:1074180000F0D7F8DDF804E0DDE9022304B04042CB
:1074280061EB4101524263EB43037047524263EB05
:10743800430300F0C6F8DDF804E0DDE9022304B0F8
:10744800404261EB41017047524263EB430300F055
:10745800B8F8DDF804E0DDE9022304B0524263EB3A
:107468004303704753B94AB9002908BF00281CBF15
:107478004FF0FF314FF0FF3000F02AB8ADF1080CA3
:107488006DE904CE00F09DF8DDF804E0DDE90223A3
:1074980004B07047D0B500220B4B06460F46FFF7E5
:1074A8003BFBFFF711FE0446FFF7BCFA0022074B2F
:1074B800FFF732FB02460B4630463946FFF774F9B0
:1074C800FFF702FE2146D0BD0000F03D0000F0416C
:1074D800704700BF70B4840746D04C1E002941D0C5
:1074E800D5B2034602E0611EE4B30C4603F8015B23
:1074F8009907F8D1032C2ED9D5B245EA05250F2CCA
:1075080045EA054519D9264603F11001103E0F2E0C
:1075180041F8105C41F80C5C41F8085C41F8045CE7
:1075280001F11001F2D8A4F1100121F00F0104F0CB
:107538000F041031032C0B440DD91E462146043983
:10754800032946F8045BFAD8211F21F0030104310E
:107558000B4404F003042CB1D2B21C4403F8012BF1
:10756800A342FBD170BC70470C460346C2E74308F0
:1075780003F05533C01A00F03333800800F033307D
:1075880018444FF0013300EB101000F00F3058434F
:10759800000E704738B50022002304460D46FFF759
:1075A8002DFD28B920462946BDE83840FFF772BFAF
:1075B800204605F10041FFF76DFF404261EB4101B4
:1075C80038BD2DE9F04786468C460846089E154684
:1075D80074461946002B40F0C1808542B2FA82F207
:1075E80045D94AB1C2F1200300FA02FC9540944003
:1075F8002EFA03F343EA0C0C4FEA154EA8B2230CFB
:10760800BCFBFEF80EFB18CC08FB00F943EA0C4360
:10761800994528D9EB1808F1FF3704D2994502D9C2
:10762800A8F102072B44A3EB0903A4B2B3FBFEFCA9
:107638000EFB1C330CFB00F044EA0344A04214D9AF
:107648002C190CF1FF3304D2A04202D9ACF1020389
:107658002C44241A43EA07401EB1D4400023346066
:107668007360BDE8F0874746DDE76346F1E792BB04
:10767800431B01214FEA154EAFB2200CB3FBFEFCB1
:107688000EFB1C330CFB07F840EA0343984561D90D
:10769800EB180CF1FF3004D2984502D9ACF1020086
:1076A8002B44A3EB0803A4B2B3FBFEFC0EFB1C3374
:1076B8000CFB07F744EA0344A7424DD92C190CF1F7
:1076C800FF3304D2A74202D9ACF102032C44E41BD5
:1076D80043EA0040C0E7C2F120039540944020FAF5
:1076E80003F12EFA03F34FEA154E9040AFB203436D
:1076F800B1FBFEFC0EFB1C10190C0CFB07F841EA51
:107708000041884522D969180CF1FF3004D2884518
:1077180002D9ACF102002944A1EB08019BB2B1FBEC
:10772800FEFC0EFB1C110CFB07F743EA01439F42CA
:107738000ED9EB180CF1FF3104D29F4202D9ACF1FB
:1077480002012B44DB1B41EA004193E76046E3E773
:107758006146F7E76046A4E76346B8E7834206D97F
:1077680016B9002108467CE7C6E900E0F9E7B3FA54
:1077780083F78FB9834201D3724508D8BEEB020460
:1077880060EB030301209C461EB9002169E73846D7
:10779800FAE7C6E9004CF8E7C7F1200CBB400EFA3F
:1077A80007F522FA0CF42EFA0CF1BA401C4320FA21
:1077B8000CF3B8404FEA144901431FFA84FEB3FBA7
:1077C800F9F809FB18300B0C08FB0EFA43EA0043E2
:1077D8009A4540D9E31808F1FF3004D29A4502D9F6
:1077E800A8F102002344A3EB0A0389B2B3FBF9F81A
:1077F80009FB183308FB0EFE41EA03418E452CD9DC
:10780800611808F1FF3304D28E4502D9A8F10203AA
:10781800214443EA0040A1EB0E01A0FB0298414538
:10782800CE46434602D306D14D4504D20138B9EBC2
:10783800020E68EB0403002EA7D0B5EB0E0261EB35
:10784800030101FA0CFC22FA07F3F9404CEA03039E
:10785800C6E9003199E74046C5E74346D9E7000045
:107868002DE9F04F824617461C4600259FB003912C
:10787800387810B9284600F0A9BD252809D0039901
:10788800D0470028C0F2A2857B1C01350593059FCF
:10789800EEE71822002110A850F072FA7B78252B09
:1078A80000F0BC80002398469E469C461846791CEA
:1078B8000E4611F8012B2B2A00F0E38000F2DA8043
:1078C800202A00F0E180232A00F0E1802BB19DF806
:1078D800483043F040038DF84830B8F1000F05D028
:1078E8009DF8483043F020038DF84830BEF1000F72
:1078F80005D09DF8483043F010038DF84830BCF1AE
:10790800000F05D09DF8483043F008038DF8483043
:1079180028B19DF8483043F004038DF848309DF8AD
:10792800483003F04401442903D16FF386138DF8DE
:1079380048309DF848302A2A43F080030E968DF887
:10794800483040F0A9809DF8493043F001038DF894
:107958004930731C1A782E2A0CBF012100219DF88A
:10796800492061F341028DF849200CD15A1C0E922E
:107978005A782A2A40F0A0809DF84920023342F024
:1079880004028DF849201A786C2A00F0C18000F2B0
:10799800A380682A00F0A9806A2A00F0C2804C2AD5
:1079A80000F0C78013F8012B782A05938DF84B2037
:1079B80000F209816D2A00F2C980692A00F2038168
:1079C800572A00F2E280412A04D0A2F14503022B93
:1079D80000F2F98004219DF84A3002F0DF02A2F19A
:1079E800410961F30203D9F100029DF8491042EB05
:1079F800090262F3C7110A068DF84A308DF849105A
:107A0800CBB200F11F8103F07802182A40F00981F7
:107A18006FF3C6038DF849300023F8E08DF84B303A
:107A2800BB1C05939DF849309DF84A20DE0702F0FB
:107A3800070040F1098154F8041B0029049108DA71
:107A48009DF8481041F004018DF848100499494206
:107A58000491590740F1008154F8046B002E80F21C
:107A6800FF809DF849306FF341038DF849304FF09E
:107A7800FF36F5E02D2A0DD0302A7FF427AF0123F9
:107A880016E74FF0010C13E74FF0010E10E74FF027
:107A980001080DE701200BE70EA809F0FDFC0E9B7D
:107AA800B3423FF457AF9DF848201390C00F60F3DE
:107AB80041028DF848204DE70EA809F0EDFC9DF82D
:107AC80048301490C3F3400242EAD07262F3410393
:107AD8008DF848300E9B56E7742A26D07A2A7FF410
:107AE80061AF06219DF849200CE05A78682A9DF874
:107AF800492006D1012161F3C6028DF849200233DD
:107B080050E7022161F3C6028DF84920013349E7A5
:107B18005A786C2A9DF8492001D10421EBE703210A
:107B2800F0E705219DF84920ECE707219DF8492059
:107B3800E8E7BDF8482022F4F04222F0020242F4BD
:107B4800804242F00202ADF84820DFE76E3AD3B235
:107B580001229A4040F282431A429DF8493039D1B5
:107B680012F0240F61D1D1072DD503219DF84A20A9
:107B780003F07803A3F1400861F30202D8F100038F
:107B88008DF84A2043EB080341E00120A2F1580197
:107B9800C9B200FA01F111F4624F7FF41BAF40F64D
:107BA800010319429DF849301AD111F4043F0AD053
:107BB8009DF84A2060F3020203F07803402B8DF809
:107BC8004A207FF429AF9DF8483043F001038DF82F
:107BD800483021E702219DF84A2061F30202EBE7D1
:107BE80002209DF84A1003F0780360F30201402B4D
:107BF8008DF84A1002BF9DF8481041F001018DF838
:107C08004810632A7FF408AF003B18BF01239DF892
:107C18004820C2F340010B4363F341028DF848202A
:107C280000E713F0380FCED1F6E603219DF84A207D
:107C380013F0780F61F3020214BF012300238DF8BB
:107C48004A20E4E70123E2E79DF948100029ACBF88
:107C58004FF0FF311399FBE69E077FF508AF149E9E
:107C680000230428CDE913339DF8493007D199073B
:107C780005D49DF949100029ACBF06260D2602F04F
:107C88000702012AC3F3C30332D1DA1E042A04D837
:107C9800DFE802F02045452020002268012B4FEA4A
:107CA800E271CDE910211BD19DF94020D117CDE912
:107CB800102104349DF84820069292074FD03A4686
:107CC8005046059B039957F040FA0028C0F27E837E
:107CD8000544DCE554F8042BD117CDE91021E9E778
:107CE800022BE6D111B242F3C032CDE91012E0E71F
:107CF800022A24D1DA1E042A04D8DFE802F0181078
:107D080010181800012B4FF0000154F8042B14D060
:107D1800022BCDE91021CDD192B21092CAE70734D7
:107D280024F00704F4E80201CDE91001C2E754F891
:107D3800042B109200221192BCE7D2B2CDE7042A9C
:107D480008D1073424F00704D4E900010834CDE948
:107D58001001AFE7032AADD154F8042BDDE79DF8F5
:107D68004B80B8F1780F3FF692ADB8F1570F5CD859
:107D7800B8F1250F00F0A480B8F1240F7FF687AD85
:107D8800B8F1410F04D0A8F14503022B3FF67FADAF
:107D9800DDE91023002BC0F24D810699080700F198
:107DA8004C81C1F300194FEA4919C3F30A51C3F3CF
:107DB8001303002940F0448152EA030014BF4FF036
:107DC800010C4FF0000CD80240EA5250D702CDE91E
:107DD8000C70B8F1460F47EA010740EAE17008BFA6
:107DE8004FF06608384300F0B781BCF1000F10D09F
:107DF8001B0343EA125317033A4618464FF0000C88
:107E0800002880F25681BCF1000F40F05981CDE97D
:107E18000C730D9BA1F2FE3B43F000430D93002130
:107E2800DDE90C230F46052060E1A8F15802202A5D
:107E38003FF62DAD01A151F822F000BF0F800100DF
:107E480097780100977801009778010097780100EA
:107E580097780100977801009778010097780100DA
:107E6800997D010097780100BB7F0100CF7F010059
:107E7800997D0100997D0100997D010097780100A5
:107E8800CF7F01009778010097780100977801006B
:107E980097780100158001000F8001005F7F0100C5
:107EA8009778010097780100D97E01009778010042
:107EB8000F80010097780100977801000F8001007A
:107EC80040460399D0470028C0F280820135DEE49D
:107ED800002E109F3BDB3146384666F08CF9002FA8
:107EE8003FF4D5AC4FF000093E18F31B9DF84A202B
:107EF80012F01001069100F05E82023312F0400287
:107F0800DDF84C80089218BF149A434418BF9B1898
:107F1800049ACDF81C80002A40F36882D31A9DF891
:107F2800482004935007C2F3800B00F15F8251068A
:107F380040F14F82B9F1000F07D048460399D04766
:107F48000028C0F24382D9460135302242E2384641
:107F580050F0CCFAC6E71098002800F027820DF1FF
:107F680075030093002117AB12AA09F0ABFA4FF082
:107F780000090746BDF84A3003F0EF0343F4F04325
:107F880043F01003ADF84A30002E0CDB9DF8482072
:107F98000DF17503DB1B6FF386129E428DF84820A6
:107FA80001D9F31A1393002F3FF471AC0DF1750644
:107FB8006DE0109B4FF000098DF85C300DF15D0607
:107FC800012317AF92E7069B1F0754BFC3F300199D
:107FD8004FF02B09DDE9102358BF4FEA4919002B50
:107FE80006DA4FF02D09524263EB4303CDE9102323
:107FF800DDE910010DF17503009312AA17AB09F022
:1080080061FA0746C0E74FF00009F1E7109A072B1D
:108018003FF63DACDFE803F00C04060C08080C0C36
:10802800157034E4158032E4EB17C2E900532EE4EE
:1080380015602CE44FF02D09B7E64FF02B09B4E694
:1080480040F2FF70814231D1A34908F101085FFA7B
:1080580088F811F80810134301F003011ED1012913
:108068000BBF492369234E216E210CBF462266228D
:108078008DF85C309DF848308DF85D106FF38613ED
:108088008DF85E208DF848300DF15F0617AFF31BB1
:10809800B9F1000F3FF42AAF013327E7012915BFD3
:1080A8006E234E23612141211A46E1E74FF0000C6F
:1080B80089E692184FF0010C01F1FF3140419FE62B
:1080C800CDE90C20A5E6520842EAC3725B08B3F179
:1080D800333F59460BF1010BF5D201F1020B012197
:1080E80000FB03FCA2FB0023013F63441BF1020FCA
:1080F800E9DB09B1CDE90C23DDE90C32BBF1000F56
:108108002DDCCBF10401A1F120000BF11C0B02FACC
:108118000BFB22FA00F0CA40CB40079208F0DF02BE
:1081280043EA0B03472A43EA00037BD1F91C01DB2E
:10813800BE422ADAA8F10208002E5FFA88F87ADD32
:108148009DF84820013E920675D4B6F1000B18BF81
:108158004FF0010B721C26E04FF0000B5FE6023374
:1081680042F100020CA80BF1FF3B0137CDE90C32BC
:1081780056F0BCFFDDE90C32DB185241002A0BF146
:10818800FF3BF9DACDE90C32B6E79DF84820F61B3B
:1081980090064DD4B6F1000B18BF4FF0010BF21941
:1081A8004FF066084AD4102AA8BF10229FED487BDA
:1081B80010208DED0E7B0B90DDE90E01002A3FD1DA
:1081C800079A1B1842EB0101B1F1805F47D2CDE954
:1081D8000C31069BB8F1660F03F0200240F0C68010
:1081E800002F47DC30238DF85C30002A76D1002E32
:1081F80040F3BD812E238DF85D3087B17B42B342B9
:10820800A8BF3346002B1393A6EB0306D4BF002365
:1082180001239DF84A2063F345128DF84A200DF199
:108228005E0340E0B8F1660F4FF0000BB7D091E75E
:108238004FF0000BB3E74FF0000B8BE70022B5E7D8
:10824800400840EAC1704908CDE90E010EA8CDE901
:10825800082356F04BFF089A099B013AACE75B08E4
:1082680043EAC1730CA84908CDE90C31013756F02F
:108278003DFFAEE717AB0B9900290BDD0BA90CA846
:10828800CDE9063256F04AFF069B013F079A03F8EC
:10829800010BF0D11397AAB9002E40F366812E2165
:1082A80003F8011B0027002E21DD0B9A002A1EDD92
:1082B8000BA90CA8069356F031FF069B013E03F864
:1082C800010BF0E72E2203F8012BEBE7AFF3008058
:1082D8000000000000000008745508002E238DF8E7
:1082E8005D30002F9BD0002E88DC0DF15E03BBF1C2
:1082F800000F4FD114961E4608F0DF03452B24D1FA
:10830800002FBABF7F422D232B23632FC8BF6422BF
:108318007370C4BFB7FBF2F302FB13774FF00A0286
:10832800C8BF03F13001B7FBF2F3C8BFB17003F166
:10833800300102FB137386F8008003F13003D4BFC9
:1083480002360336317073700236139B002B2BDC18
:10835800149B002BD4BF002301239DF84A2063F30C
:10836800861200238DF84A2033708FE60BA90CA8DB
:10837800069256F0D3FE069A30288DF85C0018BF96
:1083880007F1FF3712B9002E40F3F1802E238DF844
:108398005D3044E71E4616F8012C013B302AF9D01F
:1083A8002E2A08BF1E46A7E70123D6E7714E81464D
:1083B8000523771F9AE5110748BF01339EE510464C
:1083C80009920399D0470028099A05DA1FB0BDE839
:1083D800F08F2022DDF810B0594600290BF1FF3B41
:1083E800EDDC049BCDF810B02B445D1AB9F1000FF9
:1083F80005D048460399D0470028E7DB0135089B9C
:10840800002B77D09DF94930002B28DB3B46DFF85D
:10841800689118789B4619F80020013352073FD419
:108428009DF84A30EF1B98065F4407D44246002A5D
:1084380008F1FF383BDC079B3B449F1A9BF8000080
:108448002E280AD10399D0470028BFDBB8F1000FC6
:1084580007F1010731DC0BF1010B5D4638E0B94645
:1084680099F80000C846702809F1010913D1EF1BDB
:10847800149D47443D44EB1B002B33DC33464246F6
:108488005046039956F061FE00289FDB3844049E4D
:108498000546064464E00399D0470028E0DA95E7EA
:1084A80006930399D0470028069BB2DA8EE730205E
:1084B8000399D0470028B9DA88E730200399D047D4
:1084C80008F1FF38C0E70399D0470028FFF67EAFD0
:1084D8002878A84619F8003001355907F3D4A7EBD6
:1084E8000B07C5E730200399D0470028FFF66EAF89
:1084F8000137C0E79DF84A30DA0601D41B0706D5D4
:1085080030200399D0470028FFF660AF0135069B5D
:108518003BB103999DF84B00D0470028FFF656AFB2
:108528000135A84406E030200399D0470028FFF61B
:108538004DAF0135A8EB0503002BF4DC33463A4672
:108548005046039956F001FE0028FFF63FAF284435
:108558009DE720200399D0470028FFF637AF013563
:10856800731B002BF5DCFFF792B91746BFE60DF138
:108578005D03BCE677CE08007555080000000000D2
:108588000022F0B5114640F603408BB010F0C2FB54
:108598000446002840F0A9800FF0C8FE214641F2A9
:1085A800030009AA10F0B6FB0446002840F09D809D
:1085B800099ABE4DD16805F17803D1F80100D1F8C8
:1085C800051003C310460CF00DFC214641F20100D2
:1085D80009AA10F09FFB0446002840F086800998FD
:1085E800C3685A7885F870205A88A5F872201A79D5
:1085F80085F87120B3F80720A5F87420B3F8053082
:10860800A5F876300CF0EEFB214641F2020009AAEB
:1086180010F080FB0446002867D1099F05F1800609
:10862800FA68531C4132344618685968083303C441
:1086380093422646F7D138460CF0D4FB11F05CFE85
:108648000446002851D195F88A3013F0200318D138
:10865800974A9849CDE901320093022258F07CF9F3
:1086680095F87C3013F0400342D1934A1846CDE97F
:10867800013290490122009358F06EF96FF012040C
:1086880033E0072140F633400FF070FE064600281D
:1086980000F0098107210C300CF0D2FC092303708B
:1086A8000223C0F802408471047122464370C370EB
:1086B800314640F6334010F02DFB0446A8B901219D
:1086C80040F631400FF052FE0646002800F0EB80DD
:1086D80001210C3057F088FB2246314640F63140E4
:1086E80010F018FB04460028BAD020460BB0F0BDA5
:1086F800002142F2030009AA10F00CFB04460028EE
:10870800F3D1099B6D4EDA68D2F80100D2F8051052
:1087180003C618460CF066FB214642F2020009AA7D
:1087280010F0F8FA04460028DFD1099CE368B3F892
:10873800012091B249B1D97839B1A5F80421DA7884
:10874800114606F1280066F0C3F920460CF04AFBF2
:108758001F2395F87C60A5F8203116F0200618D163
:10876800022140F66D400FF001FE0446002800F09B
:108778009A8002210C300CF063FC0123214603701F
:108788004670324640F66D4010F0C4FA04460028A0
:10879800ABD195F89C301E0712D5002142F21C007F
:1087A80009AA10F0B7FA044600289ED10998C368B0
:1087B800D3F80120D3F80530C5E938230CF012FBB3
:1087C80095F8D8305C060FD5002142F22A0009AA94
:1087D80010F0A0FA0446002887D10998C3685B788E
:1087E80085F822310CF0FEFA082142F201000FF060
:1087F800BDFD0446002856D008210C300CF020FCA2
:1088080095F8D81040F2022311F0400F08BF032357
:10881800024688074CBF43F02C0043F00C008B063F
:1088280095F8D93048BF40F0400013F0090F18BF41
:1088380040F40060CF0748BF40F01000002158F016
:10884800A2F82146002242F2010010F063FA044621
:1088580000287FF44AAF95F87C30B5F804119E06DD
:1088680030D4C9B941F2050009AA10F053FA0446F8
:1088780000287FF43AAFB5F80431099C4BB9E36896
:10888800B3F80120A5F804219A880D48114666F02E
:108898001FF920460CF0A6FA082140F601400FF017
:1088A80065FD0446E0B96FF068041EE7F09000200B
:1088B80090F6080060F70700BEF60800C89100208F
:1088C800F89100200029E7D1634B0122CDE901038B
:1088D80062490346009058F03FF86FF0040404E73B
:1088E80008210C300CF0ACFB95F8D8300246D907BB
:1088F80047BF57A1D1E900014FF00051584858F03F
:1089080042F82146002240F6014010F003FA0446DE
:1089180000287FF4EAAE014609AA4FF6014010F09C
:10892800F9F9C0B14F4BCDE9014323460094022227
:1089380018464A4958F010F811F02CF90446002856
:108948007FF4D3AE13F0E4FA044600287FF4CDAEEA
:108958000FF0F8FEC9E6099E4049F468B4F8013002
:10896800032B96BF404A414A52F82320CDE90323FE
:108978003F4B0322029300231846CDE9003357F0FA
:10898800EBFFB4F80130B4F80320022B3AD1052AE2
:1089980038D8384B53F82230CDE90332364B03220E
:1089A800029300232D491846CDE9003357F0D4FF30
:1089B800D4F8091063790791B4F80710032B0691CE
:1089C800A1794FF0000496BF2C4A284A52F8232078
:1089D800CDE904312A4B2149204603920293032210
:1089E8002346CDE9004457F0B7FF30460CF0FAF9BA
:1089F80021464FF6024009AA10F08CF9064618B134
:108A0800204B90E7194BC7E70998C368B3F80130C2
:108A1800A5F8C1300CF0E6F995F8C1305B078BD5A5
:108A280031464FF6034009AA10F074F928B1164BE5
:108A38000096CDE90163334679E70998C3685B7806
:108A480085F8C0300CF0CEF976E700BFAFF30080B0
:108A58009088000200800020E2F6080060F7070016
:108A68001088000205F70800E01C080049F4080017
:108A780029F70800C81C080042F70800B81C0800BD
:108A88005AF7080087F70800B0F708000000000050
:108A9800D0B5174B57EC106B18685BF022F80446FA
:108AA80070B10823C0E90667C36039460EA3D3E94D
:108AB80000233046FEF7B6FA20B16FF00043636139
:108AC8002046D0BD0022304639460A4BFEF7A0FAB0
:108AD80010B14FF00043F2E730463946FEF7CCFAC2
:108AE8006061EDE7AFF300800000C0FFFFFFDF41EA
:108AF800D09E00200000E0C12DE9F04F1C469A4BA3
:108B08000E4600251B6883462DED028B9BB0184648
:108B18000692079316954FF0E9FC00210022824641
:108B28003346CDE904129946159313F8017B2D2F8E
:108B38005ED801A252F827F0CB8C0100F98B010016
:108B4800F98B0100F98B0100F98B0100F98B010009
:108B5800F98B0100F98B0100F98B01002F8B0100C3
:108B68002F8B01002F8B01002F8B01002F8B010011
:108B7800F98B0100F98B0100F98B0100F98B0100D9
:108B8800F98B0100F98B0100F98B0100F98B0100C9
:108B9800F98B0100F98B0100F98B0100F98B0100B9
:108BA800F98B0100F98B0100F98B0100F98B0100A9
:108BB800F98B0100F98B01002F8B0100F98B010063
:108BC800F98B0100F98B0100F98B0100F98B010089
:108BD800F98B0100F98B0100F98B0100F98B010079
:108BE800F98B010071920100F98B01008992010053
:108BF80000230893302F00F0878000230993A7F102
:108C08003003092B00F24A8400254846A8462C4622
:108C18000130082C05EB850204F1010408EB8801FA
:108C280015900778CCBF03EB420503EB4108A7F189
:108C38003003092BECD9079952464FF085FC079071
:108C480000284CD1159B079903EB0A020A94159248
:108C580013F80A30A3F13002092A00F2E182013147
:108C680096461598002A40F00685431C15934378CC
:108C7800F0E74FF0010AB31C1593B378A3F130075E
:108C8800092F00F2DB82302B159A40F02583013240
:108C980015921378302BFAD0A3F13100082840F24E
:108CA80019830027002C65D1099A0A4340F0A58250
:108CB800BEF1000F05D1692B00F0308338DD6E2B33
:108CC8003BD0069B9FED268B03B11E60B0EE480A91
:108CD800F0EE680A1BB0BDEC028BBDE8F08F27F000
:108CE800200200213B460A94452A8E460791D8D196
:108CF800159E731C159373782B2B00F0CB832D2BAB
:108D0800B7D04FF0000AB9E799F8013003F0DF0354
:108D1800582B00F034844B46013315931F78302FBD
:108D2800FAD09946002F00F068820123099366E77C
:108D3800492B00F0F3824E2BC3D10C4915A853F0F0
:108D480081F80028BDD0159B1B78282B00F05F8583
:108D5800074803F0CDFAB0EE408AF0EE608A4EE2A2
:108D68000000000000000000445908008856080070
:108D7800405508000A9A4046A2461346002A08BFF2
:108D880023460A93FDF74EFE0B460246102CCDE90A
:108D98000423079BA8BF4FF0100A092CA7EB030375
:108DA8000B9316DD534B03EBCA0353E91223FDF76C
:108DB800B3FECDE904012846FDF734FE02460B4612
:108DC800DDE90401FDF7F2FC0F2CCDE9040100F305
:108DD800B4810B9B002B00F044820B9B40F3538221
:108DE800162B40F36784C4F125030B9A934280F253
:108DF8009C84A4EB0A05154415F00F000AD03D49E0
:108E080001EBC001DDE90423D1E90001FDF784FE8F
:108E1800CDE9040135F00F034FD0B3F59A7F00F385
:108E28001B84102B4FEA231540F3A985DFF8D4E003
:108E38004FF0000CCDF824907646E246F146DDE985
:108E4800042315F0010F104619464FEA65050AF18B
:108E5800010A07D0D6E90023FDF75EFE4FF0010CAA
:108E680002460B46012D06F10806EAD1CE46DDF88A
:108E78002490BCF1000F01D0CDE90423059B0EEB33
:108E8800CA0AA3F154730593DDE90423DAE9000162
:108E9800FDF742FE184B0A460B40CDE9040117497D
:108EA8008B4200F2D983A1F580118B4240F2C28433
:108EB8004FF0FF33124ACDE90432002309932346C9
:108EC8000A9A49465846CDF8008053F04DFA119059
:108ED800002800F0C1830B9A4FF00009079B002A75
:108EE800CA46A3EB0703A8BF0023079322EAE2734D
:108EF8001093E3E078FA07000000F07F0000A07C00
:108F0800FFFFEF7F50FA0700D21A1F2AA5EB0205D0
:108F180000F382820123002693400E932F44454498
:108F2800099BA8451F444346A8BF2B46BB42A8BF80
:108F38003B46002B03DDED1AFF1AA8EB0308079B3D
:108F4800002B00F31082002D00F326820B9B002BD0
:108F580000F35882002F00F34982B8F1000F08DDB2
:108F680051464246584653F0E5FB8246002800F039
:108F7800468222461699584653F072FC81460028CC
:108F880000F03D820023C2685146C3600A9253F044
:108F980045FC0028C0F25384059D00F0E583514646
:108FA800484653F005FE00224FF0804357EC106B03
:108FB80030463946FEF72CF8002800F0C4810A9B99
:108FC800002B40F03582049B002B40F03583C5F31D
:108FD8001303002B40F0A4820022B74B30463946D9
:108FE800FEF70CF8002840F0B6830022B34B304659
:108FF8003946FDF791FD0A4601460C9002F10043FF
:10900800CDE90E120D93DFF8BC82AD4B05EA0808D6
:109018009845DDE90C6700F01282099B1BB3B8F193
:10902800D46F20D8A0A3D3E90023DDE90E01FDF712
:10903800EFFFA0B1DDE90E01FEF746F8012838BFC1
:109048000120FDF7EFFC0A9BCDE90E01002B40F053
:109058000D8301F1004312901393DDE9126707F1C4
:10906800D663A3EB0807B0EE480AF0EE680A53F09F
:10907800A7FC3046394653EC102BFDF74DFD53EC59
:10908800182BFDF793FB0D46CDE904018D4B2B40C2
:10909800434503D1099B002B00F04B821699584693
:1090A80053F006F92146584653F002F951465846FE
:1090B80053F0FEF84946584653F0FAF8119D5846C1
:1090C800696853F0CFF80446002800F098812A69AF
:1090D80005F10C010C3002329DED048B9200FDF776
:1090E8000BFA18AAB0EE480AF0EE680A17A9584613
:1090F80053F0FEFC1690002800F0578101215846D5
:1091080053F0DEF98246002800F07981179B002B86
:10911800C0F26781079A109F03EB0208099A189D0D
:109128009B1A694A2B44C5F13605013B9342FFF669
:10913800EBAE012300260E93F0E6A4EB0A050B9B89
:109148001D44002D3FF758AE3FF4B7AE6D4215F001
:109158000F020AD05D4B03EBC203DDE90401D3E93A
:109168000023FDF703FECDE904012D113FF4A5AE60
:109178001F2D3FDC15F01003554E4FF0000C18BFA3
:109188006A230993DDE9042315F0010F10461946F7
:1091980007D0D6E90023FDF7BFFC4FF0010C0246CB
:1091A8000B466D1006F10806EED1BCF1000F01D098
:1091B800CDE90423099BA3B1DDE90401C1F30A52F7
:1091C800C2F16B03002B0ADD1F2B40F3F88300204C
:1091D800342B049040F30D844FF05C7305936A239D
:1091E800099300220023DDE90401FDF7FDFE0028B4
:1091F8003FF465AE2223CBF800309FED2D8B069A05
:109208000AB1159B1360089B002B3FF45FAD18EE65
:10921800901A18EE102A01F1004343EC182B55E57B
:109228004FF0010E23F02002452A7FF43AAD44EABC
:109238000103099A13437FF45BAD42E500271596B5
:1092480030E5189A03F233430492199A22F48012F3
:1092580042EA03530593290703D5059B43F00043CE
:1092680005939DED048BCAE70023089309F10103D8
:10927800159399F80170002F3FF423AD9946B9E48E
:1092880001230893F2E71633FFF657AF079BDA1B63
:109298000E4B03EBC203DDE90401D3E90023FDF71C
:1092A80065FD41EC180BAAE70000C0FFFFFFDF4196
:1092B80000000000000000000000F03F0000E03F58
:1092C8000000E07F0000F07F02FCFFFF78FA070053
:1092D80028FA0700A3F13007501C15905378A3F122
:1092E800300CBCF1090F00F2DF81013007EB870772
:1092F800159003EB47070378303FA3F1300CBCF11E
:10930800090FF2D9801A082840F3CE8144F61F6766
:10931800BAF1000F3FF4C6AC7F42C3E4BE4915A8BA
:1093280052F090FD00283FF4CCAC159B15A8BB4922
:10933800013B159352F086FD10B9159B0133159327
:109348009FEDA78B5BE7B64B304639460022FDF709
:10935800E3FB0A9BCDE90E01002B64D101F1004328
:109368000C900D934FE651461A46584653F088F92B
:109378008246002843D00146169A584653F0CEF844
:1093880000283CD00A905846169952F091FF0A9B43
:10939800002D16937FF7DAAD2A461699584653F0F2
:1093A800C9F9169000287FF4D1AD27460546222337
:1093B8009FED8B8BCBF800302946584652F078FF4A
:1093C8003946584652F074FF5146584652F070FFDD
:1093D8001199584652F06CFF4946584652F068FFBA
:1093E8000DE7109ADDF81C80D71A97E621463A4611
:1093F800584653F09FF9044600287FF4AEAD27463F
:10940800169DD4E72146109A584653F039F9044678
:1094180000287FF49FADF2E7824EF61A012303FA83
:1094280006F60E937AE59DED0E7B8DED0C7BEAE555
:109438009FED6D7B8DED0C7B8DED0E7BE3E5A5F14E
:1094480054730593DDE9046747EC106B53F0B8FAE1
:10945800DDE90C2351EC100BFDF75EFB32463B4671
:10946800FDF7A4F9704A714B0A409A42CDE904010C
:1094780040F2F88018EE902A03F154739A4203D10F
:1094880018EE103A0133BAD04FF0FF33684ACDE9ED
:10949800043203E64FF0000AFFF7EDBB0799524686
:1094A80048464FF051F80A9048B100223B4615460D
:1094B80090461146144696460A920792B2E6159BC4
:1094C80003EB0A00159013F80A30302B40F02B817B
:1094D80002461146013215921378302BF9D0C0F1AB
:1094E80001000144A3F13102082A11D8DDF8549093
:1094F8004FF00008A3F1300E01244B1C48464546A6
:10950800079308EB880800210EEB4808FFF7ADBB6E
:1095180000224FF0010E144690461546079281E648
:109528009FED337B8DED0C7B9FED2F7B8DED0E7BBF
:1095380069E5DDE90E67C5F3130530463946FEF7E0
:1095480029F8FDF7BBFA02460B4630463946FDF7C7
:109558002BF90A9B049A06460F4643EA020C5CEA7A
:10956800050C28D124A3D3E90023FDF747FD0028E3
:109578003FF494AD9DED048B2746169D1CE7089B90
:1095880015A902945846019316AB2A4A009317ABC3
:1095980052F05EF910F0070405463FF42EAE062C93
:1095A80040F09580069A12B109F1010313609FED0E
:1095B800148BFFF78BBB14A3D3E90023FDF71EFD23
:1095C8000028D7D13046394611A3D3E90023FDF747
:1095D80033FD00283FF462ADCCE700BFAFF3008055
:1095E800000000000000F07F000000000000F03FD5
:1095F800000000000000F0BF9535A094FFFFCF3FAA
:1096080000000000000000009535A094FFFFDF3F38
:1096180035E5AF350000E03F7C560800805608006D
:109628000000E03FE2FBFFFF0000F07FFFFF9F7CB0
:10963800FFFFEF7FA0560800049B012B7FF470AF5B
:10964800002D7FF46DAF2746169C222325469FEDFB
:10965800A48BCBF80030AFE622239FEDA38BCBF889
:109668000030CCE501F1547505950FE59DED0E7BB5
:109678008DED127BF1E4012900F0FE8104EB010C71
:109688000CF1FF3704E04FEA4A08A74200F0F681E0
:10969800082C08EB880A04F10104F4D905EB8503CA
:1096A800102CD8BF5D00F0E744F61F629742A8BFB0
:1096B80017462DE60B98924901EBC001DDE904231A
:1096C800D1E90001FDF728FA41EC180B97E5169A45
:1096D8003AB1352118A853F099FA5846169952F01C
:1096E800E7FD013C179B042C3FF6B5AD01A252F8EB
:1096F80024F000BF4B920100259701001F9701003D
:10970800119701004B9201004FF0FF336FF00040BA
:10971800CDE904309FE57B4B05939CE5189B0493AA
:10972800199B059397E50A99DCE6C4F10F04744D7B
:1097380005EBC401DDE90423D1E90001FDF7ECF9EB
:109748000B9B1C1B05EBC405D5E90023FDF7E4F9C9
:1097580041EC180B53E59FED667B8DED0C7B9FED7F
:10976800667B8DED0E7B4EE40A982746DDF838803F
:10977800B4462B466449C5F31302002800F09380D1
:109788008A4200F00281002E38D1049A18EA020FAA
:1097980037D0B0EE480AF0EE680A049353F010F997
:1097A800099B51EC100B002B00F05381049BC3F371
:1097B8000A53C3F16B04002C05DD544D002205EB60
:1097C8000453FDF7A9F902460B4651EC180BFCF7B8
:1097D800EDFF169C41EC180B4D4B0022254651EC31
:1097E800180BFDF799F941EC180B18EE903A034362
:1097F8007FF4E2AD2223CBF80030DDE51CEA030F4D
:10980800C7D1169C099B2546002BE5D1D4E515A8A0
:1098180018AA404952F030FB05287FF499AA199BF1
:1098280043F0FF4343F4E0030593189B04939DED35
:10983800048BE4E402F154730593FFF73EBB0A9BE3
:109848002746DDE904010343DBD1C1F31303002BF1
:10985800D7D121F00044240D2405B4F1D66F264653
:10986800CFD9D9F814301BB9D9F81030012BC8DD7D
:1098780049460122584652F05DFF5146814652F052
:10988800CDFF0028BDDD099BE3B1A6F58016169C27
:109898006FEA16536FEA035305934FF0FF330493AF
:1098A8009DED048B98E7002A36D1DDE90445224670
:1098B800002C7DD1099A002A40F0898025F00044C7
:1098C800240D2405A4F58014169D6FEA14536FEA3D
:1098D800035305934FF0FF3304939DED048B6BE521
:1098E8000000000000000000000000000000F07F01
:1098F800000000000000E0BF000000000000E03FA2
:1099080078FA07000000F07FFFFF0F000000F03F2B
:10991800000050398C560800002E4BD1049A18EAE2
:10992800020F3FF46EAFB0EE480AF0EE680A0493F7
:1099380053F046F8099B51EC100B002B62D0049BA6
:10994800C3F30A53C3F16B04002C05DD5A4D002202
:1099580005EB0453FDF7E0F802460B4651EC180BF3
:10996800FCF722FF02460B4643EC182B002200238B
:10997800FDF73AFB00287FF467AE169C2CE74FF002
:10998800000ADFF840E1FFF779BADDE90401099A36
:109998000446002A4AD10246013200F08280BCF116
:1099A800000F7FF42BAF14EA080F3FF42AAFF0E65C
:1099B800002EB4D01CEA030F3FF423AFB3E74FF0F7
:1099C800FF3202FA03F3049A1A40049207E43B4E6A
:1099D8001E40B6F1D66F3FF658AF169DB6F15C7FC4
:1099E8002C463FF6F9AE22239FED318BCBF80030A1
:1099F800E2E4C2F14B024FF0FF3393400B40059372
:109A0800FFF7EDBB02460B4651EC180BFCF7CCFEFA
:109A180002460B46169C43EC182B002200232546D1
:109A2800FDF7E2FA00283FF4C7AC0EE6234A2A40C5
:109A3800B2F1D46F17D9611CB1D121498D423FF4DD
:109A4800DFAC02F580130593002304939DED048B8E
:109A5800D7E602460B4651EC180BFCF7A7FE169DFD
:109A680041EC180BA8E4100D4FF0FF31C0F16B006A
:109A780081408C4293D1E4E704F1010C079B082C48
:109A88000B44079301DC64463BE5BCF1100F6446C8
:109A98004FF00001DCBF05EB850502EB4505FFF73C
:109AA800E4B8074A95423FF4ABAC01322A40C8E714
:109AB80000000000000000000000F03F0000F07F00
:109AC800FFFFEF7F50FA07002DE9F04FD7B00C46A3
