:1000000040740020B58D0000474D0200A18D000016
:10001000A18D0000A18D0000A18D0000A18D000028
:10002000000000000000000000000000198F000028
:10003000A18D000000000000B18E0000A18D000025
:10004000D5900000D5900000D5900000D59000001C
:10005000D5900000D5900000D5900000D59000000C
:10006000D5900000D5900000D5900000D5900000FC
:10007000D5900000D5900000D5900000D5900000EC
:10008000D5900000D5900000D5900000D5900000DC
:10009000D5900000D5900000D5900000D5900000CC
:1000A000D5900000D5900000D5900000D5900000BC
:1000B000D5900000D5900000D5900000D5900000AC
:1000C000D5900000D5900000D5900000D59000009C
:1000D000D5900000D5900000D5900000D59000008C
:1000E000D5900000D5900000D5900000D59000007C
:1000F000D5900000D5900000D5900000D59000006C
:10010000D5900000D5900000D5900000D59000005B
:10011000D5900000D5900000D5900000D59000004B
:10012000D5900000D5900000D5900000D59000003B
:10013000D5900000D5900000D5900000D59000002B
:10014000D5900000D5900000D5900000D59000001B
:04015000D590000046
:100158002DE9F14F03F11C0402EB840C4FEA930BD9
:100168008A68CB680868496800F046F93CE9F000FD
:100178006040694072407B400BF1060E4EE083EA16
:10018800134480EA134582EA134746BA96EA344490
:10019800604000F00F1684EA063420F00F1684EA57
:1001A800161054BA94EA0106724002F00F1486EA57
:1001B800043622F00F1486EA14124CBA65406940DE
:1001C80001F00F1485EA043521F00F1485EA1411A3
:1001D8005CBA67407B4003F00F1487EA043723F0CA
:1001E8000F1487EA141344BA44404DBA4D4056BA26
:1001F80056405FBA5F4087EA174886EA174B84EA99
:1002080017464FEA38488BEA1B4485EA1B4788EAB9
:100218001B4580EA3440694072407B4000F07034EE
:1002280000F0803500F00F3040EA440040EAD50085
:1002380080EA900404F0332480EA8400604001F0EE
:10024800703401F0803501F00F3141EA440141EA90
:10025800D50181EA910404F0332481EA84016140E4
:1002680002F0703402F0803502F00F3242EA4402A4
:1002780042EAD50282EA920404F0332482EA840234
:10028800624003F0703403F0803503F00F3343EA23
:10029800440343EAD50383EA930404F0332483EA4E
:1002A80084036340C943DB4381EA000483EA0446CC
:1002B80086EA020183EA014382EA334583EA14436A
:1002C8005C4084EA00077FEA040A8AEA024A8AEA6A
:1002D800010B87EA11488AEA374A80EA060181EA6F
:1002E8001A418AEA030A04EA0A00454088EA040730
:1002F80007EA0B0041408AEA0B0608EA060084EA8E
:1003080034428AEA3A4602EA0603584045404140E8
:1003180087EA37438BEA3B4003EA000985EA090587
:1003280082EA0309464006EA0906714085EA0100A7
:1003380005EA3546464006EA314181EA304181EA1C
:10034800364606EA304686EA354634400F4086EAA5
:10035800010508EA050886EA3640024088EA0208EC
:1003680081EA314213405C4080EA020309EA03094A
:1003780087EA0907674088EA040806EA0A0601EAE4
:100388000B018AEA0B0425408AEA3A44204045409A
:100398008BEA3B4B02EA0B02564084EA0B042340EB
:1003A80059406E40694087EA364080EA384080EA22
:1003B800060380EA104481EA134585EA344585EA54
:1003C80017427D4082EA354180EA05403CE9F00069
:1003D8006040694072407B40BEF1010E3FF6CFAEEF
:1003E80020BC00F05FF828606960AA60EB60BDE897
:1003F800F08F00BF00F000BA80EA101404F0F01487
:1004080080EA0410604081EA111404F0F01481EAD3
:100418000411614082EA121404F0F01482EA041212
:10042800624083EA131404F0F01483EA041363406F
:1004380080EA102404F47F4480EA0420604081EAC2
:10044800112404F47F4481EA0421614082EA1224E1
:1004580004F47F4482EA0422624083EA132404F409
:100468007F4483EA0423634081EA500404F055344E
:1004780080EA4400614083EA520404F0553482EA79
:100488004402634082EA900404F0333480EA840032
:10049800624083EA910404F0333481EA84016340C2
:1004A800704700BF82EA900404F0333480EA840085
:1004B800624083EA910404F0333481EA84016340A2
:1004C80081EA500404F0553480EA4400614083EA2C
:1004D800520404F0553482EA4402634080EA10244E
:1004E80004F47F4480EA0420604081EA112404F483
:1004F8007F4481EA0421614082EA122404F47F44A3
:1005080082EA0422624083EA132404F47F4483EAE3
:100518000423634080EA101404F0F01480EA041005
:10052800604081EA111404F0F01481EA041161407A
:1005380082EA121404F0F01482EA0412624083EA98
:10054800131404F0F01483EA04136340704700BFE7
:100558002DE9F14F94464FEA930B8A68CB680868F7
:100568004968FFF749FF0BF1060E33E083EA1344AD
:1005780080EA134582EA134746BA96EA3444604053
:1005880000F00F1684EA063420F00F1684EA1610DD
:1005980054BA94EA0106724002F00F1486EA04364F
:1005A80022F00F1486EA14124CBA6540694001F033
:1005B8000F1485EA043521F00F1485EA14115CBA8A
:1005C80067407B4003F00F1487EA043723F00F14C9
:1005D80087EA1413BCE8F0006040694072407B4031
:1005E80000F0E03400F0103500F00F3040EA54001D
:1005F80040EAC50080EA900404F0332480EA8400CD
:10060800604001F0E03401F0103501F00F3141EAAB
:10061800540141EAC50181EA910404F0332481EAD6
:100628008401614002F0E03402F0103502F00F322C
:1006380042EA540242EAC50282EA920404F03324F0
:1006480082EA8402624003F0E03403F0103503F0DC
:100658000F3343EA540343EAC50383EA930404F0DF
:10066800332483EA8403634081EA324787EA1345E7
:1006780081EA354690EA060484EA034B82EA1B4283
:1006880080EA044484EA054483EA144A85EA144467
:100698008BEA044B84EA374481EA0B4181EA16412C
:1006A80004EA0A00454082EA04082BEA08004140AF
:1006B8008AEA0B0602EA060084EA34438AEA3A46E2
:1006C80003EA060778404540414088EA38478BEA04
:1006D8003B4007EA000985EA090583EA070946401D
:1006E80006EA0906714085EA010005EA35464640F2
:1006F80006EA314181EA304181EA364606EA304667
:1007080086EA3546344008EA010886EA01052A40A7
:1007180086EA364003405A4081EA31431F407C4014
:1007280080EA030709EA070988EA0908544088EAC1
:10073800020806EA0A0601EA0B018AEA0B021540DA
:100748008AEA3A42104045408BEA3B4003405E400B
:100758004240174079404D404E40E443F64386EA14
:1007680018435D4085EA054083EA134386EA03415E
:1007780083EA384284EA114383EA04435FEA334355
:10078800BEF1010E3FF6F2AE1ED4BCE8F0006040A8
:10079800694072407B4020BCFFF784FE2860696096
:1007A800AA60EB60BDE8F08F2DE9E0414FF2F0025E
:1007B80080EA1031114080EA01304840410882083F
:1007C800C3084FF0000E4FE700F0113001F011316F
:1007D80002F0113203F0113340EA410040EA82008E
:1007E80040EAC3004FF2F00280EA1031114080EA7B
:1007F80001304840BDE8E0812DE9F04F02F11C05C9
:100808000646074600EB850851F8040B043A46F8FB
:10081800040BF9D14FF0010CFFF7C6FF5FEA302057
:1008280080EA0C001ECF41404A4053405C401EC63F
:100838002000464517D04FEA4C0C1CF4807F18BFA7
:10084800ACF1E50C2C2DE7D03C2D06D1FFF7ACFF21
:1008580006CF41404A4006C6100006CF41404A40F4
:1008680006C61000D8E736E90F00FFF7C5FD043DBE
:1008780086E80F00F7D1BDE8F08F00BF2DE9F0073B
:1008880091E8F807B2E802105B1854EB0C04B2E8E0
:1008980002104D4156EB0C06B2E802104F4158EBDE
:1008A8000C08B2E8021059EB01095AEB0C0A80E86F
:1008B800F80780410130BDE8F00770472DE9F007DF
:1008C80091E8F807B2E802105B1A74EB0C04B2E87E
:1008D80002108D4176EB0C06B2E802108F4178EBDE
:1008E8000C08B2E8021079EB01097AEB0C0A80E8EF
:1008F800F80780414042BDE8F00770472DE9F0074E
:10090800524290E87800B1E880071740DB1918EAEE
:10091800020854EB080419EA020955EB09051AEA1A
:10092800020A56EB0A0678C090E87800B1E880071A
:1009380017407B4118EA020854EB080419EA020937
:1009480055EB09051AEA020A56EB0A0678C08041F7
:100958000130BDE8F00770472DE9F007524290E8F2
:100968007800B1E880071740DB1B18EA020874EB2F
:10097800080419EA020975EB09051AEA020A76EB76
:100988000A0678C090E87800B1E880071740BB41B4
:1009980018EA020874EB080419EA020975EB09055C
:1009A8001AEA020A76EB0A0678C080414042BDE89E
:1009B800F00770472DE9F00152424FF0040890E823
:1009C800300091E8C000A31B1340E41AF618EB1B93
:1009D8001340ED1AFF1830C0C0C1B8F10108EED1BC
:1009E800BDE8F001704700BF00B592E8DC072DE9CB
:1009F800DC07B1E8805702B4A7FB02510A95A8FBAF
:100A0800020BE7FB6310E9FB62B00B91A8FB0351F3
:100A1800EAFB6201E7FB64B5E7FB6605E8FB6615E0
:100A2800CDF830B0A9FB03B6EAFB6316ECFB6356BE
:100A3800E8FB640BE9FB641BEAFB645BECFB646B9F
:100A48000D90ACFB0230059CEEFB6250E9FB646044
:100A5800EAFB64B0E7FB6431E8FB6451069CE8FB01
:100A68006461E9FB64B1EAFB64010E93A7FB0432FD
:100A7800079CE7FB6462E8FB64B2E9FB6402EAFBFB
:100A88006412049CE9FB6453EAFB6463089CE7FB7B
:100A980064B3E8FB6403E9FB6413EAFB64230F9582
:100AA8005DF8049B99E80006DDF80080A9FB08546E
:100AB800EAFB68B4DDF81080ECFB6804EEFB681410
:100AC800E9FB6824EAFB6834DDF80480EEFB68651E
:100AD800E9FB68B5EAFB6805DDF81480ECFB6815EE
:100AE800EEFB6825E9FB6835EAFB68450F96DDF8FB
:100AF8000880AEFB0876E9FB6806EAFB6816DDF8B5
:100B08001880ECFB6826EEFB6836E9FB6846EAFBD2
:100B18006856DDF80C80ECFB68B7EEFB6807E9FB6C
:100B28006817EAFB6827DDF81C80ECFB6837EEFBEA
:100B38006847E9FB6857EAFB686708B000BD00BF73
:100B48002DE9F14F87B0FFF74FFFDDF81C8008F162
:100B5800200888E8FF00FFBC87E87F08BDE8F08F21
:100B680000B591E89857A3FB03520195A3FB040134
:100B7800E3FB6420E3FB67100292A3FB0752E3FB4D
:100B88006802E4FB6415E3FB6805E3FB6925039150
:100B9800A4FB07B6E3FB6926E3FB6A56E4FB670B95
:100BA800E4FB682BE3FB6A5BE3FB6C6B0490A4FB40
:100BB8000810E4FB6950E3FB6C60E3FB6EB0E7FBF5
:100BC8006721E4FB6951E4FB6A61E3FB6EB1E4FB76
:100BD8006E010592A7FB0832E4FB6A62E4FB6CB283
:100BE800E4FB6E02E7FB6E12E7FB6853E7FB696301
:100BF800E4FB6CB3E7FB6C03E7FB6E13E8FB6E23C7
:100C08000695A7FB0954E7FB6AB4E7FB6C04E8FB0D
:100C18006C14E8FB6E24E9FB6E34E8FB6865E7FBBF
:100C28006AB5E8FB6A05E8FB6C15E9FB6C25E9FB8E
:100C38006E35EAFB6E450796A8FB0976E8FB6A065F
:100C4800E9FB6A16E9FB6C26EAFB6C36EAFB6E46A2
:100C5800ECFB6E56E8FB69B7E9FB6907E9FB6A1725
:100C6800EAFB6A27EAFB6C37ECFB6C47ECFB6E5738
:100C7800EEFB6E6700BD00BF2DE9F14F87B0FFF7AF
:100C88006FFFDDF81C8008F1200888E8FF00FFBC32
:100C980087E87F08BDE8F08F30B44FF0000310F804
:100CA800014B11F8015B013A84EA050443EA0403A5
:100CB800F5D1A3F101034FEAD37030BC704700BFF0
:100CC8004FF0000310F8012B013943EA0203F9D170
:100CD800A3F101034FEAD370704700BF30B411F895
:100CE800014B12F8015B6C4000F8014B013BF6D157
:100CF80030BC70472DE9F04F90E8F00F00F140004C
:100D08004FF0040E59E0F0B4826BC36B04680525FC
:100D1800242687593C444FEA724787EAF24787EA14
:100D280092273C4442684FEAF21787EAB24787EABB
:100D3800D2073C4440F8044B032D08BF6FF01B0654
:100D480087593A444FEA734787EAF34787EA932774
:100D58003A4443684FEAF31787EAB34787EAD30769
:100D68003A4440F8042B87593B444FEA744787EAD2
:100D7800F44787EA94273B4444684FEAF41787EA24
:100D8800B44787EAD4073B4440F8043B013DC0D14F
:100D9800A0F13C00076A3C444FEA724787EAF247F1
:100DA80087EA92273C4402684FEAF21787EAB2477B
:100DB80087EAD2073C44C463F0BC4FF0020288EAD9
:100DC800781C8CEAF84C0BEBBC1C8AEA090303EA92
:100DD800080383EA0A039C4450F8043B9C4451F8F6
:100DE800043B9C44674444EA050B0BEA060B04EAFF
:100DF80005034BEA030BE34484EAF42383EA345300
:100E08000BEBB30B87EA771C8CEAF74C0AEBBC1C9C
:100E180089EA080303EA070383EA09039C4450F8B4
:100E2800043B9C4451F8043B9C4466444BEA040A46
:100E38000AEA050A0BEA04034AEA030AE2448BEACF
:100E4800FB2383EA3B530AEBB30A86EA761C8CEA57
:100E5800F64C09EBBC1C88EA070303EA060383EA9D
:100E680008039C4450F8043B9C4451F8043B9C44C0
:100E780065444AEA0B0909EA04090AEA0B0349EA44
:100E88000309E1448AEAFA2383EA3A5309EBB309EE
:100E980085EA751C8CEAF54C08EBBC1C87EA06034E
:100EA80003EA050383EA07039C4450F8043B9C4487
:100EB80051F8043B9C44644449EA0A0808EA0B08D0
:100EC80009EA0A0348EA0308E04489EAF92383EABD
:100ED800395308EBB30884EA741C8CEAF44C07EB2A
:100EE800BC1C86EA050303EA040383EA06039C4460
:100EF80050F8043B9C4451F8043B9C44E34448EAC2
:100F0800090707EA0A0708EA090347EA03076744E3
:100F180088EAF82383EA385307EBB3078BEA7B1C8C
:100F28008CEAFB4C06EBBC1C85EA040303EA0B03C2
:100F380083EA05039C4450F8043B9C4451F8043B65
:100F48009C44E24447EA080606EA090607EA080359
:100F580046EA0306664487EAF72383EA375306EB33
:100F6800B3068AEA7A1C8CEAFA4C05EBBC1C84EAC4
:100F78000B0303EA0A0383EA04039C4450F8043B86
:100F88009C4451F8043B9C44E14446EA070505EAC1
:100F9800080506EA070345EA0305654486EAF623D9
:100FA80083EA365305EBB30589EA791C8CEAF94CD8
:100FB80004EBBC1C8BEA0A0303EA090383EA0B036C
:100FC8009C4450F8043B9C4451F8043B9C44E04446
:100FD80045EA060404EA070405EA060344EA0304AA
:100FE800644485EAF52383EA355304EBB304013AF4
:100FF8007FF4E5AEA0F14000BEF1010E7FF483AEB0
:10100800A0F1400C9CE80F00001949199219DB194E
:10101800ACE80F009CE80F004044494452445B444C
:10102800ACE80F00BDE8F08F2DE9F00791E8F8076C
:10103800B2E802105B1854EB0C04B2E802104D4100
:1010480056EB0C06B2E802104F4158EB0C08B2E818
:10105800021059EB01095AEB0C0A8941B3F1FF332D
:1010680074F1FF3475F1FF3576F1000677F100076A
:1010780078F1000879F101097AF1FF3A51F100019C
:101088005B184C414D4156F1000657F1000758F1E5
:10109800000859EBD1795AEB010A80E8F807BDE856
:1010A800F00770472DE9F00791E8F807B2E8021059
:1010B8005B1A74EB0C04B2E802108D4176EB0C0657
:1010C800B2E802108F4178EB0C08B2E8021079EB15
:1010D80001097AEB0C0A89415B184C414D4156F1E4
:1010E800000657F1000758F1000859EBD1795AEB7F
:1010F800010A80E8F807BDE8F007704718EB040814
:1011080059EB05095AEB060A5BEB070B5FF0000C7D
:101118004CF1000C18EB050859EB06095AEB070AC5
:101128005BEB070B50EB0C005FF0000C51EB0C0174
:1011380052EB0C0263414CF1000CB8EB070879F153
:1011480000097AF1000A7BEB040BA841B141A241E6
:10115800B3416CF1000CBBEB050BB041B941AA419E
:10116800BB416CF1000C4CF001068CF0020718EB47
:10117800060859EB6C095AEB6C0A7BEB6C0B70EBAD
:101188006C0471EB6C0572EB670653EB6C076CEB48
:101198006C0C18EB0C0059EB0C015AEB0C025BF1D0
:1011A800000354F1000455F1000556EBDC7657EBCB
:1011B8000C0770472DE9F14F87B0FFF715FCDDF8F4
:1011C8001080DDF81490DDF818A0FFF797FFBDE850
:1011D800000FFFF793FF03B05DF8048B88E8FF006A
:1011E800BDE8F08F2DE9F14F87B0FFF7B9FCDDF8C6
:1011F8001080DDF81490DDF818A0FFF77FFFBDE838
:10120800000FFFF77BFF03B05DF8048B88E8FF0051
:10121800BDE8F08F81F0004102E000BF83F0004399
:1012280030B54FEA41044FEA430594EA050F08BF79
:1012380090EA020F1FBF54EA000C55EA020C7FEA3D
:10124800645C7FEA655C00F0E2804FEA5454D4EBBA
:101258005555B8BF6D420CDD2C4480EA020281EA84
:10126800030382EA000083EA010180EA020281EABC
:101278000303362D88BF30BD11F0004F4FEA01310E
:101288004FF4801C4CEA113102D0404261EB41011D
:1012980013F0004F4FEA03334CEA133302D05242A3
:1012A80063EB430394EA050F00F0A780A4F101045F
:1012B800D5F1200E0DDB02FA0EFC22FA05F2801899
:1012C80041F1000103FA0EF2801843FA05F359417F
:1012D8000EE0A5F120050EF1200E012A03FA0EFCFE
:1012E80028BF4CF0020C43FA05F3C01851EBE37128
:1012F80001F0004507D54FF0000EDCF1000C7EEB45
:1013080000006EEB0101B1F5801F1BD3B1F5001F82
:101318000CD349085FEA30004FEA3C0C04F10104A1
:101328004FEA445212F5800F80F09A80BCF1004FCA
:1013380008BF5FEA500C50F1000041EB045141EA4C
:10134800050130BD5FEA4C0C404141EB0101013C15
:1013580028BFB1F5801FE9D291F0000F04BF014604
:101368000020B1FA81F308BF2033A3F10B03B3F1D6
:1013780020020CDA0C3208DD02F1140CC2F10C0266
:1013880001FA0CF021FA02F10CE002F11402D8BFC4
:10139800C2F1200C01FA02F120FA0CFCDCBF41EA90
:1013A8000C019040E41AA2BF01EB0451294330BD5F
:1013B8006FEA04041F3C1CDA0C340EDC04F114043C
:1013C800C4F1200220FA04F001FA02F340EA030013
:1013D80021FA04F345EA030130BDC4F10C04C4F159
:1013E800200220FA02F001FA04F340EA0300294639
:1013F80030BD21FA04F0294630BD94F0000F83F483
:10140800801306BF81F480110134013D4EE77FEA65
:10141800645C18BF7FEA655C29D094EA050F08BFB1
:1014280090EA020F05D054EA000C04BF1946104692
:1014380030BD91EA030F1EBF0021002030BD5FEAD6
:10144800545C05D14000494128BF41F0004130BDFE
:1014580014F580043CBF01F5801130BD01F0004552
:1014680045F0FE4141F470014FF0000030BD7FEAC5
:10147800645C1ABF194610467FEA655C1CBF0B46C0
:10148800024650EA013406BF52EA033591EA030FD7
:1014980041F4002130BD00BF90F0000F04BF0021CF
:1014A800704730B54FF4806404F132044FF0000502
:1014B8004FF0000150E700BF90F0000F04BF00217B
:1014C800704730B54FF4806404F1320410F00045E1
:1014D80048BF40424FF000013EE700BF42004FEADC
:1014E800E2014FEA31014FEA02701FBF12F07F4359
:1014F80093F07F4F81F06051704732F07F4208BF10
:10150800704793F07F4F04BF41F40021704730B516
:101518004FF4607401F0004521F000411CE700BF62
:1015280050EA010208BF704730B54FF000050AE0E5
:1015380050EA010208BF704730B511F0004502D5E6
:10154800404261EB41014FF4806404F132045FEAE8
:10155800915C3FF4D8AE4FF003025FEADC0C18BF91
:1015680003325FEADC0C18BF033202EBDC02C2F183
:10157800200300FA03FC20FA02F001FA03FE40EA15
:101588000E0021FA02F11444BDE600BF80F00040CD
:1015980002E000BF81F0004142001FBF5FEA410343
:1015A80092EA030F7FEA226C7FEA236C6AD04FEA43
:1015B8001262D2EB1363C1BFD21841404840414088
:1015C800B8BF5B42192B88BF704710F0004F40F43A
:1015D800000020F07F4018BF404211F0004F41F456
:1015E800000121F07F4118BF494292EA030F3FD022
:1015F800A2F1010241FA03FC10EB0C00C3F1200335
:1016080001FA03F100F0004302D5494260EB4000C3
:10161800B0F5000F13D3B0F1807F06D340084FEA2E
:10162800310102F10102FE2A51D2B1F1004F40EB23
:10163800C25008BF20F0010040EA0300704749008B
:1016480040EB0000013A28BFB0F5000FEDD2B0FA28
:1016580080FCACF1080CB2EB0C0200FA0CF0AABF4B
:1016680000EBC25052421843BCBFD04018437047E9
:1016780092F0000F81F4000106BF80F400000132EF
:10168800013BB5E74FEA41037FEA226C18BF7FEAC6
:10169800236C21D092EA030F04D092F0000F08BF08
:1016A8000846704790EA010F1CBF0020704712F0EF
:1016B8007F4F04D1400028BF40F00040704712F12E
:1016C80000723CBF00F50000704700F0004343F093
:1016D800FE4040F4000070477FEA226216BF0846C9
:1016E8007FEA23630146420206BF5FEA412390EA8C
:1016F800010F40F4800070474FF0000304E000BF82
:1017080010F0004348BF40425FEA000C08BF704732
:1017180043F0964301464FF000001CE050EA0102F6
:1017280008BF70474FF000030AE000BF50EA01020B
:1017380008BF704711F0004302D5404261EB4101F8
:101748005FEA010C02BF84460146002043F0B6431D
:1017580008BFA3F18053A3F50003BCFA8CF2083A42
:10176800A3EBC25310DB01FA02FC634400FA02FC4B
:10177800C2F12002BCF1004F20FA02F243EB020052
:1017880008BF20F00100704702F1200201FA02FCB4
:10179800C2F1200250EA4C0021FA02F243EB0200A7
:1017A80008BF20EADC7070474FF0FF0C1CEAD052EB
:1017B8001EBF1CEAD15392EA0C0F93EA0C0F6FD0AC
:1017C8001A4480EA010C400218BF5FEA41211ED08A
:1017D8004FF0006343EA501043EA5111A0FB013176
:1017E8000CF00040B1F5000F3EBF490041EAD3714B
:1017F8005B0040EA010062F17F02FD2A1DD8B3F1C7
:10180800004F40EBC25008BF20F00100704790F035
:10181800000F0CF0004C08BF49024CEA502040EA87
:1018280051207F3AC2BFD2F1FF0340EAC25070474D
:1018380040F400004FF00003013A5DDC12F1190F8B
:10184800DCBF00F000407047C2F10002410021FAFD
:1018580002F1C2F1200200FA02FC5FEA310040F115
:10186800000053EA4C0308BF20EADC70704792F08E
:10187800000F00F0004C02BF400010F4000F013AC6
:10188800F9D040EA0C0093F0000F01F0004C02BFC1
:10189800490011F4000F013BF9D041EA0C018FE730
:1018A8000CEAD15392EA0C0F18BF93EA0C0F0AD036
:1018B80030F0004C18BF31F0004CD8D180EA01005C
:1018C80000F00040704790F0000F17BF90F0004FF5
:1018D800084691F0000F91F0004F14D092EA0C0FD7
:1018E80001D142020FD193EA0C0F03D14B0218BF6A
:1018F800084608D180EA010000F0004040F0FE40B0
:1019080040F40000704740F0FE4040F4400070474B
:101918004FF0FF0C1CEAD0521EBF1CEAD15392EACA
:101928000C0F93EA0C0F69D0A2EB030280EA010CBA
:1019380049024FEA402037D04FF0805343EA111153
:1019480043EA10130CF000408B4238BF5B0042F1B1
:101958007D024FF4000C8B4224BF5B1A40EA0C0056
:10196800B3EB510F24BFA3EB510340EA5C00B3EB88
:10197800910F24BFA3EB910340EA9C00B3EBD10F76
:1019880024BFA3EBD10340EADC001B0118BF5FEAC8
:101998001C1CE0D1FD2A3FF650AF8B4240EBC250F1
:1019A80008BF20F0010070470CF0004C4CEA5020B2
:1019B8007F32C2BFD2F1FF0340EAC250704740F401
:1019C80000004FF00003013A37E792F0000F00F0F3
:1019D800004C02BF400010F4000F013AF9D040EA71
:1019E8000C0093F0000F01F0004C02BF490011F405
:1019F800000F013BF9D041EA0C0195E70CEAD153FD
:101A080092EA0C0F08D142027FF47DAF93EA0C0FE3
:101A18007FF470AF084676E793EA0C0F04D14B02C7
:101A28003FF44CAF08466EE730F0004C18BF31F079
:101A3800004CCAD130F000427FF45CAF31F0004373
:101A48007FF43CAF5FE700BF53B94AB9002908BF2C
:101A580000281CBF4FF0FF314FF0FF3000F00CB8EA
:101A6800ADF1080C6DE904CE00F022F8DDF804E0D1
:101A7800DDE9022304B07047704700BF10F8012B5E
:101A880011F8013B012A28BF9A42F7D0D01A7047B3
:101A9800034611F8012B03F8012B002AF9D17047EE
:101AA800034613F8012B002AFBD1181A0138704796
:101AB8002DE9F04786468C460846089E154674462A
:101AC8001946002B40F0C1808542B2FA82F245D90E
:101AD8004AB1C2F1200300FA02FC954094402EFA64
:101AE80003F343EA0C0C4FEA154EA8B2230CBCFBD7
:101AF800FEF80EFB18CC08FB00F943EA0C439945A5
:101B080028D9EB1808F1FF3704D2994502D9A8F172
:101B180002072B44A3EB0903A4B2B3FBFEFC0EFBA4
:101B28001C330CFB00F044EA0344A04214D92C19DE
:101B38000CF1FF3304D2A04202D9ACF102032C44C9
:101B4800241A43EA07401EB1D4400023346073606E
:101B5800BDE8F0874746DDE76346F1E792BB431BE4
:101B680001214FEA154EAFB2200CB3FBFEFC0EFB71
:101B78001C330CFB07F840EA0343984561D9EB187E
:101B88000CF1FF3004D2984502D9ACF102002B4485
:101B9800A3EB0803A4B2B3FBFEFC0EFB1C330CFB47
:101BA80007F744EA0344A7424DD92C190CF1FF3337
:101BB80004D2A74202D9ACF102032C44E41B43EA45
:101BC8000040C0E7C2F120039540944020FA03F199
:101BD8002EFA03F34FEA154E9040AFB20343B1FB20
:101BE800FEFC0EFB1C10190C0CFB07F841EA004127
:101BF800884522D969180CF1FF3004D2884502D9EA
:101C0800ACF102002944A1EB08019BB2B1FBFEFC38
:101C18000EFB1C110CFB07F743EA01439F420ED948
:101C2800EB180CF1FF3104D29F4202D9ACF102014A
:101C38002B44DB1B41EA004193E76046E3E761463A
:101C4800F7E76046A4E76346B8E7834206D916B9C2
:101C5800002108467CE7C6E900E0F9E7B3FA83F714
:101C68008FB9834201D3724508D8BEEB020460EBFA
:101C7800030301209C461EB9002169E73846FAE7AC
:101C8800C6E9004CF8E7C7F1200CBB400EFA07F58F
:101C980022FA0CF42EFA0CF1BA401C4320FA0CF389
:101CA800B8404FEA144901431FFA84FEB3FBF9F820
:101CB80009FB18300B0C08FB0EFA43EA00439A455F
:101CC80040D9E31808F1FF3004D29A4502D9A8F1A7
:101CD80002002344A3EB0A0389B2B3FBF9F809FB1A
:101CE800183308FB0EFE41EA03418E452CD96118D2
:101CF80008F1FF3304D28E4502D9A8F1020321442A
:101D080043EA0040A1EB0E01A0FB02984145CE46F4
:101D1800434602D306D14D4504D20138B9EB020E31
:101D280068EB0403002EA7D0B5EB0E0261EB0301AC
:101D380001FA0CFC22FA07F3F9404CEA0303C6E95E
:101D4800003199E74046C5E74346D9E7000000005F
:101D5800642828BF64202DE9F04F3F4C06462378BD
:101D680089B033B103213D4A3D4821F03AFD0023B3
:101D780023703C4B1E603C4F384626F06DFE002811
:101D88005BD0BB680021039338465B6806AA984776
:101D9800031E1CDBDDE9064B344D4FF0FF3AA4FB74
:101DA800052305FB0B3305920493DDE9041028A3F2
:101DB800D3E90023FFF748FE059BDFF8B4909A4566
:101DC800049B804679EB030309D26FF08503012158
:101DD800284A234809B0BDE8F04F21F000BD64232C
:101DE8007543B5FBF3F3A3FB045403FB0B4418A39F
:101DF800D3E9002321462846FFF726FEAA4579EBBA
:101E080004040346E1D3804502D26FF01503DEE7F0
:101E180001220092039A0021146838464246A047DE
:101E280003460028D3D103213346134A0C480096B1
:101E380022F0CEFD09B0BDE8F08F02210F4A084814
:101E480009B0BDE8F04F21F0CCBC00BFAFF3008073
:101E580000CA9A3B00000000313B002086D00200F7
:101E680010A70200A406002068A20200002D31017C
:101E7800FFC99A3BE6D00200BCD0020002D10200A2
:101E88000022F0B583B0114640F6034000AF09F0D8
:101E980075FC0446002840F0A28009F017F8214696
:101EA80041F203003A1D09F069FC0446002840F09D
:101EB80096807A684C4DD16805F17803D1F8010015
:101EC800D1F8051003C3104607F0ECFD214641F296
:101ED80001003A1D09F052FC044600287FD17868B9
:101EE800C3685A7885F870205A88A5F872201A793C
:101EF80085F87120B3F80720A5F87420B3F80530E9
:101F0800A5F8763007F0CEFD214641F202003A1DD1
:101F180009F034FC0446002861D1D7F804C005F163
:101F28008006DCF80C20531C413234461868596886
:101F3800083303C493422646F7D1604607F0B2FD42
:101F48000AF07EFE0446002849D195F88A309906A1
:101F580010D40221254A264823F0C4F895F87C308D
:101F68005A0649D40121234A214823F0BBF86FF0CF
:101F7800120434E0072140F6334008F0C7FF064654
:101F8800002800F03C8107210C3007F0B9FE6FF003
:101F9800040303700223C0F8024084714470047182
:101FA8002246C370314640F6334009F0E7FB044649
:101FB800A8B9012140F6314008F0A8FF06460028DC
:101FC80000F01D8101210C3022F068FF22463146C5
:101FD80040F6314009F0D2FB04460028BED0204626
:101FE8000C37BD46F0BD00BFC0040020200E030022
:101FF80040A602004E0E0300002142F203003A1DE3
:1020080009F0BCFB04460028E9D17B68A04EDA68D9
:10201800D2F80100D2F8051003C6184607F042FDB1
:10202800214642F202003A1D09F0A8FB04460028A6
:10203800D5D17C68E368B3F8012091B249B1D97869
:1020480039B1A5F80421DA78114606F1280026F0FE
:10205800A5FD204607F026FD1F2395F87C60A5F80E
:10206800203116F0200618D1022140F66D4008F004
:102078004DFF0446002800F0C28002210C3007F012
:102088003FFE0123214603704670324640F66D40FC
:1020980009F074FB04460028A1D195F89C301B0771
:1020A80012D5002142F21C003A1D09F067FB0446D4
:1020B800002894D17868C368D3F80120D3F8053094
:1020C800C5E9382307F0EEFC95F8D8309E0622D5EE
:1020D8003846B91C09F02CFC044600287FF47FAF71
:1020E800042142F2240008F011FF0646002800F0FF
:1020F800868004210C3007F003FE3B8822460380CB
:102108007B883146438042F2240009F037FB0446BD
:1021180000287FF464AF95F8D8305C0610D500210C
:1021280042F22A003A1D09F029FB044600287FF4F0
:1021380056AF7868C3685B7885F8223107F0B2FC3F
:10214800082142F2010008F0E1FE0446002856D0BA
:1021580008210C3007F0D4FD95F8D81040F202237E
:1021680011F0400F08BF0323024688074CBF43F015
:102178002C0043F00C008B0695F8D93048BF40F08E
:10218800400013F0090F18BF40F40060CE0748BFA5
:1021980040F01000002122F0BFFF2146002242F249
:1021A800010009F0EBFA044600287FF418AF95F80F
:1021B8007C30B5F80411980624D4C9B941F2050059
:1021C8003A1D09F0DBFA044600287FF408AFB5F899
:1021D80004317C684BB9E368B3F80120A5F8042101
:1021E8009A882C48114626F0D9FC204607F05AFC5C
:1021F800082140F6014008F089FE044660B96FF0F6
:102208006804ECE60029F3D10121234A234822F08F
:1022180069FF6FF00404E2E608210C3007F070FD56
:1022280095F8D8300246D9072AD44FF000511C48F7
:1022380022F072FF2146002240F6014009F09EFA82
:10224800044600287FF4CBAE01463A1D4FF6014004
:1022580009F094FA40B3134A0221104822F042FFD1
:1022680023F029F9044600287FF4B9AE0CF0FCF9F4
:10227800044600287FF4B3AE09F068F80446AEE6D9
:1022880001A1D1E90001D3E7908800020080002075
:1022980098050020C8050020720E030040A6020021
:1022A80010880002950E03007B686E46DC688AB0D1
:1022B800B4F80130032B96BF424A434952F8231021
:1022C8006A46D3614FF4007340481384404BC2E917
:1022D800050142F8103F4FF413513E4822F011FF18
:1022E800B4F80120B546022AB4F8033049D1052BC9
:1022F80047D8394A52F823106E468AB06A46D361E5
:102308004FF4007335481384314BC2E9050142F894
:10231800103F4FF413512F4822F0F3FEB54663796E
:1023280094F806C0032B98BF2D4AB4F80760D4F878
:1023380009006C468CB094BF52F8231022496A46B3
:10234800C2E9073C4FF40073DFF898E09385264B09
:10235800C2E905E1C2E909604FF4735142F8103F40
:102368001C4822F0CEFEA546786807F09BFB0021AA
:102378004FF602403A1D09F001FA044618B11B4A0B
:102388006AE71149B8E77868C368B3F80130A5F877
:10239800C13007F087FB95F8C1305B077FF560AF68
:1023A80021464FF603403A1D09F0E8F908B1104AF2
:1023B80052E77868C3685B7885F8C03007F072FB2D
:1023C8004EE700BF08B50200560B0300B90E030024
:1023D8000400000140A60200F0B40200D20E03007F
:1023E800E0B40200EA0E030007000001170F030023
:1023F800400F030010B5064A0648022121F0CDF926
:10240800BDE8104040F267620023034819F07ABD26
:1024180004BF020008A70200D80E00202DE9F047EB
:10242800012588B002AF3946381D3D6009F032FFFA
:102438007A79FB790192BA79404C009220212046A2
:102448003F4A20F0A7FE6E4688B002AA3D4B4FF4E3
:10245800E651C2E905344FF4007393833A4B3B4885
:1024680042F8103F21F09DF92046B54622F097FE2C
:10247800034620B12946364A344821F090F9DFF85E
:10248800D4902E48C9F80C40FFF70AFB032189F8BD
:102498000900314A2D4821F080F96D4688B002AA1A
:1024A8004FF400782D4B284EC2E90534A2F81C8061
:1024B8004FF4E65142F8106F244821F072F90321D5
:1024C800AD46274A214821F068F94FF0010A022356
:1024D8000321244A1D48CDF800A022F079FA3B1DBB
:1024E8009C46DFF884E0BEE80F00ACE80F00DEF899
:1024F80000300222CCF8003049461C4BCDF800A031
:10250800381D0AF081FA034640B15146184A0F486F
:1025180021F045F91837BD46BDE8F08788B002AA12
:10252800144BA2F81C80C2E905344FF4E651074861
:1025380042F8106F21F035F9AD46EBE77D0A00202F
:102548002DBF020081BF02000300000108A702009E
:1025580041BF02006C06002064BF02007FBF02007A
:1025680091BF0200C6BF0200E0A702006406002077
:10257800F3BF020018C0020008B5F82026F0B8FC26
:1025880040B10023A0F8F430011DBDE8084003481D
:1025980021F00AB9BDE80840FFF72CBFF0A10200FE
:1025A80070B503788AB004460E4607AD032B20D8D1
:1025B800DFE803F002191B1D11492846FFF768FAE6
:1025C800059563781E210493A37830460393E37836
:1025D8000C4A02932379019363790093A37920F03D
:1025E800D9FD0AB070BD0849E7E70849E5E7084999
:1025F800E3E70A212846074A20F0CCFDE0E700BFC0
:102608004EC0020070C0020055C002005CC002004B
:1026180066C00200842B0300F0B5144689B000AFF1
:102628000D4623F02AF93946FFF7BAFFACB96C46D4
:102638008AB06A46144BD561C2E905374FF4007376
:102648001384124B4FF41351114842F8103F21F0F4
:10265800A8F8A5462437BD46F0BD6E468CB06B463B
:102668000C4AC3E90754C3E905270B4A4FF46251E2
:102678005A620A4A06489A621A46094B42F8103FBB
:1026880021F08FF8B546E5E793C002000400000189
:1026980008A70200B1C002008B0303000002030573
:1026A8000600000290B589B000AF0C4623F0E5F8AB
:1026B8003946FFF775FF8AB06A46094BD461C2E90B
:1026C8000537084B4FF443511362074B07485362D1
:1026D800074B42F8103F21F064F82437BD4690BDFF
:1026E800D8C002008B0303000002020408A70200FE
:1026F8000500000290B589B000AF0C4623F0BDF884
:102708003946FFF74DFF8AB06A46094BD461C2E9E2
:1027180005374FF400731384064B4FF413510648E2
:1027280042F8103F21F03DF82437BD4690BD00BF68
:10273800FEC002000400000108A7020090B589B09D
:1027480000AF0C4623F099F83946FFF729FF8AB005
:102758006A46094BD461C2E905374FF40073138404
:10276800064B4FF41351064842F8103F21F019F870
:102778002437BD4690BD00BF20C1020004000001FF
:1027880008A70200B0B588B000AF0C4623F075F872
:102798003946FFF705FF6D468AB06A46124BD46189
:1027A800C2E90537114B124C1362124B124853629F
:1027B800124B4FF4435142F8103F20F0F2FF2068CB
:1027C800AD4618B10BF0B6F8002323600C4C206816
:1027D80030B10BF0AFF800230120236025F03BF85F
:1027E8002037BD46B0BD00BF35C102008B030300D2
:1027F800581F00200002020408A70200050000027A
:102808005C1F0020B0B588B000AF0C4605460AF042
:10281800ABFF124B1860284623F02FF83946FFF714
:10282800BFFE6D468AB06A460D4BD461C2E90537D2
:102838004FF400730B4C13840B4B204642F8103FA7
:102848004FF4135120F0ADFF0321AD462046074A4F
:1028580020F0A3FF2037BD46B0BD00BF581F0020A1
:1028680020C1020008A702000400000158C10200AC
:10287800B0B588B0044600AFB1B16C468AB06A46BC
:10288800194B1A48C2E90531194B4FF41151D3615C
:1028980040F201331384174B42F8103F20F081FFB8
:1028A800A5462037BD46B0BD22F0E7FF3946FFF701
:1028B80077FE6D4688B06A460F4B4FF4E651C2E981
:1028C80005374FF4007393830C4B084842F8103FC8
:1028D80020F067FF2046AD460AF046FF084B186017
:1028E800012024F0B5FFDCE787C1020008A7020039
:1028F8008B03030004000001A8C1020003000001CB
:102908005C1F002080B588B000AF22F0B6FF3946C2
:10291800FFF746FE88B06A46084B4FF4E651C2E915
:1029280005374FF400739383054B064842F8103F70
:1029380020F037FF2037BD4680BD00BFB5C102007B
:102948000300000108A702002DE9F04F83468846DE
:102958000021A9B000AF1546381D1A22396027F0AA
:10296800F9FA584622F089FF3946FFF719FE6E46F4
:1029780088B06A464FF4007A3D4BDFF8F890C2E918
:102988000537A2F81CA04FF4E65142F8109F3A48C8
:1029980020F007FF2946B546404607F1200402F01B
:1029A80001FB224680232946404600F0FBFE021E1A
:1029B8000BDD2146584692B200F062FB0346C8B1CF
:1029C80001212E4A2C4820F0EAFE0026DFF8B090BC
:1029D800DFF8B0A0AE4209D0F82026F089FA044604
:1029E800C0B90221284A244820F0D7FEA437BD46A2
:1029F800BDE8F08F88B06A46244BA2F81CA0C2E953
:102A080005344FF4E6511C4842F8109F20F0C9FEE7
:102A1800B546DAE7AA1BEF2A8CBFEF2292B2031D54
:102A2800A0F8F42008EB0601184627F06CFAB4F871
:102A3800F42003461644B6B2B5420BD108EB0501A3
:102A480011F8011C0D2905D10A20A11801320871BD
:102A5800A4F8F42019464846B4F8F42020F0ACFE57
:102A68000028B7D02146504626F07FF8B2E700BFCD
:102A7800CBC102000300000108A70200E2C1020066
:102A8800F0A102007C0C00201AC2020003C202005E
:102A980010B50B78052B00F29C80DFE803F0038665
:102AA8002D6577498B68002B00F0938048680028D3
:102AB80000F08F80474A1368E3B1181F00231360A2
:102AC800454A136026F00DFA00220023434818F007
:102AD800EDFA00287DD0B0F8F420011D404820F020
:102AE8006BFE002875D03F4A0221BDE810403E48E1
:102AF80020F053BE0438E5E74A68CB68B2F8F00026
:102B080003443A489BB2A2F8F0300278002A60D118
:102B18004A68134413F8013C0A2B01D00D2B58D1F5
:102B2800012303702E48BDE8104083685B6918478D
:102B380000242E4BF8201C7026F0DAF938B1A0F8E2
:102B4800F440011DBDE81040254820F02DBE284A5C
:102B58002548022120F021FEBDE8104040F26762BE
:102B68000023244819F0CEB9F82026F0C1F901460F
:102B780050B10023A0F8F4301948F022BDE8104005
:102B8800836804311B691847194AADE74B68191F58
:102B9800B3F8F03023B1BDE81040174825F0E5BF81
:102BA8000846BDE8104026F09CB90A4A13680BB9DC
:102BB8004B68136008488B6801680B441168036010
:102BC800B1F8F0200648D21A1944BDE8104020F0A8
:102BD800F3BD10BD441F0020401F00207C0C0020C6
:102BE800F0A1020045C2020008A70200303B002005
:102BF80004BF0200D80E0020600C00202DE9F0432D
:102C0800BFB04FF0FF324FF0FF332A4818F042FBB5
:102C1800F8220021684627F09DF9274FDFF89C80AD
:102C2800DFF89C904FF0FF334FF0FF32384618F032
:102C38003DFABDF8F440B0F8F430C4F1F0049C4219
:102C4800054628BF1C4600261CB9284626F049F927
:102C5800E8E7BDF8F400311D0430224629446844F1
:102C680027F051F9BDF8F4202644224492B2EF2A05
:102C7800ADF8F42008D802F1F8036B4413F8F53CDA
:102C88000A2B01D00D2B0DD1D8F8000001A900F0B6
:102C9800F7F920B14A4602210A4820F07EFD0023B8
:102CA800ADF8F430B5F8F440A41BF02C28BFF0249C
:102CB800CAE700BF180C0020600C00205C1F002031
:102CC80063C2020008A7020008B505480321054AA7
:102CD80020F063FDBDE80840034818F031BE00BF8E
:102CE80008A702008BC20200481F0020F8B52B4C31
:102CF80000EA0105206800AF05F0010305F00206AF
:102D080090B3B3B122F0E3FD6D4688B023686A46FC
:102D180023492448C2E9051303234FF4C65142F856
:102D2800103F20F03EFDAD4620680AF003FE002368
:102D38002360BEB1206822F0D2FD6D4688B02368BA
:102D48006A4619491748C2E9051303234FF4C651C7
:102D580042F8103F20F025FDAD4620680AF0EAFD54
:102D680000232360BD46F8BD33B103210F4A0D4847
:102D780020F013FD00F002FD36B103210C4A09488A
:102D880020F00BFD00F004FD6B07EBD50321094A89
:102D9800044820F002FD00F0CDFCE3E7581F0020B6
:102DA800D3C2020008A70200EAC2020002C302005E
:102DB80039C3020070C30200F8B5674813F070FA0F
:102DC800034620B10121654A654820F0E8FC13F06C
:102DD80035FA034620B10121624A614820F0DFFC40
:102DE8000321614A5E4820F0D8FC03215F4A5C4811
:102DF80020F0D3FC03215E4A594820F0CEFC00F0B5
:102E0800BDFA032103465B4A554820F0C8FC03215C
:102E1800594A534820F0C1FC0321584A504820F031
:102E2800BCFC00F061FE03210346554A4C4820F0E3
:102E3800B6FC3220FEF78CFF524E304625F00CFED1
:102E4800B0B1F82026F054F8044688B100254E4960
:102E5800A0F8F4504D4818F01DFFB3681B684BB933
:102E6800204626F03EF80121494A3D4820F095FCCD
:102E780020F0AAFC2A463046464998470028EFD158
:102E8800F82026F035F8054688B3031D1846424950
:102E9800FEF7FEFD3C220146A5F8F420304620F05E
:102EA8008BFC074660B1204626F01BF8284626F022
:102EB80018F83B460121394A294820F070FCD7E729
:102EC8003046211D20F070FC034658B934480BF0F9
:102ED80091FB034678B1334A0121214820F05FFC79
:102EE8000020F8BD0121304A1D4820F058FC20463A
:102EF80025F0F7FFBCE72D480BF096FB034608B119
:102F08002B4AE9E708F05EFD0028B1D10321294AE0
:102F1800134820F042FC284818F054F921F0FEFD2F
:102F2800264800F0A5F8044610B10346244AD3E722
:102F38002448254918F024FC224818F001FD0134E2
:102F480004F00101002013F03BFA00214FF4004087
:102F58001AF054F8F3E700BFF52C0000A3C30200F1
:102F680008A70200C1C30200DCC3020000C40200BB
:102F780030C4020060C4020084C40200ABC4020072
:102F8800E1C40200F0A1020081250000D80E002053
:102F980008C50200992A000028C5020065C502007C
:102FA8004C060020B5C502008EC502003C06002074
:102FB800EBC5020026C60200180C002038060020C7
:102FC8003CC60200481F0020252400002DE9F041DE
:102FD800054600AF084616461C46E8460DF07EFD3D
:102FE8008AB06A460D4BC2E90754C2E90530052389
:102FF80042F8103F00234FF42351094804F09CFC89
:10300800084BC5461B682BB11B681BB122463146CD
:10301800284698472046BD46BDE8F08199C602007B
:10302800E0A60200601F002080B50C4A0C4B00AFE0
:1030380088B0012908BF13466A460A49C2E9051340
:103048004FF400739383084B42F8103F00234FF46A
:10305800E651064804F070FCBD4680BDC3C60200B8
:10306800CBC60200D4C6020003000001E0A602009D
:1030780008B1024B18600020704700BF601F002095
:10308800F0B50E46154604468DB0134F18220021A0
:10309800684626F05FFFCDE90176ADF80C505CB1CB
:1030A8000122394620460DF055FF88B16946204671
:1030B8000EF08CFA0DB0F0BD182221460DEB02007F
:1030C80026F048FFCDE90776ADF8245006A9EEE7CB
:1030D8006FF01500EEE700BF04A902000221024AC2
:1030E800024820F07EBB00BF57C7020010A70200AD
:1030F80098B5B0F8013000AF5BBA8AB06A46C078BC
:103108009BB2084C0439C2E90543052389B2D06152
:10311800116205484FF4235142F8103F20F063FB39
:10312800BD4698BD6DC7020010A70200F0B5044661
:1031380087B000AF381D1D4613F0D0F922461B4951
:10314800381D24F055FD0446B0B13B692B606D462F
:1031580088B06A461649174851611749C2E90613EB
:1031680004234FF4045142F8103F20F03CFBAD46D5
:1031780020461C37BD46F0BD7B69104A6E4688B0B4
:10318800002B08BF13466A460D490A48C2E90513D1
:103198004FF4007393830B4B4FF4E25142F8103F06
:1031A80020F021FBB5462C60E2E700BFD4B0020056
:1031B800AFC7020010A7020012F00200A8C7020061
:1031C800C5C70200030000012DE9F04F85B06D4628
:1031D80000AF88B0164680460C466A463E4BDFF87C
:1031E800FC9053610423C2E906913D4842F8103F20
:1031F8004FF4045120F0F7FA2246AD4641463846CE
:1032080013F06AFC32463846364924F069FD064612
:10321800002858D1FB68344A88B0002B08BF1346F1
:10322800EA46324AD346CAE905234FF40073AAF89E
:103238001C302F4B4FF4E2514BF8103F5A462848A8
:1032480020F0D1FA0121AD46BB682A4A244820F073
:10325800C6FA7B68D546284A4FF4C251CAE9052305
:1032680003235A46CAF810301D4820F0BCFA03233D
:10327800AD464FF0070A3546194819461F4A20F04F
:10328800B0FA1748EB468CB06A4618F805101C4B84
:10329800D561C2E90539CB08136201F00703C2E919
:1032A800093101354FF4645142F810AF20F09BFA10
:1032B800AC42DD4602DD142D0948E3D1304614370F
:1032C800BD46BDE8F08FBB6803210E4A0448E31AE7
:1032D80020F085FAF2E700BFDFC7020032F00200F3
:1032E80010A7020078B10200A8C7020006C80200B1
:1032F8000300000120C8020037C8020048C80200C5
:103308005FC8020090C8020010B528B122B119B1F7
:10331800BDE81040FFF758BF0121034A034820F0D9
:1033280060FA002010BD00BFBFC8020010A702004D
:10333800012907B504D803B05DF804EBFFF7CEBE4A
:103348004378023989B20091034A0321034821F0E6
:103358003FFB03B05DF804FBE6C8020010A70200BB
:10336800032904D80221034A034820F03ABAFFF798
:10337800BFBE00BF11C9020010A70200014B1868A8
:10338800704700BFA80600202DE9F047A6B003212A
:1033980000AF9E4A9E4820F024FA03219D4A9C488B
:1033A80020F01FFA03219C4A994820F01AFA522269
:1033B800002107F1460026F0CDFD0A23A7F8443086
:1033C800964B03211B68964ABB64964B90481B7822
:1033D8006E4687F84C3020F004FA0321924A8C4854
:1033E80020F0FFF90321914A894820F0FAF90321D6
:1033F8008F4A874820F0F5F903218E4A844820F047
:10340800F0F903218C4A824820F0EBF9BB6C0321C8
:103418008A4A7F4820F0E3F997F84C10884A894B8C
:1034280088B0002918BF13466C464FF4007925462A
:10343800854ADFF81882C4E90523A4F81C9045F8EA
:10344800108F2A464FF4E651714820F0CCF9032139
:10345800B5467F4A6E4820F0C4F90321724A6C4889
:1034680020F0BFF903217B4A694820F0BAF9BA6C09
:1034780079497A4BA546642A98BF0B46784A4FF497
:10348800E651C4E9052362482A46A4F81C90C4F80A
:10349800108020F0A8F90321B546724A5C4820F054
:1034A800A0F90321704A5A4820F09BF903216F4A7A
:1034B800574820F096F93F2303216D4A544820F0DD
:1034C8008EF93B463F22791D07F14400FFF72EFE97
:1034D800002800F0848002230321664A4C483B718F
:1034E80020F07FF93D6803212B46634A48486C1C4D
:1034F80020F075F923460321604A454820F06FF90A
:1035080003215F4A424820F06CF92B4603215D4AAB
:103518003F4820F064F9234603215B4A3C4820F0E9
:103528005EF93B1D98460026DFF86091DFF860A140
:10353800A6423AD3230702D0554820F08AFB97F8D1
:103548004C005449544A2B46002818BF0A46B96C07
:10355800524820F07EFB0321514A2D4820F041F9C2
:103568000020A2B2391DFFF78BFD054648BB032199
:103578004C4A274820F035F9234603214A4A244873
:1035880020F02DF90321494A214820F02AF9032186
:10359800474A1F4820F025F90321464A1C4820F0D5
:1035A80020F99837BD46BDE8F087484618F8011B52
:1035B800013620F04EFB3207BAD1504620F049FBC5
:1035C800B6E701213C4A124820F00BF901213B4A99
:1035D8002B460F4820F003F90121394AD9E7012188
:1035E800384A0B4820F0FDF80121374A084820F0F6
:1035F800F8F80121354A064820F0F3F83F23012165
:10360800334A034820F0EBF8CBE700BF37C9020084
:1036180010A7020055C9020083C90200A8060020AD
:10362800DECE0200323B0020AFC90200DFC9020033
:1036380006CA02002BCA02004CCA020064CA020071
:1036480027C902002CC9020085CA02000300000134
:10365800A5CA0200BACA02001DCB020032C9020084
:10366800DFCA020003CB020021CB020033CB0200E9
:103678004FCB020071CB020083CB0200A2CB020029
:10368800D1CB0200F4CB020021CC020047CC0200CF
:103698008A03030035C90200C00603004FCC0200AC
:1036A800A1CC0200B3CC0200C7CC0200E3CC0200DC
:1036B80004CD020075CD02002BCD02003ECD0200E4
:1036C80051CD020097CD0200A8CD0200C4CD020062
:1036D800E8CD0200F8B5114A114C124B6E4600AF06
:1036E80088B0002818BF134625786A4620700E490E
:1036F8000E48C2E905134FF4007393830C4B4FF443
:10370800E65142F8103F20F06EF82378B546AB42F8
:1037180001D0FFF739FEBD46F8BD00BF1ACE020042
:10372800323B002016CE020023CE020010A7020072
:1037380003000001024B187880F00100FFF7CABFB0
:10374800323B0020642838B5034628BF6423084C60
:103758000321084A08482568236020F040F82368B8
:103768009D4203D0BDE83840FFF70EBE38BD00BF0C
:10377800A80600203CCE020010A70200034B1868E0
:103788000530642828BF6420FFF7DCBFA8060020A6
:10379800034B1868052838BF05200538FFF7D2BF46
:1037A800A80600202DE9F04F88461D4697B016461A
:1037B80000AF03219A4A9B4820F013F803219A4A44
:1037C800984820F00EF80321984A964820F009F806
:1037D80043460321964A934820F001F82B460321DB
:1037E800944A90481FF0FBFF52220021B81D26F092
:1037F800B1FB0A23BB80904B03211B688F4ABB6037
:103808008F4B88481B78E9463B731FF0EAFF03217A
:103818008C4A84481FF0E5FF03218B4A81481FF03A
:10382800E0FF0321894A7F481FF0DBFF0321884A14
:103838007C481FF0D6FF0321864A7A481FF0D1FF43
:103848000321854A77481FF0CCFFBB680321834AD0
:1038580074481FF0C4FF397B814A824B88B0002925
:1038680018BF13466C464FF4007BA0467E4ADFF82B
:10387800FCA1C4E90523A4F81CB048F810AF4246DF
:103888004FF4E65167481FF0AEFF0321CD46784A52
:1038980064481FF0A6FF03216A4A62481FF0A1FF8F
:1038A8000321744A5F481FF09CFFBA687249734B42
:1038B800A546642A98BF0B46714A4FF4E651C4E9FD
:1038C800052358484246A4F81CB0C4F810A01FF0BD
:1038D8008AFF0321CD466B4A52481FF082FF03211D
:1038E800694A50481FF07DFF013D0321674A4D4852
:1038F8001FF077FF2B460321654A4A481FF06FFFE8
:103908003B462A46711C381D1FF070FF002869D0FD
:10391800022303215F4A434833701FF062FFD7F840
:103928000080032143465C4A3E4808F101041FF029
:1039380056FF23460321594A3A481FF050FF0321F6
:10394800574A38481FF04DFF43460321554A35482A
:103958001FF045FF23460321534A32481FF03FFF1B
:103968000025DFF84891DFF848A1A5422FD32307A7
:1039780002D04F4820F06DF9387B4E494E4A4346F5
:10398800002818BF0A46B9684C4820F062F903219C
:103998004B4A24481FF025FF03214A4A21481FF0BB
:1039A80020FF23460321484A1E481FF018FF2346DC
:1039B8000321464A1B481FF012FF1A480321444AB4
:1039C8001FF00FFF20465C37BD46BDE8F08F715DE4
:1039D8004846013520F03DF92A07C6D1504620F067
:1039E80038F9C2E701213B4A0E481FF0FAFE0121CF
:1039F800394A0C481FF0F5FE0121384A09481FF0E2
:103A0800F0FE2B460121364A06481FF0E8FE05481D
:103A18000121344A1FF0E5FE6FF00B00D3E700BF29
:103A280037C9020010A7020056CE020080CE02005D
:103A38009FCE0200BDCE0200A8060020DACE02000A
:103A4800323B0020AFC90200DFC9020006CA0200EB
:103A58002BCA0200FDCE02004CCA020064CA020052
:103A680027C902002CC9020085CA02000300000110
:103A7800A5CA0200BACA02001DCB020032C9020060
:103A8800DFCA020003CB020021CB020033CB0200C5
:103A98002DCF020071CB020083CB0200A2CB020023
:103AA800D1CB02004ECF02007ACF020047CC0200F1
:103AB8008A03030035C90200C0060300A5CF02002F
:103AC800FBCF0200B3CC020010D0020029D00200C4
:103AD80075CD020097CD0200A8CD0200C4CD02002A
:103AE8003FD002006CD00200014B1868704700BF3D
:103AF800A40600202DE9F04F83B0044602AF40B978
:103B08000121714A71481FF06CFE0437BD46BDE8BB
:103B1800F08F03216E4A6D481FF063FE246803216D
:103B28006C4A6A481FF05DFEDFF8AC81234603212A
:103B38006A4A66481FF053FE0321694A63481FF02A
:103B480050FEDFF8A091D8F800300321664A5F489C
:103B58001FF045FE23460321644A5C481FF03FFEE0
:103B680099F80010624A634BEA4688B0002918BFEA
:103B7800134602AD604A2E46C5E905234FF400738B
:103B8800DFF878B1AB8346F810BF32464FF4E65100
:103B98004E481FF028FED54659495A4A88B0642C29
:103BA80088BF0A464FF4007357494848C5E90512CB
:103BB800AB8332464FF4E651C5F810B01FF013FE40
:103BC800642CD54605D923460221504A3F481FF0A8
:103BD80006FE4F4E642C4FF003014E4A3B482546E3
:103BE80028BF64251FF0FDFD334603214A4A3748A4
:103BF8001FF0F5FD64236E43B6FBF3F603212B4655
:103C0800464A3248009620F0E3FE0321444A2F48F2
:103C18001FF0E7FD0321434A2C481FF0E2FD032172
:103C2800414A2A481FF0DDFD0321404A27481FF07A
:103C3800D8FD03213E4A25481FF0D3FD03213D4A04
:103C480022481FF0CEFD03213B4A20481FF0C9FD42
:103C580099F80000394A3A4BD8F80010002818BFE4
:103C680013462A46374800932B461FF0F2FF20469A
:103C7800FEF76EF80321344A14481FF0B2FDD8F855
:103C880000300321AB4208BF2346304A0F481FF0DB
:103C9800A6FDD8F8003003212D4A0C481FF09FFDDF
:103CA80003212C4A09481FF09CFDD8F80030032155
:103CB800AB42294A18BF0023044808BF1B1B1FF04A
:103CC8008EFD0321254A1DE741D1020010A70200FD
:103CD80063D10200E1DF0200A40600208ED10200B9
:103CE800AFD10200313B0020C8D10200E0D1020070
:103CF8001DD1020025E40200FAD1020003000001F0
:103D080025D102001DCB020030D2020044D20200AD
:103D1800002D310185D20200A0D20200BDD20200DE
:103D2800DED2020012D30200A5CA020034D3020078
:103D380067D3020080D3020097D302003AD1020071
:103D48003DD10200DAD3020020E502002CD40200A3
:103D580045D4020059D4020089D402009BD4020041
:103D68002DE9F04F87B0044604AF40B90121984AC5
:103D780098481FF036FD0C37BD46BDE8F08F03218B
:103D8800954A94481FF02DFD2046FDF789FE032132
:103D98000646924A8F481FF024FDEA4688B004ADD3
:103DA8004FF4007BA8468E4BDFF83892C5E90534FE
:103DB800A5F81CB048F8109F42464FF4E6518548D4
:103DC8001FF011FDD54633460321874A81481FF06D
:103DD80006FD88B0854B4246C5E90534A5F81CB0F8
:103DE800C5F810904FF4E6517A481FF0FCFCD54610
:103DF800D4F8805003217E4A76481FF0F2FC1FFA5F
:103E080085F82B4603217B4A72481FF0E8FC43469D
:103E18000321794A6F481FF0E2FC8AB0C14604AA20
:103E28001F21764B3F2053614FEAD823C3EB03236E
:103E3800B3FBF1F39361C8F34513C3EB0323B3FB5F
:103E4800F0F30D40C5EB0525D361B5FBF1F505236E
:103E580015624FF423515F4842F8103F1FF0C3FC2E
:103E6800B8F5784FD54600F0A480B8F5FC6F00F09F
:103E7800A280B8F11F0F00F0A0804FF6FF7398459D
:103E880000F09D80B8F1000F00F09B804FF6E073C2
:103E9800984500F098804FF61F03984500F09580EC
:103EA80040F2FF71564B574A884508BF1346C7F87A
:103EB80004D088B004AD4FF4007BA846524ADFF81E
:103EC80024A1C5E90523A5F81CB048F810AF42465F
:103ED8004FF4E6513F481FF086FC0321D7F804D081
:103EE8004A4A3C481FF07DFCD4F884300321484AF4
:103EF80038481FF074FCD4F890300321454A3548FF
:103F08001FF06DFC0321444A32481FF06AFCD4F8C4
:103F180088300321414A2F481FF061FCD4F88C30C7
:103F280003213F4A2B481FF05AFCD4E922320321CF
:103F3800009228483B4A20F04BFD03213A4A254885
:103F48001FF04FFC0321394A22481FF04AFC032185
:103F5800374A20481FF045FC88B0364B42466B6113
:103F6800354B4FF4E651AB611A48A5F81CB0C5F8BB
:103F780010A01FF038FCD4E92232D7F804D003216E
:103F8800144800922D4A20F023FDD4F89030324690
:103F98000393D4F884302146CDE90193D4F88C30CA
:103FA80027480093D4F888301FF053FE0321254A90
:103FB800DEE6254B7BE7254B79E7254B77E7254B55
:103FC80075E7254B73E7254B71E7254B6FE700BF76
:103FD800F7D4020010A7020014D502003AD5020057
:103FE80048D502000300000157D5020072D502002F
:103FF80092D50200A7D50200CAD50200E4D5020076
:10400800EBD40200F2D402000CD602001FD6020044
:1040180033D6020056D602008BD602009ED6020086
:10402800C0D60200E2D60200A5CA020000D70200EC
:10403800BACA02002ED702001DCB020049D70200DF
:1040480084D70200E6D70200C7D40200C1D4020018
:10405800CBD40200D0D40200D6D40200DCD40200B3
:10406800E3D402002DE9F04F87B0044604AF68B9E5
:104078000121044A04481FF0B4FB0C37BD46BDE8D3
:10408800F08F00BF19D8020010A702000321C44A0C
:10409800C4481FF0A6FB2046FDF702FD0321804619
:1040A800C14AC0481FF09DFBE94688B004AABF4B2F
:1040B8004FF4E651C2E905344FF400739383BC4BC7
:1040C800B84842F8103F1FF08EFBCD464346032107
:1040D800B84AB4481FF083FBD4F880600321B64A7D
:1040E800B0481FF07EFB1FFA86FA33460321B34A15
:1040F800AC481FF074FB53460321B14AA9481FF08E
:104108006EFB8AB004AD1F22AE4B16406B614FEABE
:10411800DA23C3EB0323B3FBF2F3AB613F23CAF308
:10412800451ACAEB0A2AC6EB0626BAFBF3F3B6FB16
:10413800F2F6EB612E6205232E4646F8103F324612
:104148004FF4235197481FF04EFBCD4603219E4A5A
:1041580094481FF046FBD4F8843003219B4A9148C9
:104168001FF03DFBD4F8A4300321994A8D481FF075
:1041780036FB0321974A8B481FF033FBD4F888306D
:104188000321954A87481FF02AFBD4F88C30032175
:10419800924A84481FF023FBD4F890300321904AB8
:1041A80080481FF01CFBD4F8943003218D4A7D48C9
:1041B8001FF015FBD4E92401D4E922238AB06B62ED
:1041C8000623DFF824C2C5E90712C5E905C032464F
:1041D8002B614FF4435173481FF005FBCD4694F80B
:1041E80098300321022B98BF804A6E4898BF52F836
:1041F80023607F4A6D4688BF7E4E1FF0F2FA8AB070
:1042080094F8983004AA7C49D661C2E9051340F2B3
:1042180001331384794B4FF4135142F8103F61482E
:104228001FF0E1FAAD460321754A5E481FF0D9FA3E
:10423800D4F89C300321734A5A481FF0D0FAD4F8B6
:10424800A0300321704A57481FF0C9FA94F8A81003
:104258006E4A6F4B88B0002918BF134604AA6D49EF
:104268005048C2E905134FF400739383504B4FF441
:10427800E65142F8103F1FF0B6FA0321AD46D4F8D4
:10428800AC30654A47481FF0AAFAD4F8A0A0BAF1A2
:10429800000F22D0D4F89400FDF72EFA814650463C
:1042A800FDF72AFA01464846FDF732FB0021FDF7E3
:1042B80073F988B00DF11009584BC9F81430FDF79F
:1042C8000DF94A460423C9E906014FF4035135485C
:1042D80042F8103F1FF087FAAD460321504A314893
:1042E8001FF07FFA03214F4A2E481FF07AFA032164
:1042F8004D4A2C481FF075FA94F898104B4B4C4ACD
:10430800E94688B0022998BF1A4604AD49494FF4D6
:10431800007BC5E905122A46DFF894A0A5F81CB071
:104328004FF4E65142F810AF1E487A601FF05BFA6E
:10433800CD46D4F8A01040483C4B88B0B1F57A7F00
:1043480088BF03463D497A68C5E9051315484FF407
:10435800E651A5F81CB0C5F810A01FF044FAD4E93E
:104368002432CD4653430321354A0E481FF037FA0D
:10437800D4E9243194F8A8C0324A334DD4F8A000C7
:10438800BCF1000F18BF2A46CDE90010CDE9026242
:10439800214642462D481FF05CFC03212C4A69E661
:1043A80038D8020010A702003AD5020072D50200E0
:1043B8000300000168D8020092D50200A7D50200C8
:1043C800CAD50200E4D502001FD6020033D6020087
:1043D80088D80200BED802009ED60200C0D60200CD
:1043E800D5D80200FBD8020022D9020058A9020041
:1043F80045D9020007D8020055D90200040000017F
:104408007CD9020090D90200BDD9020027C9020058
:104418002CC90200EBD9020008DA020038DA0200DF
:10442800A5CA020061DA020098DA02001DCB020078
:1044380032C90200B4DA02000FD80200CCDA020056
:10444800E5DA0200C006030035C9020000DB0200FD
:1044580064DB020038B5444C03212046434A1FF070
:10446800C0F920460221424A1FF0BBF9414D2046BF
:104478000221414A1FF0B5F9204603213F4A1FF0A7
:10448800B0F92A46204603211FF0ABF92046032144
:104498003B4A1FF0A6F9204603213A4A1FF0A1F92A
:1044A80020460321384A1FF09CF920460321374A49
:1044B8001FF097F920460321354A1FF092F920464C
:1044C8000321344A1FF08DF920460321324A1FF098
:1044D80088F920460321314A1FF083F92046032139
:1044E8002F4A1FF07EF9204603212E4A1FF079F942
:1044F8002A46204603211FF074F9204603212A4A40
:104508001FF06FF920460321284A1FF06AF9204658
:104518000321274A1FF065F920460321254A1FF089
:1045280060F920460321244A1FF05BF92046032145
:10453800224A1FF056F920460321214A1FF051F95B
:10454800032120461F4A1FF04CF91F481FF081FB2A
:10455800204603211D4A1FF044F92046BDE8384093
:1045680003211B4A1FF03DB910A7020087DB020098
:10457800BADB02004ADC0200F2DB020033DC020094
:1045880079DC0200ABDC0200DBDC0200FCDC0200B0
:1045980022DD020036DD020051DD02006FDD02007F
:1045A8008CDD0200A9DD0200CADD0200EBDD02009D
:1045B80001DE02002CDE02004ADE020066DE020096
:1045C80081DE0200A5DE0200BFDE02000EDF02006F
:1045D8002EDF02002DE9F84F044600AF38B901215B
:1045E8009A4A9B481FF0FDF8BD46BDE8F88F0321A5
:1045F800984A97481FF0F5F82578974B0321974A72
:1046080093481E781D701FF0ECF8954A954BE846C4
:1046180088B0002D08BF13466C464FF4007AA346B5
:10462800914ADFF84892C4E90523A4F81CA04BF886
:10463800109F5A464FF4E65185481FF0D4F88C4B2A
:104648008C49C546002E08BF1946A5468A485A46D1
:10465800C4E90501A4F81CA04FF4E6517C48C4F84D
:1046680010901FF0C0F8834A814BC546002D18BF33
:104678001346A54681495A46C4E9051374484FF4C0
:10468800E651A4F81CA0C4F810901FF0ACF87C49BF
:104698007C4BC546B54208BF0B46A5467A495A46E3
:1046A800C4E905136A484FF4E651A4F81CA0C4F8FD
:1046B80010901FF098F80321C546744A64481FF00B
:1046C80090F80321724A62481FF08BF80321714A5F
:1046D8005F481FF086F803216F4A5D481FF081F894
:1046E80003216E4A5A481FF07CF803216C4A584847
:1046F8001FF077F803216B4A55481FF072F86A4C8F
:10470800002D41D00321694A51481FF06AF803215E
:10471800674A4F481FF065F80321664A4C481FF066
:1047280060F80321644A4A481FF05BF823680321B4
:10473800624A47481FF053F80321614A44481FF072
:1047480050F803215F4A42481FF04BF803215E4AA4
:104758003F481FF046F803215C4A3D481FF041F8E6
:1047680003215B4A3A481FF03CF80321594A38486C
:104778001FF037F80321584A35481FF032F8002E49
:104788005FD056490A4636E00321554A30481FF0A3
:1047980028F80321534A2E481FF023F80321524AD0
:1047A8002B481FF01EF823680321504A28481FF0A1
:1047B80016F803214E4A26481FF013F80321414AF0
:1047C80023481FF00EF803214A4A21481FF009F830
:1047D8000321494A1E481FF004F80321474A1C4890
:1047E80023681EF0FCFF0321454A19481EF0F9FF13
:1047F80056B33A49434A236843481FF02AFA03212B
:10480800424A13481EF0EDFFB54200F0E280002D49
:1048180000F0888003213E4A0D481EF0E2FF032184
:104828003C4A0B481EF0DDFF03213B4A08481EF0B6
:10483800D8FF03212368394A05481EF0D0FF384BBA
:1048480086E03049254AD6E72E499BE785DF0200F6
:1048580010A70200ACDF0200313B0020DCDF0200C1
:104868002CC9020027C90200FBDF02000300000177
:1048780025E402001DD102001AE0020031E0020026
:1048880032C902001DCB020043E0020058E00200DA
:10489800A5CA0200A3E0020067D30200DAE0020022
:1048A800EFE0020029E10200A406002041E1020035
:1048B80055E102008FE10200C8E1020001E20200B6
:1048C8003FE202007AE2020092E20200CBE202003A
:1048D80007E302003DE302006FE302003AD1020061
:1048E800B8E30200C9E30200E4E30200C8D1020011
:1048F80010E402002EE402004CE4020067E4020027
:104908008DE402003DD10200CCE402001BE5020068
:104918003AE502005FE5020099E50200D5E50200EC
:104928004BE102000321384A38481EF05AFF0321A0
:10493800374A36481EF055FF0321364A33481EF0E1
:1049480050FF03212368344A30481EF048FF334B98
:10495800E84688B06C464FF4007A2646304ADFF8BD
:10496800C490C4E90523A4F81CA046F8109F324659
:104978004FF4E65125481EF036FF2B4A2B4BC5460F
:10498800002D08BF1346A546294A4FF4E651C4E94D
:1049980005231E483246A4F81CA0C4F810901EF047
:1049A80022FF244A244BC546002D18BF1346A546AE
:1049B800224A4FF4E651C4E9052314483246A4F8C4
:1049C8001CA0C4F810901EF00EFF0321C5461C4A17
:1049D80007E6124A1B4B6C4688B0002D08BF1346E9
:1049E8006A4619490948C2E905134FF400739383CD
:1049F8000C4B4FF4E65142F8103F1EF0F4FEA5466A
:104A0800002DA4D01BE700BF05E6020010A7020096
:104A18002AE6020049E60200C8D10200C2E3020009
:104A280099E6020003000001DBE3020050DF020008
:104A3800AEE602006FDF02001DCB0200C6E60200F0
:104A4800E4E602004BE1020079E602002DE9F04FAE
:104A58000C46B5B006460B4602AF0321B54AB64828
:104A68001EF0BDFE2CB9B54A0221B3481EF0B9FEAE
:104A78004CE10321B24AB0481EF0B3FE0025DFF82E
:104A8800C482715D404601351FF0E3F8AC4201DD98
:104A98000A2DF6D1AC481FF0DCF8C4220021381DDD
:104AA80025F058FA0321A94AA3481EF09AFE214688
:104AB80030463A1DFEF728FC0546002800F0E7813D
:104AC8000321A34A9C481EF08CFEBB8A0321A14AFD
:104AD80099481EF084FEBB8A262B00F2B0801D2B5D
:104AE80007D80A3B9AB2062A40F292809A4C9B4D0C
:104AF8001AE01E3B082BF9D801A252F823F000BF98
:104B0800734C0000F54A0000F54A0000F54A000021
:104B1800F54A00002D4B0000F54A0000674C0000E4
:104B28006D4C00008E4C8F4D03218F4A82481EF039
:104B380058FEE84688B002AE8C4B4FF4007AC6E9BE
:104B480005353546DFF82892A6F81CA045F8109FD1
:104B58002A464FF4E65178481EF045FEC546032123
:104B6800BB8A844A74481EF03AFE88B0824B2A46B3
:104B7800C6E905344FF4E6516F48A6F81CA0C6F8FC
:104B880010901EF030FE0321C5467C4A6A481EF08C
:104B980028FEBB8A262B00F29B801D2B6BD8A3F125
:104BA8000A0291B206297FD90221754A62481EF08D
:104BB80016FE0221734A60481EF013FE0221724A53
:104BC8005D481EF00EFE0221704A5B481EF009FE89
:104BD80002216F4A58481EF004FE02216D4A5648C9
:104BE8001EF0FFFD02216C4A53481EF0FAFD022117
:104BF8006A4A51481EF0F5FD0221694A4E481EF0E6
:104C0800F0FD684A02214C481EF0EBFD664A2BE78E
:104C1800062B3FF66BAF01A252F823F0414C00007F
:104C2800794C00005B4C0000F54A0000F54A000092
:104C3800F54A0000614C00005C4C5D4D74E7632B45
:104C4800454B5C4C18BF1C46444B5B4D18BF1D467A
:104C58006AE75A4C5A4D67E75A4C5B4D64E75B4C20
:104C68005B4D61E75B4C5C4D5EE75C4C5C4D5BE724
:104C78005C4C5D4D58E7A3F11E02082A94D801A1A7
:104C880051F822F0194E0000B14B0000B14B000062
:104C9800B14B0000B14B0000354E0000B14B000095
:104CA8005F4E00007B4E0000062A3FF67DAF01A153
:104CB80051F822F02D4D0000F94C00001D4D000068
:104CC800B14B0000B14B0000B14B0000514E000049
:104CD800632B7FF469AF0321444A17481EF081FD16
:104CE8000221434A14481EF07CFDFFF7B3FB0DE098
:104CF8000321404A10481EF074FD3F4B03211B68F6
:104D08003E4A0D481EF06BFDFEF73EFBCC37BD4614
:104D1800BDE8F08F3A4A032107481EF062FD394A80
:104D28000321A2E6384A032103481EF05AFD374AF8
:104D3800F6E700BF4CE8020010A7020085E8020071
:104D48009CE8020047CC02008A030300BDE8020089
:104D5800ECE8020019E902002EE7020048E7020029
:104D6800A1E702005EEC02003AE902004BE902000A
:104D78000300000168E9020074E90200DFC90200CB
:104D8800ABEB0200C4EB0200DDEB0200F7EB020024
:104D980013EC02002EEC020042EC020056EC02007A
:104DA80073EC02008CEC0200A9EC02000FE7020091
:104DB800E5EB020008E80200E5DB020050E702002C
:104DC8001BEC02006BE7020036EC0200C1E70200B0
:104DD8007BEC0200DEE7020094EC020085E70200AB
:104DE8004AEC02002EE80200FFEB020034EB02005E
:104DF80058EB020088E90200A806002068C40200F7
:104E0800ACE90200CFE9020009EA02002AEA02003E
:104E18000321524A52481EF0E4FCBB8A1E2B7FF441
:104E280075AF07F11800FEF79BFF6FE703214D4AA6
:104E38004B481EF0D6FCBB8A232B7FF467AF07F1E3
:104E48001800FFF70FF961E7474A032144481EF0AD
:104E5800C8FC464A64E70321454A41481EF0C1FCA4
:104E6800BB8A252B7FF452AF07F11800FEF742FEEC
:104E78004CE703213F4A3A481EF0B3FCBB8A262B75
:104E88007FF444AF07F11800FFF7A4FB3EE70121C8
:104E9800394A33481EF0A5FC0321384A30481EF031
:104EA800A0FC23460321364A2D481EF098FC032116
:104EB800344A2B481EF095FCA846DFF8CCA0DFF852
:104EC800CC9016F80800EB4600F0070105298CB0D5
:104ED8008CBF534659F821304FEAD00E02AAC2E9D6
:104EE800091340F20461DFF8A8C091852949C2E995
:104EF80005C8C2E9070E08F1010842F8101F184852
:104F08004FF473511EF06FFC4445DD4602DDB8F1E5
:104F1800140FD6D10A2C1FD94FF00008DFF878906B
:104F2800DFF83CA0043C16F8083003F00702022A18
:104F380008D1DB0800934A464346032150461FF038
:104F480047FD012508F10108A045ECDB25B9022140
:104F5800124A03481EF045FC114AE1E651EA0200F4
:104F680010A7020074EA0200A1EA0200BCEA0200EB
:104F7800E1EA020008EB0200CEEC020014ED0200A8
:104F88003DED020056ED020007D8020040A90200DC
:104F98007DED020007000001A5ED0200D9ED020039
:104FA80012EE02002DE9F04105460C4631B9022106
:104FB8003F4A4048BDE8F0411EF013BC03213E4A79
:104FC8003C481EF00EFC234603213C4A39481EF09B
:104FD80006FC00263A4FDFF8EC80A95D384601361A
:104FE8001EF037FE320702D140461EF032FEA642BE
:104FF800F3DB230702D033481EF02BFE2B78A02BBF
:105008000ED0B02B32D0022B3AD1032129482E4A98
:105018001EF0E7FB611E89B2681CFFF717FD08E068
:1050280003212448294A1EF0DCFB21462846FEF7C6
:105038007FF90321264A1F481EF0D3FB0026254F7F
:10504800DFF894802C4415F8011BA1F120035E2B96
:1050580025D840461EF0FDFDAC4206F1010624D1DC
:105068001E481EF0F6FD03211D4AA2E703211D4A32
:1050780010481EF0B6FB21462846FEF771F9D8E71E
:105088000221194A0B481EF0AAFB012CD1D003219A
:105098000848164A1EF0A5FB21462846BDE73846B3
:1050A8001EF0D7FDAC42CED1DAE7FF2EFBE700BFFA
:1050B80027EE020010A7020046EE020060EE020092
:1050C80047CC02008A0303007EEE0200D0EE020005
:1050D800BAEE020056EB020096EF020099EF0200CA
:1050E8009CEF020003EF020036EF02005FEF0200C0
:1050F80010B5094C0A44914200D110BD11F8013B8A
:1051080058400309E35C0001C0B243401809205C21
:105118001B01DBB25840EEE752F00200F8B50F462B
:1051280000293BD00668012230461EF0A1FB01464B
:10513800044630461EF064FBC3070DD4AF23184A5B
:10514800184919481EF09BFD394618481EF097FD6E
:10515800AF2113481EF08AFD214630461EF066FB3B
:1051680025182946002230461EF04AFB2D1AAC426B
:105178000BD0B7230A4A0E490B481EF080FD39466A
:105188000C481EF07CFDB721E3E7214630461EF0AF
:1051980053FB2146BDE8F8401EF08FBCF8BD00BFA8
:1051A80062F0020085F0020096F00200B3F00200FF
:1051B800EBF0020011F102002DE9F8430F460668F2
:1051C8001446B2684B1EB2F5004F34BF04210821C3
:1051D8003B4010D0C7F1000909EA0709494503F126
:1051E800FF3028BF494618420CD11F46DCB90025BC
:1051F8002846BDE8F8838F4213D82146BDE8F84316
:105208001EF09DBC2E494FF4A2732E4A2E481EF064
:1052180036FD2E481EF033FD4FF4A27129481EF0CA
:1052280025FD9946E2E7B2EBD40FE0D9E319591A04
:1052380010461EF027FB014630461EF07DFB8046D7
:105248000028D4D0B36809EBC005B3F5004F34BFCC
:10525800042308231D4435447B1E1D44B5FBF7F584
:105268007D43A5EB0905294630461EF001FB2C4479
:10527800073424F00704A41B804507464FEAE404DA
:1052880008D20246414630461EF090FB4146304661
:105298001EF0D1FB394630461EF0C8FA3844844225
:1052A80008D23946304622461EF080FB2146304659
:1052B8001EF0C1FB0122394630461EF0BDFA97E7C1
:1052C8004DF1020062F0020096F0020068F102005F
:1052D800B2F5802F2DE9F04110D2042A28D843498D
:1052E8004FF4F973424A43481EF0C9FC42481EF085
:1052F800C6FC4FF4F9713E481EF0B8FC0823D21AD8
:10530800CC1D114424F0070421F00701091B1729BB
:105318004FEAD1060ED8394940F2FB13344A3548D2
:105328001EF0ADFC34481EF0AAFC40F2FB11E2E787
:105338000423E4E70027046031463046A660E760AE
:105348001EF0A9FA0121421D804630461EF09AFA45
:105358009200D51DED082844B0423AD8B8F1FF3F75
:105368003946A2F1100204F11000B8BF3A4624F001
:10537800F1FD2A46394620461EF076FA3B463A4663
:10538800394620461EF047FAA6EB0508204639465E
:1053980001221EF051FA424629461EF065FA2B46B4
:1053A8003A46294620461EF036FA314620461EF077
:1053B8005BFA43463A46314620461EF02CFA3146FF
:1053C800204601221EF038FA2946BDE8F0411EF0B9
:1053D80032BB0B494FF40373054A06481EF04FFCD5
:1053E80005481EF04CFC4FF4037184E785F1020078
:1053F80062F0020096F00200A6F10200BFF102007E
:10540800E8F102002DE9F04F97B000AF8946044655
:10541800D7F880B0FA623B6258B9A94940F299338B
:10542800A84AA9481EF02BFC40F29931A5481EF065
:105438001DFCCBF3C00390F802A07B6141B945780D
:1054480000780AEB800020444D4517D8A0EB0409EA
:10545800E378FB61BAF1000F02D01BF0010F16D1FF
:10546800FB6953BBFB6A1BB1494620463A6A984719
:105478004D4628465C37BD46BDE8F08F461C304691
:10548800FCF70EFB0130304409F10109DCE76268E2
:1054980023787A62FA6A9900B96104EB8301002AD9
:1054A80040F002810E464FF000084D4601EB0A0914
:1054B8004E454CD101EB0A0610E01BF0020FD1D08B
:1054C80023789A00BA61626804EB83017A62FA6A07
:1054D800002A77D14D46904601EB0A061BF0050FCE
:1054E8000CBF02230123FB62FB6906EB430A0BF0A6
:1054F8000203BB625645BCD016F8021B16F8013CE5
:1055080054F82390714B994502D3714B994536D382
:105518007B69002B40D0786A1EF074FB00283BD0D2
:10552800E9468AB06A466B4B53617B6AC2E9063129
:105538004FF400731384684B42F8103F00234FF474
:105548001251664802F0F8F9023DCD46D2E716F846
:10555800013BF96254F82300FCF7A2FAD7F884302B
:10556800F96A01304BB1D7F8883098453EBFD7F873
:10557800843023F8180008F10108054498E77B698E
:1055880023B1786A1EF03EFB0028C9D11BF0010F39
:1055980005D1FB6AED1AADE7BB6A002BAAD04846D5
:1055A800FCF77EFAD7F8843053B1D7F8883098459D
:1055B8003FBFD7F88420431C22F8183008F10108AF
:1055C800054497E7BAF1000F74D01BF0040674D0B5
:1055D800D046002607F1480052463B61B96224F0E4
:1055E80092FCB96A3B6901EB0A02BA62FA69F96985
:1055F8005200FA60BA6A02EB41023A610BF0020209
:10560800BA60BA6A39698A426AD162781BF0020FB5
:1056180018BF00217A6208BF4FEA5801B2181BF080
:10562800010FD2B240F0E5801BF0040F14BF4046D2
:1056380000207B616270A070E17020463A6AB96907
:10564800FB6A9847051EFFF614AF7B694146237035
:105658007B6A3A6A6370FB6984F802A0E37007F119
:105668004800FB6A9847B0F10008C0F2F680BB69B1
:10567800A9EB0A01C91AFB683A6AC91AD7E90A03E9
:1056880098470028C0F2EB804FF0000BA84408EBC5
:10569800000507F1380AB345C0F0AD8000213A6A29
:1056A8000846FB6A9847E4E656464FF0000807F1BB
:1056B800380091E75646D04695E7B04693E700BFD5
:1056C800A8F2020013F2020096F00200B8A002004D
:1056D80014550300C3F202000400000190A6020062
:1056E800BA6A12F8021B12F8015CBA6254F8250073
:1056F8005C4A904202D35C4A904218D37A693AB124
:10570800786A7B601EF07EFA7B6800287FF479AFA8
:10571800BA68002A4CD00F2E40D9544940F24D4364
:10572800534A54481EF0ABFA40F24D417EE67A697E
:105738003AB1786A7B601EF065FA7B6800287FF4CE
:1057480060AF1BF0010F0BD00F2E27D9474940F24D
:105758004343474A47481EF092FA40F2434165E600
:105768001BF0040F3FF44DAFB8F10F0F09D94249B0
:1057780040F246433E4A3F481EF081FA40F2464115
:1057880054E608F1280207F1300008F1010102EBA4
:10579800000808F8105C5FFA81F832E706F1280281
:1057A80007F13000711C161806F8205CCEB228E705
:1057B800B8F10F0F09D930494FF48A632C4A2D48A4
:1057C8001EF05DFA4FF48A6130E608F1280207F10D
:1057D800300C08F10100944407F1580208F102085E
:1057E80052FA80F00CF8101C5FFA88F800F8105C88
:1057F80007E700201DE71BF80A3054F8239087F8C4
:105808003730D7F884302BB3D7F888309B4521D26E
:10581800D7F8843033F81B8001213A6AFB6A07F114
:105828003700984700281ADB0544B8F1000F06D165
:105838004846FCF735F900F101081FFA88F8414697
:1058480048463A6AFB6A9847002808DB05440BF18A
:10585800010B20E74FF00008DEE7454609E605465C
:1058680007E600BFB8A002001455030066F3020063
:1058780013F2020096F0020085F30200014B1B6848
:10588800184700BFAC060020014B1860704700BFE6
:10589800AC06002030B585B004460D461022002124
:1058A800684624F057FB02238DF80230044B2A4641
:1058B8002146684601931DF0FFFC05B030BD00BFCE
:1058C8008558000080B505460E461746984617F0DD
:1058D80021FC034624F0E2FB0446DFF81890424618
:1058E80049F8003039463046A84754F8090003F013
:1058F800C5FA00BF0800000038B50D46044620224E
:10590800002124F027FB0022EB68E361AB68A36168
:105918002B6823626B68A26263622A6923B1591EED
:10592800194208BF42F0010222610122002104F15C
:105938002C0023F033F948B1054906482F23064ABD
:105948001EF09DF92F2104481EF090F938BD00BFC4
:105958005A2A030096F00200B6F302002DE9F04F30
:10596800002789B0CDE90123436A04468B42884663
:10597800BA460597079754D300F11406EFF311853B
:10598800202383F31288BFF36F8F3046A94617F0A0
:105998000FFE58B988234D4A4D494E481EF06FF9FD
:1059A80031464D481EF06BF9882163E0304617F008
:1059B80023FE079A2AB1394620461EF041FA0023F1
:1059C800079306A920461EF067F9069983464145C4
:1059D80030D32268236A204613F8221003EB820A88
:1059E80021F0030103F82210216842461EF078F9DD
:1059F800E3682060984218D04FF0000B304617F04B
:105A0800E5FD50B389F31188BFF36F8F059929B16C
:105A1800A2690AB12046904700230593BBF1000F05
:105A2800ACD1504609B0BDE8F08F236943F00803B4
:105A38002361E1E718B120461EF06CF9DEE7DDE9E5
:105A48000132134339D0039123F01DF90399A0BB08
:105A58009DBB304617F0BAFD78B940F231131B4AA6
:105A68001E491C481EF00BF931461D481EF007F967
:105A780040F2311115481EF0F9F885F31188BFF38B
:105A88006F8F04F12C00DDE9012315F003FC834638
:105A9800EFF31189202383F31288BFF36F8F304609
:105AA80017F086FD00283FF475AFBBFA8BFB304634
:105AB80017F0A2FD4FEA5B1BA0E7204607AB05AA3B
:105AC80027681EF046F9834698E700BFDCF302001A
:105AD80009F4020096F002001EF4020034F40200F9
