:1080000008DA002031D50000BD4202001DD5000075
:108010001DD500001DD500001DD500001DD5000098
:108020000000000000000000000000009DD60000DD
:108030001DD50000000000002DD600001DD5000059
:1080400061D8000061D8000061D8000061D800004C
:1080500061D8000061D8000061D8000061D800003C
:1080600061D8000061D8000061D8000061D800002C
:1080700061D8000061D8000061D8000061D800001C
:1080800061D8000061D8000061D8000061D800000C
:1080900061D8000061D8000061D8000061D80000FC
:1080A00061D8000061D8000061D8000061D80000EC
:1080B00061D8000061D8000061D8000061D80000DC
:1080C00061D8000061D8000061D8000061D80000CC
:1080D00061D8000061D8000061D8000061D80000BC
:1080E00061D8000061D8000061D8000061D80000AC
:1080F00061D8000061D8000061D8000061D800009C
:1081000061D8000061D8000061D8000061D800008B
:1081100061D8000061D8000061D8000061D800007B
:1081200061D8000061D8000061D8000061D800006B
:1081300061D8000061D8000061D8000061D800005B
:1081400061D8000061D8000061D8000061D800004B
:0481500061D80000F2
:1081580053B94AB9002908BF00281CBF4FF0FF31A6
:108168004FF0FF3000F00CB8ADF1080C6DE904CE0B
:1081780000F022F8DDF804E0DDE9022304B07047DE
:10818800704700BF10F8012B11F8013B012A28BFE6
:108198009A42F7D0D01A7047034611F8012B03F81A
:1081A800012B002AF9D17047034613F8012B002A46
:1081B800FBD1181A013870472DE9F04786468C46DE
:1081C8000846089E154674461946002B40F0C180A3
:1081D8008542B2FA82F245D94AB1C2F1200300FAC7
:1081E80002FC954094402EFA03F343EA0C0C4FEA44
:1081F800154EA8B2230CBCFBFEF80EFB18CC08FBEE
:1082080000F943EA0C43994528D9EB1808F1FF37E0
:1082180004D2994502D9A8F102072B44A3EB09031C
:10822800A4B2B3FBFEFC0EFB1C330CFB00F044EACB
:108238000344A04214D92C190CF1FF3304D2A042F4
:1082480002D9ACF102032C44241A43EA07401EB1B8
:10825800D440002334607360BDE8F0874746DDE70B
:108268006346F1E792BB431B01214FEA154EAFB2BB
:10827800200CB3FBFEFC0EFB1C330CFB07F840EA9A
:108288000343984561D9EB180CF1FF3004D29845A7
:1082980002D9ACF102002B44A3EB0803A4B2B3FB50
:1082A800FEFC0EFB1C330CFB07F744EA0344A74211
:1082B8004DD92C190CF1FF3304D2A74202D9ACF1E5
:1082C80002032C44E41B43EA0040C0E7C2F1200348
:1082D8009540944020FA03F12EFA03F34FEA154E25
:1082E8009040AFB20343B1FBFEFC0EFB1C10190C0F
:1082F8000CFB07F841EA0041884522D969180CF1BE
:10830800FF3004D2884502D9ACF102002944A1EB20
:1083180008019BB2B1FBFEFC0EFB1C110CFB07F71E
:1083280043EA01439F420ED9EB180CF1FF3104D206
:108338009F4202D9ACF102012B44DB1B41EA004108
:1083480093E76046E3E76146F7E76046A4E76346DC
:10835800B8E7834206D916B9002108467CE7C6E982
:1083680000E0F9E7B3FA83F78FB9834201D3724586
:1083780008D8BEEB020460EB030301209C461EB93B
:10838800002169E73846FAE7C6E9004CF8E7C7F183
:10839800200CBB400EFA07F522FA0CF42EFA0CF169
:1083A800BA401C4320FA0CF3B8404FEA1449014381
:1083B8001FFA84FEB3FBF9F809FB18300B0C08FB15
:1083C8000EFA43EA00439A4540D9E31808F1FF3012
:1083D80004D29A4502D9A8F102002344A3EB0A0368
:1083E80089B2B3FBF9F809FB183308FB0EFE41EA22
:1083F80003418E452CD9611808F1FF3304D28E450C
:1084080002D9A8F10203214443EA0040A1EB0E017E
:10841800A0FB02984145CE46434602D306D14D45BE
:1084280004D20138B9EB020E68EB0403002EA7D082
:10843800B5EB0E0261EB030101FA0CFC22FA07F31B
:10844800F9404CEA0303C6E9003199E74046C5E71D
:108458004346D9E7000000000022F0B583B011467A
:1084680040F6034000AF07F035FD0446002840F011
:10847800A28007F0D7F8214641F203003A1D07F021
:1084880029FD0446002840F096807A684C4DD16852
:1084980005F17803D1F80100D1F8051003C310469F
:1084A80005F0C6FE214641F201003A1D07F012FD13
:1084B800044600287FD17868C3685A7885F8702008
:1084C8005A88A5F872201A7985F87120B3F8072020
:1084D800A5F87420B3F80530A5F8763005F0A8FEA5
:1084E800214641F202003A1D07F0F4FC0446002838
:1084F80061D1D7F804C005F18006DCF80C20531CC4
:108508004132344618685968083303C493422646F2
:10851800F7D1604605F08CFE08F06AFF0446002893
:1085280049D195F88A30990610D40221254A26485F
:108538001CF0C6F895F87C305A0649D40121234A24
:1085480021481CF0BDF86FF0120434E0072140F612
:10855800334007F087F80646002800F03C810721E1
:108568000C3005F093FF6FF0040303700223C0F88A
:1085780002408471447004712246C370314640F64B
:10858800334007F0A7FC0446A8B9012140F6314062
:1085980007F068F80646002800F01D8101210C301C
:1085A8001BF039FF2246314640F6314007F092FC75
:1085B80004460028BED020460C37BD46F0BD00BF9B
:1085C800C0840020D0C80200488B0200FEC8020008
:1085D800002142F203003A1D07F07CFC0446002803
:1085E800E9D17B68A04EDA68D2F80100D2F805100C
:1085F80003C6184605F01CFE214642F202003A1D49
:1086080007F068FC04460028D5D17C68E368B3F815
:10861800012091B249B1D97839B1A5F80421DA78A5
:10862800114606F128001FF049FD204605F000FE1E
:108638001F2395F87C60A5F8203116F0200618D184
:10864800022140F66D4007F00DF80446002800F0BE
:10865800C28002210C3005F019FF01232146037066
:108668004670324640F66D4007F034FC0446002858
:10867800A1D195F89C301B0712D5002142F21C00AD
:108688003A1D07F027FC0446002894D17868C3688F
:10869800D3F80120D3F80530C5E9382305F0C8FD23
:1086A80095F8D8309E0622D53846B91C07F018FD33
:1086B800044600287FF47FAF042142F2240006F02C
:1086C800D1FF0646002800F0868004210C3005F012
:1086D800DDFE3B88224603807B883146438042F298
:1086E800240007F0F7FB044600287FF464AF95F8F0
:1086F800D8305C0610D5002142F22A003A1D07F056
:10870800E9FB044600287FF456AF7868C3685B78B5
:1087180085F8223105F08CFD082142F2010006F0AF
:10872800A1FF0446002856D008210C3005F0AEFE03
:1087380095F8D81040F2022311F0400F08BF032328
:10874800024688074CBF43F02C0043F00C008B0610
:1087580095F8D93048BF40F0400013F0090F18BF12
:1087680040F40060CE0748BF40F0100000211BF025
:10877800C1FF2146002242F2010007F0ABFB04468C
:1087880000287FF418AF95F87C30B5F804119806E6
:1087980024D4C9B941F205003A1D07F09BFB0446F1
:1087A80000287FF408AFB5F804317C684BB9E3685A
:1087B800B3F80120A5F804219A882C4811461FF027
:1087C8007DFC204605F034FD082140F6014006F006
:1087D80049FF044660B96FF06804ECE60029F3D15C
:1087E8000121234A23481BF06BFF6FF00404E2E6E3
:1087F80008210C3005F04AFE95F8D8300246D90712
:108808002AD44FF000511C481BF074FF2146002267
:1088180040F6014007F05EFB044600287FF4CBAE2B
:1088280001463A1D4FF6014007F054FB40B3134A86
:10883800022110481BF044FF1CF02BF904460028C5
:108848007FF4B9AE0AF0E8FA044600287FF4B3AE24
:1088580007F028F90446AEE601A1D1E90001D3E703
:10886800908800020080002098850020C88500209C
:1088780022C90200488B02001088000245C9020084
:108888007B686E46DC688AB0B4F80130032B96BF6B
:10889800424A434952F823106A46D3614FF40073A1
:1088A80040481384404BC2E9050142F8103F4FF499
:1088B80013513E481BF013FFB4F80120B546022AB5
:1088C800B4F8033049D1052B47D8394A52F8231058
:1088D8006E468AB06A46D3614FF4007335481384F4
:1088E800314BC2E9050142F8103F4FF413512F48AC
:1088F8001BF0F5FEB546637994F806C0032B98BFC4
:108908002D4AB4F80760D4F809006C468CB094BFBF
:1089180052F8231022496A46C2E9073C4FF4007313
:10892800DFF898E09385264BC2E905E1C2E90960C2
:108938004FF4735142F8103F1C481BF0D0FEA54677
:10894800786805F075FC00214FF602403A1D07F0E3
:10895800C1FA044618B11B4A6AE71149B8E77868B2
:10896800C368B3F80130A5F8C13005F061FC95F88B
:10897800C1305B077FF560AF21464FF603403A1DD3
:1089880007F0A8FA08B1104A52E77868C3685B781C
:1089980085F8C03005F04CFC4EE700BFF89902009E
:1089A80006C6020069C9020004000001488B0200E3
:1089B800E099020082C90200D09902009AC9020017
:1089C80007000001C7C90200F0C9020010B5064A35
:1089D800064802211AF095F9BDE8104040F2676296
:1089E8000023034817F0BEBCB09F0200108C0200A1
:1089F800B08D002001232DE9F04788B002AF394639
:108A0800381D3B6008F01EF87A79FB790192BA7933
:108A18003F4C0092202120463E4A19F06FFE6D46D9
:108A280088B002AA3C4B4FF4E651C2E905344FF432
:108A380000739383394B3A4842F8103F1AF063F9B0
:108A48002046AD461BF099FE024618B13549344818
:108A58001AF05CF9DFF8D0902D48C9F80C40FFF700
:108A6800A3FB032189F80900304A2D481AF049F977
:108A78006D4688B002AA4FF400782D4B274EC2E904
:108A88000534A2F81C804FF4E65142F8106F2448D0
:108A98001AF039F90321AD46264A21481AF031F96E
:108AA8004FF0010A02230321234A1D48CDF800A0F4
:108AB8001BF04AFA3B1D9C46DFF880E0BEE80F0039
:108AC800ACE80F00DEF800300222CCF8003049464E
:108AD8001B4BCDF800A0381D08F06EFB024638B1DC
:108AE80018490F481AF012F91837BD46BDE8F08743
:108AF80088B002AA144BA2F81C80C2E905344FF4CE
:108B0800E651074842F8106F1AF0FDF8AD46EBE75A
:108B1800C9890020D99F02002DA00200030000018E
:108B2800108C0200ED9F02006C86002010A002004D
:108B38002BA002003DA0020072A00200E08C0200FF
:108B4800648600209FA00200C4A0020008B5F82097
:108B58001FF05EFC40B10023A0F8F430011DBDE811
:108B6800084003481AF0D7B8BDE80840FFF72EBF01
:108B78001887020070B503788AB004460E4607AD20
:108B8800032B20D8DFE803F002191B1D11492846E2
:108B9800FFF702FB059563781E210493A3783046FE
:108BA8000393E3780C4A0293237901936379009342
:108BB800A37919F0A3FD0AB070BD0849E7E7084991
:108BC800E5E70849E3E70A212846074A19F096FD30
:108BD800E0E700BFFAA002001CA1020001A1020008
:108BE80008A1020012A1020034E60200F0B5144602
:108BF80089B000AF0D461CF02EF93946FFF7BAFFD1
:108C0800ACB96C468AB06A46144BD561C2E90537DF
:108C18004FF400731384124B4FF41351114842F868
:108C2800103F1AF070F8A5462437BD46F0BD6E46D1
:108C38008CB06B460C4AC3E90754C3E905270B4AB5
:108C48004FF462515A620A4A06489A621A46094B18
:108C580042F8103F1AF057F8B546E5E73FA1020081
:108C680004000001108C02005DA10200FFBD02009B
:108C7800000203050600000290B589B000AF0C465B
:108C88001CF0E9F83946FFF775FF8AB06A46094BC8
:108C9800D461C2E90537084B4FF443511362074BBF
:108CA80007485362074B42F8103F1AF02CF8243754
:108CB800BD4690BD84A10200FFBD0200000202046F
:108CC800108C02000500000290B589B000AF0C4678
:108CD8001CF0C1F83946FFF74DFF8AB06A46094BC8
:108CE800D461C2E905374FF400731384064B4FF47F
:108CF8001351064842F8103F1AF005F82437BD46CC
:108D080090BD00BFAAA1020004000001108C02005F
:108D180090B589B000AF0C461CF09DF83946FFF7B6
:108D280029FF8AB06A46094BD461C2E905374FF476
:108D380000731384064B4FF41351064842F8103F52
:108D480019F0E1FF2437BD4690BD00BFCCA1020059
:108D580004000001108C0200B0B588B000AF0C46CA
:108D68001CF079F83946FFF705FF6D468AB06A4668
:108D7800124BD461C2E90537114B124C1362124BE6
:108D880012485362124B4FF4435142F8103F19F006
:108D9800BAFF2068AD4618B109F0A4F90023236092
:108DA8000C4C206830B109F09DF9002301202360A4
:108DB8001EF039F82037BD46B0BD00BFE1A1020062
:108DC800FFBD0200709E002000020204108C020009
:108DD80005000002749E0020B0B588B000AF0C46B4
:108DE800054609F099F8124B186028461CF033F82C
:108DF8003946FFF7BFFE6D468AB06A460D4BD4610F
:108E0800C2E905374FF400730B4C13840B4B204613
:108E180042F8103F4FF4135119F075FF0321AD4686
:108E28002046074A19F06DFF2037BD46B0BD00BF88
:108E3800709E0020CCA10200108C020004000001EA
:108E480004A20200B0B588B0044600AFB1B16C46C8
:108E58008AB06A46194B1A48C2E90531194B4FF4D2
:108E68001151D36140F201331384174B42F8103F7C
:108E780019F049FFA5462037BD46B0BD1BF0EBFFF2
:108E88003946FFF777FE6D4688B06A460F4B4FF4B8
:108E9800E651C2E905374FF4007393830C4B084839
:108EA80042F8103F19F02FFF2046AD4609F034F87C
:108EB800084B186001201DF0B3FFDCE733A2020065
:108EC800108C0200FFBD02000400000154A2020041
:108ED80003000001749E002080B588B000AF1BF02D
:108EE800BAFF3946FFF746FE88B06A46084B4FF48A
:108EF800E651C2E905374FF400739383054B0648E2
:108F080042F8103F19F0FFFE2037BD4680BD00BF74
:108F180061A2020003000001108C02002DE9F04F4D
:108F2800834688460021A9B000AF1546381D1A228D
:108F380039601FF098FA58461BF08DFF3946FFF745
:108F480019FE6E4688B06A464FF4007A3C4BDFF84B
:108F5800F490C2E90537A2F81CA04FF4E65142F894
:108F6800109F394819F0CFFE2946B546404607F10B
:108F7800200400F0A9FC224680232946404600F040
:108F880035FD021E0ADD92B22146584600F000FB6C
:108F98000246C0B12D492C4819F0B8FE0026DFF86A
:108FA800B090DFF8B0A0AE4209D0F8201FF030FA38
:108FB8000446C0B90221284A234819F0A2FEA43762
:108FC800BD46BDE8F08F88B06A46244BA2F81CA0C5
:108FD800C2E905344FF4E6511B4842F8109F19F0D6
:108FE80092FEB546DAE7AA1BEF2A8CBFEF2292B2AF
:108FF800031DA0F8F42008EB060118461FF00CFA30
:10900800B4F8F42003461644B6B2B5420BD108EBC7
:10901800050111F8011C0D2905D10A20A1180132FA
:109028000871A4F8F42019464846B4F8F42019F059
:109038007AFE0028B7D0214650461FF026F8B2E73E
:1090480077A2020003000001108C02008EA2020029
:1090580018870200508B0020C6A20200AFA20200AF
:1090680010B50B78052B00F29C80DFE803F003862F
:109078002D6577498B68002B00F09380486800289D
:1090880000F08F80474A1368E3B1181F002313606C
:10909800454A13601FF0B5F900220023434816F033
:1090A80035FA00287DD0B0F8F420011D404819F0A9
:1090B8003AFE002875D03F4A0221BDE810403E48DC
:1090C80019F01FBE0438E5E74A68CB68B2F8F0002B
:1090D80003443A489BB2A2F8F0300278002A60D1E3
:1090E8004A68134413F8013C0A2B01D00D2B58D1C0
:1090F800012303702E48BDE8104083685B69184758
:1091080000242E4BF8201C701FF082F938B1A0F80B
:10911800F440011DBDE81040254819F0FCBD284A5F
:109128002548022119F0EDFDBDE8104040F26762C4
:109138000023244817F016B9F8201FF069F90146F2
:1091480050B10023A0F8F4301948F022BDE81040CF
:10915800836804311B691847194AADE74B68191F22
:10916800B3F8F03023B1BDE8104017481EF08DBFAA
:109178000846BDE810401FF044B90A4A13680BB905
:109188004B68136008488B6801680B4411680360DA
:10919800B1F8F0200648D21A1944BDE8104019F079
:1091A800C2BD10BD5C9E0020589E0020508B002040
:1091B80018870200F1A20200108C0200F8A4002017
:1091C800B09F0200B08D0020348B00202DE9F043C1
:1091D800BFB04FF0FF324FF0FF332A4816F08AFA3B
:1091E800F822002168461FF03EF9274FDFF89C80DF
:1091F800DFF89C904FF0FF334FF0FF32384616F0FF
:1092080085F9BDF8F440B0F8F430C4F1F0049C429C
:10921800054628BF1C4600261CB928461FF0F1F851
:10922800E8E7BDF8F400311D0430224629446844BB
:109238001FF0F2F8BDF8F4202644224492B2EF2A37
:10924800ADF8F42008D802F1F8036B4413F8F53CA4
:109258000A2B01D00D2B0DD1D8F8000001A900F080
:1092680097F920B14A4602210A4819F04AFD00231D
:10927800ADF8F430B5F8F440A41BF02C28BFF02466
:10928800CAE700BFEC8A0020348B0020749E0020BF
:109298000FA30200108C020008B505480321054AF7
:1092A80019F02FFDBDE80840034816F079BD00BF4E
:1092B800108C020037A30200609E0020F8B51E4CF7
:1092C8000546206800AF002833D00D40EA0716D5C0
:1092D8001BF0EBFD6E4688B023686A4617491848AC
:1092E800C2E9051303234FF4C65142F8103F19F0A1
:1092F8000AFDB546206808F0F5FE00232360AB0799
:1093080017D520681BF0D9FD6D4688B023686A46DA
:109318000C490B48C2E9051303234FF4C65142F820
:10932800103F19F0F0FCAD46206808F0DBFE002382
:109338002360BD46F8BD00BF709E00207FA30200D9
:10934800108C020096A30200F8B54E4811F08AF975
:10935800024618B14C494D4819F0D8FC11F050F9A3
:10936800024618B14A49494819F0D0FC494E3046DE
:109378001EF011FEB0B1F8201FF04AF8044688B17B
:1093880000254549A0F8F450444816F0B3FEB368E8
:109398001B684BB920461FF034F80121404A3B486E
:1093A80019F0AFFC19F0C7FC2A4630463D499847EA
:1093B8000028EFD1F8201FF02BF8054670B3031DE5
:1093C80018463949FEF7E8FE3C220146A5F8F42084
:1093D800304619F0A8FC074658B120461FF011F88E
:1093E80028461FF00EF83A463049284819F08EFCF6
:1093F800D8E73046211D19F08EFC024650B92C489A
:1094080009F0D0FC024668B12A49204819F07EFCD0
:109418000020F8BD28491D4819F078FC20461EF0A8
:10942800F0FFBFE7254809F0D7FC024608B12449F8
:10943800EBE706F09FFE0028B4D10321214A134828
:1094480019F05FFC204816F0EDF81AF023FE1F48CB
:1094580000F096F8044610B102461D49D5E71D48AC
:109468001D4916F0BDFB1B4816F09AFC013404F0A8
:109478000101002011F086F900214FF4004017F097
:10948800EDFFF3E7C5920000AEA30200108C0200C6
:10949800CCA3020018870200558B0000B08D002075
:1094A800E7A302006990000007A4020044A4020098
:1094B8004C86002094A402006DA402003C86002083
:1094C800CAA4020005A50200EC8A00203886002004
:1094D8001BA50200609E0020FD8900002DE9F041D7
:1094E800054600AF084616461C46E8460BF0CEFE79
:1094F8008AB06A460D4BC2E90754C2E90530052314
:1095080042F8103F00234FF42351094802F0C2FEED
:10951800084BC5461B682BB11B681BB12246314658
:10952800284698472046BD46BDE8F08178A5020048
:10953800E88B0200789E002080B50C4A0C4B00AFE7
:1095480088B0012908BF13466A460A49C2E90513CB
:109558004FF400739383084B42F8103F00234FF4F5
:10956800E651064802F096FEBD4680BDA2A502005F
:10957800AAA50200B3A5020003000001E88B0200BF
:1095880008B1024B18600020704700BF789E002089
:10959800F0B50E46154604468DB0134F182200212B
:1095A80068461EF060FFCDE90176ADF80C505CB15D
:1095B8000122394620460CF09DF888B169462046BC
:1095C8000CF0D4FB0DB0F0BD182221460DEB0200C3
:1095D8001EF049FFCDE90776ADF8245006A9EEE75D
:1095E8006FF01500EEE700BF048E02000221024A68
:1095F800024819F0ABBB00BF36A60200188C020067
:1096080098B5B0F8013000AF5BBA8AB06A46C07846
:109618009BB2094C0439C2E90543052389B2D061DC
:10962800116242F8103F00234FF42351034802F01F
:1096380031FEBD4698BD00BF4CA60200188C020042
:10964800B0B5144684B000AF0A460146384611F05A
:10965800F5FF2246384610491DF086FE0446B8B983
:10966800FB680E4A6D4688B0002B08BF13466A4651
:109678000B49C2E905134FF400739383094B42F871
:10968800103F4FF4E2510346074802F003FEAD468F
:1096980020461037BD46B0BD5496020090A6020081
:1096A80097A6020003000001188C0200F0B50446DA
:1096B80087B000AF381D1D4611F0C2FC22461C4978
:1096C800381D1DF0D9FD0446B8B13B692B606D46C5
:1096D80088B06A46174951611749C2E9061304233D
:1096E80042F8103F00234FF40451144802F0D2FD11
:1096F800AD4620461C37BD46F0BD7B69104A6E4614
:1097080088B0002B08BF13466A460E49C2E9051304
:109718004FF4007393830C4B42F8103F4FF4E2511F
:109728000346064802F0B6FDB5462C60E1E700BFE7
:10973800B0950200B1A60200D1AA0200188C02005E
:1097480090A60200C7A60200030000012DE9F04F11
:1097580093B0064600AF0D46394A0B4639480321F7
:109768001AF0E8FB45B90221374A364819F0EEFAF3
:109778004C37BD46BDE8F08F44220021381D1EF04D
:1097880072FE294630463A1D19F0E2FA04460028CE
:1097980030D003212D4A2B4819F0D8FABB89032170
:1097A8002B4A28481AF0C6FBBB89102B0BD8092B6B
:1097B8000DD9A3F10A02062A09D8DFE802F0130E30
:1097C8001108080819001E2B0ED0232B0ED00321D8
:1097D800204A1C481AF0AEFBCAE71F4A0321C4E717
:1097E8001E4AFBE71E4AF9E71E4AF7E71E4AF5E755
:1097F8001E4AF3E701211E4A124819F0A7FADFF8BA
:109808007480DFF87490DFF83CB0EA468AB06A46A4
:10981800335DD90803F0070313620523C2E90589FC
:10982800D16142F8103F00234FF4245158460134C7
:1098380002F030FDA542D5469ADD0A2CE5D197E71E
:10984800E1A60200188C02001AA7020031A7020044
:1098580062A7020046A8020083A70200A7A7020089
:10986800CAA70200EBA7020006A802002BA8020064
:1098780064A80200AAA80200F1AA0200012907B5FB
:1098880004D803B05DF804EBFFF7B0BE43780239A3
:1098980089B20091034A032103481AF055FB03B02B
:1098A8005DF804FBD3A80200188C0200032904D831
:1098B8000221034A034819F049BAFFF7A1BE00BFC5
:1098C80003A90200188C02002DE9F04104460D4658
:1098D80031B90221364A3748BDE8F04119F036BAA5
:1098E8000321354A334819F031FA03212B46334A0C
:1098F80030481AF01FFB0026314FDFF8C880A15D01
:109908003846013619F061FC320702D1404619F099
:109918005CFCAE42F3DB2B0702D02A4819F055FC59
:109928002378A02B26D0B02B2ED0022B36D10321A2
:109938002048254A19F00AFA691E89B2601CFFF707
:1099480005FF0321214A1B4819F000FA204E214F38
:10995800254414F8011BA1F120035E2B24D83846B6
:1099680019F033FCA542F4D11B4819F02EFC032151
:109978001A4AB0E703211A4A0E4819F0E7F92946AE
:109988002046FFF77BFFDCE70321164A094819F058
:10999800DDF929462046FFF789FFD2E70221124A5E
:1099A80004481AF0C7FACCE7304619F00EFCD9E79C
:1099B80019A90200188C020038A9020052A9020055
:1099C80070A90200FEBD020078A90200B4A9020035
:1099D80005DD020059AA02005CAA02005FAA020083
:1099E800CAA90200FDA9020030AA020030B58FB052
:1099F8001446002132220DF106001D461EF033FDEB
:109A08000A23ADF8043055236A1E0293611C6B4685
:109A180001A819F0A7F958B102232370009C08483F
:109A280023460321074A1AF085FA601C0FB030BD9F
:109A380003480121044A19F089F96FF00B00F5E792
:109A4800188C020074AA0200A8AA020010B5094CDA
:109A58000A44914200D110BD11F8013B5840030956
:109A6800E35C0001C0B243401809205C1B01DBB273
:109A78005840EEE721AB0200F8B50F4600293BD06D
:109A880006680122304619F0AFF90146044630460F
:109A980019F072F9C3070DD4AF23184A18491948A9
:109AA80019F0A9FB3946184819F0A5FBAF2113484E
:109AB80019F098FB2146304619F074F92518294603
:109AC8000022304619F058F92D1AAC420BD0B723B2
:109AD8000A4A0E490B4819F08EFB39460C4819F012
:109AE8008AFBB721E3E72146304619F061F92146A0
:109AF800BDE8F84019F09DBAF8BD00BF31AB0200CF
:109B080054AB020065AB020082AB0200BAAB0200A4
:109B1800E0AB02002DE9F8430F4606681446B26828
:109B28004B1EB2F5004F34BF042108213B4010D032
:109B3800C7F1000909EA0709494503F1FF3028BFC1
:109B4800494618420CD11F46DCB900252846BDE815
:109B5800F8838F4213D82146BDE8F84319F0ABBA11
:109B68002E494FF4A2732E4A2E4819F044FB2E4872
:109B780019F041FB4FF4A271294819F033FB9946BB
:109B8800E2E7B2EBD40FE0D9E319591A104619F0FD
:109B980035F90146304619F08BF980460028D4D0B3
:109BA800B36809EBC005B3F5004F34BF042308239D
:109BB8001D4435447B1E1D44B5FBF7F57D43A5EBDD
:109BC80009052946304619F00FF92C44073424F0CA
:109BD8000704A41B804507464FEAE40408D202465E
:109BE8004146304619F09EF94146304619F0DFF9F2
:109BF8003946304619F0D6F83844844208D23946F6
:109C08003046224619F08EF92146304619F0CFF930
:109C180001223946304619F0CBF897E71CAC020010
:109C280031AB020065AB020037AC0200B2F5802F01
:109C38002DE9F04110D2042A28D843494FF4F9738A
:109C4800424A434819F0D7FA424819F0D4FA4FF477
:109C5800F9713E4819F0C6FA0823D21ACC1D1144EE
:109C680024F0070421F00701091B17294FEAD10640
:109C78000ED8394940F2FB13344A354819F0BBFA7B
:109C8800344819F0B8FA40F2FB11E2E70423E4E79C
:109C98000027046031463046A660E76019F0B7F83F
:109CA8000121421D8046304619F0A8F89200D51DC2
:109CB800ED082844B0423AD8B8F1FF3F3946A2F13E
:109CC800100204F11000B8BF3A461EF0CCFB2A4639
:109CD8003946204619F084F83B463A46394620462C
:109CE80019F055F8A6EB050820463946012219F067
:109CF8005FF84246294619F073F82B463A4629463A
:109D0800204619F044F83146204619F069F84346D0
:109D18003A463146204619F03AF8314620460122A3
:109D280019F046F82946BDE8F04119F040B90B4949
:109D38004FF40373054A064819F05DFA054819F00F
:109D48005AFA4FF4037184E754AC020031AB0200B5
:109D580065AB020075AC02008EAC0200B7AC020025
:109D68002DE9F04F97B000AF89460446D7F880B088
:109D7800FA623B6258B9A94940F29933A84AA948FE
:109D880019F039FA40F29931A54819F02BFACBF3BA
:109D9800C00390F802A07B6141B9457800780AEBCE
:109DA800800020444D4517D8A0EB0409E378FB61F7
:109DB800BAF1000F02D01BF0010F16D1FB6953BB9B
:109DC800FB6A1BB1494620463A6A98474D462846E1
:109DD8005C37BD46BDE8F08F461C3046FEF7E4F917
:109DE8000130304409F10109DCE7626823787A62BE
:109DF800FA6A9900B96104EB8301002A40F00281F4
:109E08000E464FF000084D4601EB0A094E454CD16D
:109E180001EB0A0610E01BF0020FD1D023789A005C
:109E2800BA61626804EB83017A62FA6A002A77D120
:109E38004D46904601EB0A061BF0050F0CBF0223A6
:109E48000123FB62FB6906EB430A0BF00203BB62CA
:109E58005645BCD016F8021B16F8013C54F823905E
:109E6800714B994502D3714B994536D37B69002BC9
:109E780040D0786A19F082F900283BD0E9468AB0C8
:109E88006A466B4B53617B6AC2E906314FF4007333
:109E98001384684B42F8103F00234FF41251664870
:109EA80002F0F8F9023DCD46D2E716F8013BF96217
:109EB80054F82300FEF778F9D7F88430F96A0130AE
:109EC8004BB1D7F8883098453EBFD7F8843023F88F
:109ED800180008F10108054498E77B6923B1786AFE
:109EE80019F04CF90028C9D11BF0010F05D1FB6A04
:109EF800ED1AADE7BB6A002BAAD04846FEF754F925
:109F0800D7F8843053B1D7F8883098453FBFD7F891
:109F18008420431C22F8183008F10108054497E70B
:109F2800BAF1000F74D01BF0040674D0D046002696
:109F380007F1480052463B61B9621EF06DFAB96AF2
:109F48003B6901EB0A02BA62FA69F9695200FA60E0
:109F5800BA6A02EB41023A610BF00202BA60BA6ACD
:109F680039698A426AD162781BF0020F18BF002152
:109F78007A6208BF4FEA5801B2181BF0010FD2B23B
:109F880040F0E5801BF0040F14BF404600207B61C1
:109F98006270A070E17020463A6AB969FB6A984716
:109FA800051EFFF614AF7B69414623707B6A3A6A47
:109FB8006370FB6984F802A0E37007F14800FB6A4C
:109FC8009847B0F10008C0F2F680BB69A9EB0A0116
:109FD800C91AFB683A6AC91AD7E90A0398470028D8
:109FE800C0F2EB804FF0000BA84408EB000507F126
:109FF800380AB345C0F0AD8000213A6A0846FB6ACA
:10A008009847E4E656464FF0000807F1380091E714
:10A018005646D04695E7B04693E700BF77AD0200B5
:10A02800E2AC020065AB0200CC850200A80E03007A
:10A0380092AD020004000001988B0200BA6A12F87F
:10A04800021B12F8015CBA6254F825005C4A90427F
:10A0580002D35C4A904218D37A693AB1786A7B6035
:10A0680019F08CF87B6800287FF479AFBA68002A69
:10A078004CD00F2E40D9544940F24D43534A5448CE
:10A0880019F0B9F840F24D417EE67A693AB1786A3A
:10A098007B6019F073F87B6800287FF460AF1BF0D1
:10A0A800010F0BD00F2E27D9474940F24343474AA7
:10A0B800474819F0A0F840F2434165E61BF0040F49
:10A0C8003FF44DAFB8F10F0F09D9424940F246436A
:10A0D8003E4A3F4819F08FF840F2464154E608F1ED
:10A0E800280207F1300008F1010102EB000808F826
:10A0F800105C5FFA81F832E706F1280207F13000B8
:10A10800711C161806F8205CCEB228E7B8F10F0FBC
:10A1180009D930494FF48A632C4A2D4819F06BF855
:10A128004FF48A6130E608F1280207F1300C08F193
:10A138000100944407F1580208F1020852FA80F02D
:10A148000CF8101C5FFA88F800F8105C07E700208C
:10A158001DE71BF80A3054F8239087F83730D7F8F2
:10A1680084302BB3D7F888309B4521D2D7F8843078
:10A1780033F81B8001213A6AFB6A07F137009847D8
:10A1880000281ADB0544B8F1000F06D14846FEF74F
:10A198000BF800F101081FFA88F8414648463A6A68
:10A1A800FB6A9847002808DB05440BF1010B20E700
:10A1B8004FF00008DEE7454609E6054607E600BF1A
:10A1C800CC850200A80E030035AE0200E2AC020006
:10A1D80065AB020054AE0200014B1B68184700BF74
:10A1E800A4860020014B1860704700BFA486002099
:10A1F80030B585B004460D461022002168461EF091
:10A2080032F902238DF80230044B2A46214668466B
:10A21800019318F005FB05B030BD00BFE1A10000B7
:10A2280080B505460E461746984617F0A3F903462B
:10A238001EF0BEF90446DFF81890424649F800308F
:10A2480039463046A84754F8090003F0D5F900BF4D
:10A258000800000038B50D460446202200211EF0F3
:10A2680002F90022EB68E361AB68A3612B68236203
:10A278006B68A26263622A6923B1591E194208BF3A
:10A2880042F0010222610122002104F12C001DF09C
:10A2980015FF48B1054906482F23064A18F0ABFFB9
:10A2A8002F21044818F09EFF38BD00BF0AE50200C0
:10A2B80065AB020085AE02002DE9F04F002789B09A
:10A2C800CDE90123436A04468B428846BA4605977E
:10A2D800079754D300F11406EFF31185202383F375
:10A2E8001288BFF36F8F3046A94617F091FB58B913
:10A2F80088234D4A4D494E4818F07DFF31464D4858
:10A3080018F079FF882163E0304617F0A5FB079A1B
:10A318002AB13946204619F04FF80023079306A9B9
:10A32800204618F075FF06998346414530D32268C8
:10A33800236A204613F8221003EB820A21F0030156
:10A3480003F822102168424618F086FFE36820606F
:10A35800984218D04FF0000B304617F067FB50B307
:10A3680089F31188BFF36F8F059929B1A2690AB1E2
:10A378002046904700230593BBF1000FACD150460F
:10A3880009B0BDE8F08F236943F008032361E1E7D2
:10A3980018B1204618F07AFFDEE7DDE901321343F1
:10A3A80039D003911DF0FFFE0399A0BB9DBB304639
:10A3B80017F03CFB78B940F231131B4A1E491C4880
:10A3C80018F019FF31461D4818F015FF40F23111F9
:10A3D800154818F007FF85F31188BFF36F8F04F154
:10A3E8002C00DDE9012315F085F98346EFF3118987
:10A3F800202383F31288BFF36F8F304617F008FBD2
:10A4080000283FF475AFBBFA8BFB304617F024FBEE
:10A418004FEA5B1BA0E7204607AB05AA276818F0A0
:10A4280054FF834698E700BFABAE0200D8AE0200E7
:10A4380065AB0200EDAE020003AF02001AAF0200E6
:10A448002DE9F0410446C36908460E46984704F1D1
:10A4580014050746EFF31188202383F31288BFF30E
:10A468006F8F284617F0D4FA68B988231A4A1B490F
:10A478001B4818F0C0FE29461A4818F0BCFE88216F
:10A48800154818F0AFFE284617F0E6FA33783A4632
:10A4980043F0010333706168204618F0DDFE606008
:10A4A800204618F0A4FF284617F0C0FA68B940F211
:10A4B8003113094A0C490A4818F09DFE29460B48F1
:10A4C80018F099FE40F23111DAE788F31188BFF3EA
:10A4D8006F8FBDE8F08100BFABAE0200D8AE0200BE
:10A4E80065AB0200EDAE020003AF02001AAF020036
:10A4F8002DE9F843044600F11407EFF311882023EF
:10A5080083F31288BFF36F8F384617F081FA054638
:10A5180068B98823344A3549354818F06CFE3946FD
:10A52800344818F068FE88212F4818F05BFE38463A
:10A5380017F092FA2369A26813F0080F02D1636832
:10A548009A4200D9636A9B1A002B3FD0216A11F8FE
:10A55800223001EB820913F003003AD0022803D11C
:10A5680051F82260B60805D1D8071FD44846E369D8
:10A5780098470646A1683246204618F06DFE3146D7
:10A58800A060204618F076FE384617F04FFA10BB48
:10A5980040F23113144A1849154818F02CFE394670
:10A5A800164818F028FE40F23111BDE743F00203C7
:10A5B80001F82230E3694846A568984729460246CB
:10A5C800204618F049FE0025A060DDE71D46A94693
:10A5D800DAE70546FBE788F31188BFF36F8F002D94
:10A5E8008BD14846BDE8F883ABAE0200D8AE020076
:10A5F80065AB0200EDAE020003AF02001AAF020025
:10A608002DE9F0410446C36908460D46984704F110
:10A6180014060746EFF31188202383F31288BFF34B
:10A628006F8F304617F0F4F968B98823274A28490C
:10A63800284818F0E0FD3146274818F0DCFD88214D
:10A64800224818F0CFFD304617F006FA2B786FF342
:10A6580000032B7023699B0705D5E268236A03EB87
:10A6680082039D4222D12B786FF341032B70D4E9EA
:10A678000231994204D13A46204618F0EDFDA06017
:10A688003946204618F0F6FD304617F0CFF990B954
:10A6980040F231130D4A11490E4818F0ACFD31460D
:10A6A8000F4818F0A8FD40F23111C9E72B6867F38D
:10A6B8009F032B60E8E788F31188BFF36F8F04F1DD
:10A6C8002C00BDE8F04114F0ADBF00BFABAE0200F6
:10A6D800D8AE020065AB0200EDAE020003AF020087
:10A6E8001AAF020070B5044600F11405EFF31186A5
:10A6F800202383F31288BFF36F8F284617F088F959
:10A7080068B988231A4A1B491B4818F074FD294662
:10A718001A4818F070FD8821154818F063FD28467E
:10A7280017F09AF92369A06813F0080F02D163683B
:10A73800984213D9646A241A284617F077F978B929
:10A7480040F231130A4A0E490B4818F054FD2946C5
:10A758000C4818F050FD40F23111DDE71C1AEBE708
:10A7680086F31188BFF36F8F201E18BF012070BDBC
:10A77800ABAE0200D8AE020065AB0200EDAE02003F
:10A7880003AF02001AAF02002DE9F84F0446A38B6D
:10A7980008461907154612D4022803F0070165D1A7
:10A7A800204618F0AAFE88B10138042800F2378143
:10A7B800DFE810F05C0035018200D40004010128B4
:10A7C8000CBF43F0100143F02001A183143420464C
:10A7D80017F02CF9002840F09D819A4940F2311376
:10A7E800994A9A4818F007FD2146B1E003F007029C
:10A7F800501F01281ED80020062A2768C4E9000037
:10A8080014D13A4603E0E08B0130E0831268002A55
:10A81800F9D123F0070343F002022046A28318F07F
:10A828006CFE90B342F02002A2832EE023F00703CF
:10A838009AB2F2E7042A33D123F007039AB22046EA
:10A84800A28318F05AFE10B142F02002A283A38B13
:10A8580003F00709894540F0EC80A18BCA0640F156
:10A86800508121F01003A38301F00701D4F8188068
:10A87800A38BB8F1000FB9DA0022276823F0070389
:10A88800C4E9002243F00103A383A38B03F0070963
:10A89800894540F0CF80002FDFD00026B24644E043
:10A8A8006B4940F21B136B4A684818F0A4FC40F24D
:10A8B8001B11684818F096FC49B167494FF4AB730F
:10A8C800644A624818F097FC4FF4AB71F1E72368CB
:10A8D8004BB9624940F257135E4A5C4818F08BFC4A
:10A8E80040F25711E5E723691E684EB95C494FF4F9
:10A8F800AD73584A554818F07EFC4FF4AD71D8E74F
:10A908000F4688464FF00609A38B23F0070343F050
:10A9180006039BB2A383A268002A40F08D80002F13
:10A9280040F08D80002E98D0BA4643F0080304F119
:10A93800140B5846A38317F079F8002840F09A8042
:10A94800404940F23113404A404818F054FC5946F7
:10A95800444818F050FC40F23111ADE0022909D00A
:10A96800414940F25D133B4A384818F044FC40F234
:10A978005D119EE7E78B4FB13C494FF4AF73354A01
:10A98800324818F038FC4FF4AF7192E723695E68DB
:10A998004EB9334940F261132E4A2C4818F02BFC6B
:10A9A80040F2611185E7A38BB84623F0070343F013
:10A9B80004039BB24FF00409A383ACE7012909D033
:10A9C8002B494FF4B273234A204818F014FC4FF473
:10A9D800B2716EE723684BB9204940F265131D4AEE
:10A9E8001A4818F008FC40F2651162E723699E686E
:10A9F8004EB91B494FF4B473164A144818F0FBFBC0
:10AA08004FF4B47155E70027A38BB84623F007032A
:10AA180043F005039BB24FF00509A3837BE70C497C
:10AA280040F26B130B4A094818F0E5FB40F26B1132
:10AA38003FE7002700266EE74FF0010A75E79246C8
:10AA480073E700BF03AF0200ABAE020065AB0200C4
:10AA5800CAF302002FAF020054AF020060AF020039
:10AA680083AF02001AAF02009AAF0200B0AF020033
:10AA7800BFAF020085F31188BFF36F8FBAF1000FE3
:10AA88001CD177BB16B120462549B047EFF3118595
:10AA9800202383F31288BFF36F8F584616F0B8FF50
:10AAA80038BB88231F4A2049204818F0A4FB594680
:10AAB8001F4818F0A0FB88211A48FBE6A168002966
:10AAC800DFD00D680029DCD043464A462046D1F83D
:10AAD80004A0D0471DB12B6829461D46F2E72B4636
:10AAE800FAE7394643464A4620463F6818F031FDA2
:10AAF800C7E7584616F0B0FFA38B23F00803A383DB
:10AB0800ABE68B067FF562AE21F02003A38301F04C
:10AB1800070145E685F31188BFF36F8FBDE8F88F0D
:10AB28003DAB0000ABAE0200D8AE020065AB020040
:10AB3800EDAE0200F8B504460D4600F11406EFF339
:10AB48001187202383F31288BFF36F8F304616F0E6
:10AB58005FFF68B988230C4A0C490D4818F04BFB75
:10AB680031460C4818F047FB8821074818F03AFB93
:10AB7800304616F071FFA5613A462046BDE8F84018
:10AB88000121FFF701BE00BFABAE0200D8AE020044
:10AB980065AB0200EDAE02002DE9F04704460F4612
:10ABA80018F0C7FC051E68DB04F11409EFF3118ADD
:10ABB800202383F31288BFF36F8F484616F028FFCF
:10ABC800804660B98823384A3849394818F013FB59
:10ABD8004946384818F00FFB8821334842E0484678
:10ABE80016F03AFF4FF6FF72E38BA68B934206F0FE
:10ABF800070645D0022E15D135460133E383484672
:10AC080016F014FF002841D140F23113264A2A4990
:10AC1800274818F0F0FA4946284818F0ECFA40F2AC
:10AC28003111DAE7062E13D8DFE806F0092D1212E3
:10AC3800090409006FF085054FF00008DFE70023DD
:10AC48003B60636883B9C4E9007786B13546F3E7AA
:10AC58001B4917484FF4E4731A4A18F0CCFA4FF41A
:10AC6800E471184818F0BEFA1F606760EDE75246B5
:10AC780002212046FFF788FD35462846BDE8F087C3
:10AC88006FF00A05D8E76FF00405D5E78AF3118855
:10AC9800BFF36F8FB8F1000FEFD00023324639466B
:10ACA800204618F056FCE8E7ABAE0200D8AE02002A
:10ACB80065AB0200EDAE020003AF02001AAF02005E
:10ACC800BFAF02002FAF0200F8B5054600F1140629
:10ACD800EFF31187202383F31288BFF36F8F304679
:10ACE80016F096FE60B98823254A2649264818F0AA
:10ACF80082FA3146254818F07EFA882120482BE050
:10AD0800304616F0A9FEAC8B04F00704022C17D0CD
:10AD1800012C0CBF6FF004046FF08504304616F068
:10AD280085FE38BB40F23113154A1949164818F008
:10AD380062FA3146174818F05EFA40F23111DDE741
:10AD4800EB8B5BB91449104840F2EF13134A18F023
:10AD580052FA40F2EF11114818F044FA013B9BB245
:10AD6800EB83002BDAD13A4621462846FFF70CFD43
:10AD78002046F8BD87F31188BFF36F8FF8E700BF4F
:10AD8800ABAE0200D8AE020065AB0200EDAE020029
:10AD980003AF02001AAF0200D5AF02002FAF0200C6
:10ADA80008B54268034602F00302022A81600AD00D
:10ADB800032A4FF0000103D0012A0AD1596006E0A6
:10ADC8001868596008BD186800225A6058B90020F0
:10ADD800F8E7064906484523064A18F00CFA4521C3
:10ADE800044818F0FFF917F011FAF0E7CAF3020067
:10ADF80065AB0200E3AF02002DE9F7430F460646B4
:10AE08000821C06A18F04DFC80463C68DFF848907D
:10AE1800241A3C6004EA0905AC4203D8002003B0B8
:10AE2800BDE8F08308236A462146304618F0CFFB78
:10AE38000028F4D16946304618F03DFC40B1BDF811
:10AE48000230BDF8042005EA090513441D443C609E
:10AE5800A4EB0804E0E700BF0000FFFF73B5044659
:10AE68004FF6FF72C06A082118F01BFC00256368C2
:10AE78000F4EADF800208DF80620A289191833402E
:10AE88001344181A60606846ADF80210ADF8045013
:10AE980018F0FEFB6946204618F0CDFC2046211D1F
:10AEA80018F0CEFB284663683340A36002B070BD3B
:10AEB8000000FFFF2DE9F04704468AB000F11407AF
:10AEC80038461DF0C2F8A06A8368DB689847E062DC
:10AED80050B9864A0121864818F0BFFB6FF0150566
:10AEE80028460AB0BDE8F087A06A8368DB689847FF
:10AEF8000368013B1F2B01D97E4AEBE7A06A216852
:10AF080007AA1BF0D4FA08B17B4AE3E7A5892DB15B
:10AF1800089BB5FBF3F203FB12550DB1774AD9E74D
:10AF2800E389012B01D8764AD4E7E36A029593F8BE
:10AF380005904FF0FF334FF0FF32384614F066F8B3
:10AF48000821E06A18F0ADFBA8460646E3891FFA17
:10AF580085FA534508D8E389434523D1384614F088
:10AF680025F96FF02C05BBE7A1892B04891B13FA7F
:10AF780081F14A4608232046029118F036FB78B141
:10AF8800204602A918F05CFB08F1010808234A468C
:10AF9800204602991FFA88F818F027FB0028DAD013
:10AFA8000135D3E753450BD1029908234A46204679
:10AFB800891B18F01AFB18B9204602A918F040FBA3
:10AFC800204602A9FFF718FF054618B1384614F0C5
:10AFD800EDF885E7029B4FEA13484FEA084863609B
:10AFE800C4F80880D4E9011399420FD308232046F6
:10AFF80003AA18F0ECFA05460028E7D103AB13F8CA
:10B00800012B91453DD10135082DF8D163682046C3
:10B018001B0C1B0402A9029318F012FB4A46204697
:10B02800A389029918F0E1FA051ECFDB63687BD08B
:10B038004FF6FF7906EB0308A3891FFA88F29B1BDA
:10B048009A42CDF8088038D303212E4A284818F0B0
:10B0580004FB2046616818F002FB05460028B5D1BC
:10B068006368294AA18913400B44A3EB4603636034
:10B0780013402046A36018F006FC0546002D6FD04B
:10B08800A4E7204603A918F016FB626810B9921BC2
:10B098006260A7E7BDF81050BDF80E10E06AC4F86A
:10B0A8000880294418F0FDFA40449042A060EED18F
:10B0B800002DECD06FF01C057DE0082341462046AA
:10B0C80005AA18F084FA054600287FF47FAF2046C9
:10B0D80005A918F0F0FA38B1BDF814304B4503D182
:10B0E800BDF81830002B6CD0B044A5E71DB00200A5
:10B0F800C08B02003FB002005CB0020074B00200D6
:10B1080088B00200E5B002000000FFFF4A46204672
:10B118005B1A18F06AFA051EFFF658AF08D0E26A03
:10B12800A36812681344A360D4E901318B42EDD8B7
:10B138006168A38901EB46029A429FD1DFF8A88093
:10B14800A26801EA08039A4298D0204618F087FAC4
:10B15800054600287FF43AAF636803EA0803A36052
:10B16800A389A288A3EB46039A4220D0384614F05C
:10B178001DF80123A2892374E389032100921B4847
:10B188001B4A18F0E1FE63689AB200920321194A3B
:10B1980016481B0C18F0D8FEA3689AB20092032137
:10B1A800154A12481B0C18F0CFFE002598E62046D9
:10B1B80018F052FB0546384613F0F8FF002DD8D09A
:10B1C8008EE60E4A0321094818F047FA63682046BC
:10B1D8001B0C1B0402A9029318F032FA20460299AC
:10B1E80018F03DFA49E700BF0000FFFFC08B0200DE
:10B1F800ABB00200C2B00200D4B002000CB1020031
:10B208002DE9F04F1D46037C91B00446029100924F
:10B2180053B90121634A644818F01FFA6FF00C060D
:10B22800304611B0BDE8F08FC26A0821104618F008
:10B2380038FA29460190104618F033FAA389019A82
:10B248000746A3EB8203AB42C0F0A9801DB1009B67
:10B25800002B00F0A48063680593204606AA05A980
:10B26800DDF814A018F064FA06460028D8D1BDF815
:10B278001830029A934206D06268059B9A42ECD134
:10B28800002D36D1CCE7204606A918F014FA00287C
:10B29800F2D0BDF81A80BDF81C3045B39D4228D1C4
:10B2A8004FEA1A4A4FEA0A4AD044AA46E36ADDF846
:10B2B80000B01B685B4203F020030393DDF80C9099
:10B2C8004146D14528BFD14620464B4608AA18F02A
:10B2D8007EF900284AD14A46584608A91DF0CBF8FD
:10B2E80038B9BAEB090AC844CB44E7D198E7002B30
:10B2F80096D0002F3DD1B84604F1140A4FF0FF3222
:10B308004FF0FF33504613F081FEE3899E4243D04D
:10B31800A168626808EB01039A422FD3029B20467A
:10B32800ADF82030FF23009A8DF826302B46ADF873
:10B338002210ADF8245018F045FA29460746E06A6D
:10B3480018F0AFF9A3680344A36057B908A818F028
:10B358009FF9204608A918F06EFA002814BF07467E
:10B368002F46504613F022FF3E4659E7C1DC0646F9
:10B3780056E7019B1F441FFA87F8BDE72046FFF7F1
:10B388006DFD07460028ECD1204618F07CFA0746E8
:10B398000028E6D10136B8E76FF01B07E1E76FF048
:10B3A80015063DE709B00200C08B02002DE9FF47F2
:10B3B8001E46037C04460F469046BDF830904BB9B4
:10B3C8002C4801212C4A18F048F96FF00C0004B001
:10B3D800BDE8F0870821C06A18F063F9A389A3EBD8
:10B3E8004003B34243D30025D4F804A0CDF804A009
:10B3F8004D455146DDF804A009D9636853451ED16F
:10B40800BDF80830BB421AD06FF00100DFE72046D4
:10B4180002AA01A918F08CF90028D8D1BDF8083083
:10B42800BB4206D1204602A918F045F908B10135FA
:10B43800ADB26268019B9A42DAD15146E0E7BDF8A5
:10B448000C30002BE0D0A945DED8BDF80A00090C65
:10B45800B3424FEA014128BF3346014442462046E1
:10B4680018F0B5F80028B2D1BDF80C00AFE76FF0BE
:10B478001500ACE7C08B020009B0020010B530B966
:10B488000B480C4918F0D7FA6FF0150010BD836807
:10B4980033B90748084918F0CEFA6FF00400F5E709
:10B4A8001B6813B1BDE8104018471846EEE700BF07
:10B4B800C88B020028B1020039B1020010B530B9BA
:10B4C8000B480C4918F0B7FA6FF0150010BD8368E7
:10B4D80033B90748084918F0AEFA6FF00400F5E7E9
:10B4E8005B6813B1BDE8104018471846EEE700BF87
:10B4F800C88B020028B1020039B1020070B508B14A
:10B5080001B132B90B480C4918F095FA6FF01500E3
:10B5180070BD84680CB1E56835B90648074918F06C
:10B528008AFA6FF00400F3E741F8040BE368BDE81A
:10B5380070401847C88B020057B1020039B10200A9
:10B5480010B5044630B91048104918F074FA6FF075
:10B55800150010BD006830B90B480D4918F06BFA9A
:10B568006FF00100F5E783680BB11B6933B9064832
:10B57800084918F060FA6FF00400EAE76168984734
:10B588000028E6D12060E4E7C88B020083B10200FE
:10B5980094B1020039B1020070B51346044630B9BF
:10B5A8001048114918F047FA6FF0150070BD00688F
:10B5B80030B90C480D4918F03EFA6FF00100F5E774
:10B5C80082680AB1956835B90648094918F033FA0E
:10B5D8006FF00400EAE70A46AC466168BDE87040CF
:10B5E800604700BFC88B020083B1020094B102001B
:10B5F80039B10200034A13680BB95268136000207E
:10B60800704700BFA886002030B50C460E4985B0AB
:10B618000291D0F8D4110546CDE9003100F1F001CE
:10B628004FF0FF33204612F0DBFB50B9012384F8BA
:10B638006C30D5F8D03123B1204605B0BDE8304094
:10B64800184705B030BD00BF373B020038B50C467F
:10B658001146054618F06DFA034638B928460449DC
:10B6680018F067FA03460020236038BD0120FBE785
:10B67800FFBD02002DE9F04F0123814605694668A8
:10B6880087B005F55F77D7E8EF2F002A03D1C7E821
:10B69800E13F0029F7D10CBF1A46002240F0B080E4
:10B6A800B368B16A05F5F8781C1F104618F0C8FA97
:10B6B80084426ED8013A00F09D80B2FA82F24FF0CF
:10B6C8000044D44072682046073222F00302C5F8CD
:10B6D8003C22B16A18F0B4FAC5F84002B36A404691
:10B6E8006343033323F0030302EB4302230103EB19
:10B6F8004403093323F0030303EBC403C5F83422DE
:10B708001A440832C5F830227368C5F83842C5F8BB
:10B718002C323D4BC5E9AD63316800F0E5F90446CC
:10B72800002834D1D9F810B0D9F804A0D9F80030DD
:10B738000BF53479059004934846DAE90734012B70
:10B7480008BF103C14F0C0FBDAF824002F4904AB02
:10B7580001EB80214FF4806248460093234614F0A1
:10B76800CDFB2B490BF5307014F03AFADAE90501F4
:10B7780083685C684CB15B46264AA047044630B9EA
:10B78800DAE9050183681B692BB96FF057040021BA
:10B7980029E0013289E70122984704460028F6D1BA
:10B7A8001D4B2846C5F8D0311C4BC5F8D4311C4B6D
:10B7B8000393D5F840320293D5F83C32CDE90083A3
:10B7C80005F51173B26AD5F8781300F055F90446F7
:10B7D8000028DCD105F1F00012F0A8FB0028C5F81C
:10B7E80080030ADB0221384618F0D7F9204607B053
:10B7F800BDE8F08F6FF00B04C9E76FF01504C6E7DA
:10B808006FF07704F2E700BF8D3B020070B00020B4
:10B81800733B0200673B02002DB800001F3D020089
:10B82800D33B020013B5044640B100230122CDE901
:10B838000032074BD0E9091212F0A6FA236F1B68F1
:10B8480023B1606F02B0BDE81040184702B010BDC8
:10B85800FFBD020013B504460846216901F55F7172
:10B86800D1E8AF1F022910D193B1A0B10121CDE9D0
:10B8780000311346D0E9091212F086FA074B9842B4
:10B8880008BF6FF00B0002B010BD6FF00F00FAE7B1
:10B898006FF04C00F7E76FF00100F4E72EF8FFFFB8
:10B8A8002DE9F34789461546066906F55F73D3E81F
:10B8B800AF3F022B64D1136823B96FF0150002B0B3
:10B8C800BDE8F0871B78002BF7D0D6F878A3BAF13B
:10B8D800000F36D106F5EC774FF0FF324FF0FF330B
:10B8E800384613F093FB30462A6801A9FFF7AEFEED
:10B8F800019C80461CB9384618F04DF9DDE705F182
:10B90800080323676B6984F86CA06367646460B19B
:10B91800384618F040F921463046A36E2A68FFF7EA
:10B9280073FE0020C9F80040C9E71F22296804F106
:10B9380048001CF0C2FD384684F8678018F02BF9DF
:10B94800EFE73046104918F0F4F804460028B4D060
:10B95800002705F1080303676B6980F86C7043677B
:10B9680040641F22296848301CF0A7FD22460121A7
:10B97800304684F8677000F061F80028D1D09CE761
:10B988006FF00F009BE700BFFFBD020010B50C462B
:10B99800006900F55F73D3E8AF3F022B0FD189B17F
:10B9A8000A4900F5307014F001FA20461CF0ECF852
:10B9B8007822002120461CF056FD002010BD6FF0B3
:10B9C8000F00FBE76FF00100F8E700BF7C9E002046
:10B9D8002DE9F04F05460E4690460027D0F8C4A042
:10B9E80085B0AAF5BE7421463046FCF7CBFBE0B91A
:10B9F800114BA4F1480B0293DAF810303246CDE926
:10BA0800008329464FF0FF335846AAF5E27912F031
:10BA1800E7F960B97823012203FB079383F86C20C8
:10BA2800DAF80C300BB158469847783417B105B09E
:10BA3800BDE8F08F0127D6E74D3D02001FB514463B
:10BA480090B18AB1012912D10A4B00F1F001029399
:10BA5800D0F8D431483201934FF0FF332046009399
:10BA680012F0BEF904B010BD6FF01500FAE700201F
:10BA7800F8E700BF4D3D02002DE9F04387B00E46C0
:10BA8800DDE90E811446DDE910251F4630B329B3E0
:10BA9800DFF850C000F1F009002D08BF65469EB9D7
:10BAA800CDE9034400F5E274204605961CF024FA1B
:10BAB80003ABCDE900432A463B464146484612F0CF
:10BAC800F1FB07B0BDE8F083002241460E924846DC
:10BAD8002A4607B0BDE8F04312F034BD6FF01500F8
:10BAE800EFE700BFD9B90000F0B504462B4A87B08C
:10BAF80004AB0E4692E8030083E80300002C49D00B
:10BB0800184612F047F80546B0B94FF0FF33E16C1C
:10BB180004F15407A163CDE9010000933846236D71
:10BB280004F138021BF0E2FCA06C18F03AF9C4F8F2
:10BB3800BC0020B96FF00B05284607B0F0BDA06C1B
:10BB480018F02FF9C4F8C0000028F3D0236CD4F8FB
:10BB5800BC10C4F890300423C4F89430C4F8AC3056
:10BB68000223E3620E4BB4F84820C4F88C10616CD1
:10BB7800236204F18C03C4F8A070A4F89820C4F8D8
:10BB8800B870C4F8A810A4F8B020C4F8A400A6613E
:10BB98002363D1E76FF01505CEE700BFF48C0200F0
:10BBA8002898020030B5002289B00F490F481CF0D0
:10BBB800BAFB002200230024CDE906230E230C4DF6
:10BBC800CDE903344FF400622846CDE90144094B1E
:10BBD8000949009414F0C0FD084928461CF0E9FA08
:10BBE800204609B030BD00BF4DBD0000F8950020CB
:10BBF8006891002039C0000070B40020B9B102007B
:10BC08002DE9F047044607464FF00109DFF8508058
:10BC180014B93846BDE8F08794FAA4F5B5FA85F565
:10BC280009FA05F32E0108EB05156FEA030A24EA61
:10BC380003042B7B002BEBD058F806301B694BB95B
:10BC48004644736804222846196807EA0A0700F080
:10BC5800FBFADDE7284698470028D9D1F0E700BF6E
:10BC6800408C02002DE9F047DFF8B8902E4C804652
:10BC7800A9EB04038F2B0F460BD92C4940F2411333
:10BC88002B4A2C4817F0B7FA40F24111284817F010
:10BC9800A9FA294818F0D1F8064660B300252846C5
:10BCA800BDE8F087237B6BB12368DB680BB12046C6
:10BCB800984723681B69B3B963680422204619684A
:10BCC80000F0C2FA013610344C4518D91B494FF41C
:10BCD800A773174A174817F08EFA194817F08BFA06
:10BCE8004FF4A771D2E7204698470028E4D00AFA13
:10BCF80006F31D43E6E705464FF0010AE4E7D1D312
:10BD0800B8F1000FCBD0002DC8D02846FFF778FF38
:10BD18000546002FF7D000214FF4A47015F09EFBC4
:10BD2800F1E700BF508C0200408C0200EEB1020027
:10BD3800C1B1020065AB0200B89E00201EB202002D
:10BD48003FB20200014813F06DBC00BF048B002015
:10BD5800014B53F8200070476898020008B5034665
:10BD680008462BB1044A136000F03CFD002008BDD2
:10BD78006FF01500FBE700BFD486002010B5044C17
:10BD8800237813B9034813F04DFC0123237010BD29
:10BD9800F9A40020048B002010B50446094818F0C7
:10BDA8004CF83CB1084BD3E8EF1F0139C3E8E21F58
:10BDB800002AF8D105481CF0C2FABDE81040044832
:10BDC80013F030BCB09E0020B49E0020F8950020EF
:10BDD800048B002000200146034BD3E8EF0FC3E893
:10BDE800E21F002AF9D17047B09E002070B5FFF716
:10BDF800F1FF05460F4C104EB44219D90F4940F2D5
:10BE080001230F4A0F4817F0F6F90F4817F0F3F916
:10BE180040F201210A4817F0E5F963685B792BB114
:10BE280023685B6813B12946204698471034E3E736
:10BE3800F3D370BD408C0200508C02001EB2020089
:10BE4800C1B1020065AB02003FB2020010B5044C5C
:10BE580004492046FEF7FEF9034B1C6010BD00BFE5
:10BE6800048A002054980200A49E002008B50023EC
:10BE7800074A4FF400411370064A07481360074AFF
:10BE88001360FFF76BFFBDE80840FFF7DFBF00BF97
:10BE9800FAA40020B09E00203F3E0200B49E00207D
:10BEA8000146002200230148FEF706BA048A002052
:10BEB8000148FEF71DBB00BF048A0020024B014663
:10BEC8001868FEF79DBB00BFA49E00200148FEF73E
:10BED80009BC00BF048A002070B52E4B18780028D2
:10BEE80057D0FFF7E5FF054640B32B4BD3E8EF1FCC
:10BEF8000139C3E8E21F002AF8D1284C284EB44281
:10BF080018D9284940F2F513274A284817F073F939
:10BF1800274817F070F940F2F511234817F062F935
:10BF280063685B7923B12368294620461B689847D4
:10BF38001034E4E7F4D32846FFF7C0FF1D4B1E4C2E
:10BF48001B68002B19DD1CF0A7F94FF47A72A0FBCF
:10BF5800020302FB0131C30B43EA4143D4E9002049
:10BF68009B1A40F2E9324FEAD13161EB000193426A
:10BF780071F1000101D3FFF739FFD4E9003213F55D
:10BF88007A7342F10002C4E90032BDE87040FFF75D
:10BF98009DBF70BDF9A40020B49E0020408C020013
:10BFA800508C02001EB20200C1B1020065AB020053
:10BFB8003FB20200B09E0020F095002070B5154DEC
:10BFC800297829BB0120FFF74DFE134C134EB442CC
:10BFD80017D913494FF4DD73124A134817F00BF9B8
:10BFE800124817F008F94FF4DD710E4817F0FAF807
:10BFF80063685B791BB1236820469B6898471034B7
:10C00800E5E7F5D3FFF768FF0028FBD101232B7084
:10C0180070BD00BFFAA40020408C0200508C0200C2
:10C028001EB20200C1B1020065AB02003FB20200BD
:10C038002DE9F047304B314FFB1A1B090BD1304922
:10C0480040F29E332F4A304817F0D5F840F29E311F
:10C058002C4817F0C7F800210846FFF703FE0446EE
:10C0680050B340F267684FF000091CF0A1FA274B63
:10C07800274A1B58136033B1264B1B68092B02DD76
:10C08800254813F0CFFA0025DFF88CA044B12046EC
:10C09800FFF7B6FD044618B94FF0FF384FF0FF39E7
:10C0A800FFF71AFF064628B95DB942464B46504687
:10C0B80013F020FB3546E9E74FF0FF384FF0FF3922
:10C0C800D3E70D4D08E0F0D22B689B691BB1002225
:10C0D8002846114698471035BD42F4D90F4940F219
:10C0E8009233084A084817F086F80D4817F083F885
:10C0F80040F29231ACE700BF408C0200508C020045
:10C108005EB20200C1B1020065AB02000800000087
:10C11800AC9E0020B49E0020048B00201EB20200BA
:10C128003FB2020013B52C4817F087FE2B4B1B7843
:10C13800002B35D0EFF31184202383F31288BFF34B
:10C148006F8F274815F064FC68B98823254A26496B
:10C15800264817F050F82249254817F04CF888214E
:10C16800204817F03FF81E4815F076FCFFF7B4FE9C
:10C178001B4815F05BFC68B940F23113194A1D4998
:10C188001A4817F038F816491B4817F034F840F2E7
:10C198003111E5E784F31188BFF36F8F02B010BD4A
:10C1A800164B1B68002BF9D050B900220023144805
:10C1B800CDE900234FF40042002315F065FFEDE7B9
:10C1C8000928EBD10E481CF0BAF80E4802B0BDE8B9
:10C1D800104013F027BA00BFB49E0020FAA4002034
:10C1E800A89E0020ABAE0200D8AE020065AB0200EC
:10C1F800EDAE020003AF02001AAF0200AC9E0020B1
:10C20800F8950020048B002010B5064B04461B68E7
:10C2180098472146A0600448FEF712F9BDE810408F
:10C22800FFF780BFD4860020048A0020044A054B0B
:10C238009B1AB1EBD30F34BF52F83100002070477E
:10C24800088B0200408C02000E4B10B5C31A1B115C
:10C258000133DBB248B90C490C48DF230C4A16F00D
:10C26800CAFFDF210A4816F0BDFF446823714368FE
:10C278009A7101224368196043685A71BDE81040F9
:10C28800FFF77CBD408C0200FEB2020065AB0200E5
:10C29800C6B202002DE9F04F8FB0C1F34A2804AFAF
:10C2A8000D469146B8607B600C0DB8F1000F68D060
:10C2B80000264FF0040B4FF00A0A07F11403C7F8E1
:10C2C8000C80C7E907667E620193CDF808B0CDF807
:10C2D80000A007F11C0332464846F968FDF740FD07
:10C2E800B0F5006F03461CD36C468AB0D9F8041029
:10C2F80004AB2C481A46C3E9050140F2FF71D96125
:10C308004FF400711984284B42F8103F4FF4125132
:10C3180033462648FFF7BEFFA5462C37BD46BDE885
:10C32800F08FC0F30A0804F11700184420F0070042
:10C3380080083B60FFF7B4FD68F35325044640B31B
:10C348003B6800F11001C7E9083607F11403F961E9
:10C35800CDE900A3CDF808B04846154AF96807F1B9
:10C368001C03FDF7FDFC002813DA124912484FF4AC
:10C37800A373124A16F03FFF4FF4A3710F4816F04B
:10C3880031FF04F1170020F007008008FFF788FD4F
:10C39800044668F353252A4620467B68B96817F097
:10C3A80070FDBAE71EB3020004000001D08B020042
:10C3B8005F3E020089B3020065AB02005DB3020074
:10C3C800406820B1034BC01A40F3CF0070474FF0CC
:10C3D800FF307047088B02000EB403B503AB53F867
:10C3E800042B01460448019301F0C4FC02B05DF837
:10C3F80004EB03B0704700BF21C40000CA0605D48F
:10C408008B064CBF02490349FFF7E6BF704700BFE0
:10C41800FEBD020041A4020038B54B6805461A6803
:10C42800CB680C469A4202D1084617F0A7FD63680C
:10C43800D3E8EF2F511CC3E8E01F0028F8D1A36808
:10C448009D5463681A68E3689A4209D90549064801
:10C458007223064A16F0CFFE7221044816F0C2FE77
:10C46800002038BDC1B3020065AB020092B30200E0
:10C478002DE9F04F89B09B46149B9DF84CA006937C
:10C48800159B04460593169B0D469046179E0493EC
:10C49800BAF1000F00F0AD80BAF1040F0BD9A3492F
:10C4A80040F24623A24AA34816F0A5FE40F24621D0
:10C4B8009F4816F097FE06F48073079317F0C9FC9F
:10C4C80006F00209024600283FD020469A49FFF7A5
:10C4D80083FF0746B9F1000F08D016F0440F36D194
:10C4E8002A4620469549FFF777FF074406F00103DF
:10C4F80053B1934B204653F82A20924B9249002A75
:10C5080008BF1A46FFF768FF06F48073002B4AD06D
:10C5180006F00803002B64D1B8F1000F67D042463B
:10C5280020468A49FFF758FF0546069B3D44002BE5
:10C538006ED1049B002B40F08380F30700F1F0805C
:10C5480031462046FFF75AFFE4E00746C2E7804B32
:10C5580018680028C9D07F4B4FF47A791B684FF0D0
:10C568003C0CB5FBF3F5B5FBF0F14FF4616300FB50
:10C57800115509FB05F5B1FBF3F2B5FBF0FE03FB22
:10C58800121100FB1E55B1FBFCF309FB05F5B5FBC9
:10C59800F0F50CFB131120460091CDE901E56E4939
:10C5A800FFF71AFFA1E706F00803EBB16B4B204633
:10C5B80053F82A206A49FFF70FFF0546B8F1000F24
:10C5C80005D0424620466149FFF706FF0544BBF106
:10C5D800000FAAD05A4620466249FFF7FDFE0544DF
:10C5E800A3E74FF0000BE1E706F00805E6E745464C
:10C5F8009BE7BBF1010F069B06D1DBB9049B002B1F
:10C6080000F0888000251BE0002BF7D0564812E088
:10C6180056482246069B564916F07FFD00280CDA3C
:10C6280054494FF42873424A424816F0E4FD4FF447
:10C6380028713DE74D485546EBE7049B002B65D034
:10C64800DFF83481DFF83491049F3146102F2046FB
:10C6580028BF10274FF0000BFFF7D0FE5D4542DCE6
:10C66800059B494620461A78FFF7B6FE4FF0010BA6
:10C678001BF0070F03D141462046FFF7ADFE5F458B
:10C6880038D9059B4946204613F80B20FFF7A4FE2E
:10C698000BF1010BBBF1100FEAD14FF0000B204654
:10C6A8003749FFF799FE5A46059B20469A5CA2F146
:10C6B80020015F2928BF2E223249FFF78DFE0BF19A
:10C6C800010BBBF1100F1AD01BF0070F03D1414625
:10C6D8002046FFF781FE5F455A46E5D84146204689
:10C6E800FFF77AFEEBE741462046FFF775FE0BF1B0
:10C6F800010BB3E720462449FFF76EFEC8E7059B08
:10C708003B440593049BDB1B04939DD1BAF1000FB6
:10C718007FF413AF204609B0BDE8F04F17F02EBCE8
:10C728002046084A0849FFF757FE09E7F6B3020012
:10C7380092B3020065AB020001B4020005B4020026
:10C7480078980200F1B302005CC602002AB4020025
:10C75800C09E0020BC9E00200EB402008C980200EF
:10C768002EB4020034B402009F3F020021C400002E
:10C778007DDD000039B402003501030042B4020037
:10C7880048B4020059AA02003301030042F20F73B1
:10C7980073B58B4228BF0B460568044605216846D9
:10C7A8000D4A15F0ABFF0646636828460B225B6806
:10C7B8000A4917F0D5FB63683246694628465B6824
:10C7C80017F0CEFB63681B2228465B68044917F004
:10C7D800C7FB02B070BD00BFC9A1020066B4020069
:10C7E8004AB4020000210123064A904206D8064AAC
:10C7F80001B901231360054B1860704701214008F7
:10C808005B00F2E740420F00BC9E0020C09E002063
:10C818000122014B1A707047FBA40020014B002035
:10C8280019607047D89E00200148FFF7AFBF00BFCE
:10C83800BC98020010B5064B0C461868FFF788FA3A
:10C848002146BDE8104003460F220248184700BFA2
:10C85800D89E0020BC9802000122F8B5084B094D6B
:10C86800094E1A70D5E900470CB92C60F8BD21466D
:10C8780030463A4600F01EF8241A0644F4E700BF92
:10C88800FCA40020CC9E0020FDA4002010B9074B7A
:10C8980018707047064B1B781BB141F288301BF0AB
:10C8A80076BBA420002114F0D9BD00BFFBA4002052
:10C8B800FCA400202DE9F04780460E460424DFF84A
:10C8C80074901D4F99F80050A5B91BF053FB3246E0
:10C8D80082464146284611F07BFE054650461BF02D
:10C8E80051FBE5B101233B7099F8003073B930462C
:10C8F800BDE8F08732464146002011F069FE054642
:10C90800EFE72046651EFFF7C1FF2C46002011F017
:10C91800A3FE0028EBD03B78002BF2D1E7E73B7869
:10C92800002BE4D0013C2046FFF7B0FF3B78002BFA
:10C93800C8D1DCE7FCA40020FBA40020014B036065
:10C9480000207047CC98020070B5104B0D461C684B
:10C95800B4B10F4B196800238B4202DB6FF0010062
:10C9680070BD224612F8106B864202D0144601337D
:10C97800F2E7E0681BF00FFB28B100202C60EFE71E
:10C988006FF00C00ECE76FF01200E9E7F486002086
:10C99800CC98020010B5436888B0029383680C46AF
:10C9A800CDE9033200230A68C068CDE906230549AA
:10C9B80001AA059319F07FFD079808B9059B236024
:10C9C80008B010BD2740020002460B46014812F08D
:10C9D8001DBB00BFC48A0020014812F0E7BB00BF9E
:10C9E800C48A00202DE9F0410E4B05461C680E460E
:10C9F80017469CB14FF0FF304FF0FF31FFF7E4FFCF
:10CA080063682046D3F8108032463B462946C04723
:10CA18000446FFF7E1FF2046BDE8F0816FF001040E
:10CA2800F9E700BFDC9E002000230360044B5A682E
:10CA380012B9C3E90000704710605860704700BF22
:10CA4800E09E0020014B1860704700BFDC9E00206C
:10CA5800002330B585B0019005464FF0FF314FF007
:10CA6800FF30CDE90233FFF7AFFF094B1C6844B92B
:10CA7800284600F0EFF80446FFF7AEFF204605B061
:10CA880030BD636820461B6801A998472468EEE713
:10CA9800E09E00201FB5CDE901014FF0FF304FF0B7
:10CAA800FF310392FFF790FF074B1C6824B9FFF78B
:10CAB80093FF204604B010BD636820461B6801A997
:10CAC80098472468F2E700BFE09E00200022024B4E
:10CAD800C3E90022704700BFE09E00200022024BFD
:10CAE800C3E90022FFF7F2BFE89E00202DE9F743D3
:10CAF80007460C4609B100230B600026254DDFF8D8
:10CB080098904D4524D925499C23254A254816F057
:10CB180072FB254816F06FFB9C21214816F062FB3A
:10CB2800D5F800803846414601AA17F0BAFA50B144
:10CB380016B954B92E4606E000224046316817F06F
:10CB4800B0FA0028F5D11835DBE7019B2360F1E73F
:10CB5800E6D3164B1D68C5B155F8188C38464146C2
:10CB680001AA183D17F09DFA50B116B954B92E46CE
:10CB780006E000224046316817F093FA0028F5D104
:10CB8800AD69E8E7019B2360F1E7304603B0BDE8F3
:10CB9800F08300BF508C0200E08C0200D4B4020085
:10CBA800A2B4020065AB02003FB20200E89E00207A
:10CBB8002DE9F04784B002AFD7F8289004460D4617
:10CBC800164698467860B9F1000F07D0D9F80010DA
:10CBD80031BBD9F804A0BAF1000F28D12046391D7D
:10CBE800FFF784FF08B3D0F80C9043463246294635
:10CBF8007868C847C8B16D468AB002AA124BD0619E
:10CC0800C2E905344FF400731384104B42F8103F07
:10CC180000234FF411510E48FFF73CFBAD4604E0EA
:10CC28003A1D17F03EFA0028D3D1002007E0D9F8C2
:10CC3800083032460093294643467868D04708377B
:10CC4800BD46BDE8F08700BFFCB402000400000147
:10CC5800288C02002DE9F04780464FF00047002657
:10CC6800DFF8C490DFF8C4A03D46314C4C4530D9BC
:10CC7800304940F21113304A304816F0BCFA3048B7
:10CC880016F0B9FA40F211112B4816F0ABFA2F46FC
:10CC9800EAE7B8F1000F03D122694AB91834E5E789
:10CCA80000224146206817F0FCF90028F4D1F5E786
:10CCB8006368BB4205DDAF4209D09D42A8BF1D464F
:10CCC800ECE7EBD19047002E08BF0646E6E71D4685
:10CCD800E4E7DED3DAF8004004B3183CB8F1000FFB
:10CCE80003D122694AB9A469F6E7002241462068BF
:10CCF80017F0D7F90028F4D1F5E76368BB4205DDE2
:10CD0800BD4209D09D42A8BF1D46ECE7EBD1904734
:10CD1800002E08BF0646E6E71D46E4E7AF42B6D157
:10CD28003046BDE8F08700BFE08C0200E89E002096
:10CD3800508C0200D4B40200A2B4020065AB020019
:10CD48003FB2020038B50C4D4FF0FF334FF0FF32C1
:10CD58000A4812F05BF92B783BB9FFF7BFFE00F0E9
:10CD68006DF8044610B901232B700024034812F013
:10CD78001DFA204638BD00BF0DA50020C48A00203A
:10CD88002DE9F04706468946048FDFF8ACA0013448
:10CD980098B0A4B200F10807651EADB2B5F5004F12
:10CDA80047D04A23294605AA384616F03DFE04F521
:10CDB8007F543F34A4B280462146012338460DF102
:10CDC8000B0216F031FEB8F1000F014610DC002806
:10CDD80010DC338FAB4209D132466B1E22F8383F44
:10CDE8004FF4004102233846FEF70AFA2C46D3E7EF
:10CDF800002808DC2946384616F012FE2146384637
:10CE080016F00EFEE5E708F160030DEB03080023BA
:10CE1800524608F84C3C05A8CDF8009003AB0397A0
:10CE2800ADF81040FFF7C4FE0028DFD018B0BDE809
:10CE3800F0870020FAE700BF1B4102007FB50123FD
:10CE4800694605200193FFF77FFD044660BB052076
:10CE580002AA01A917F005F9044610B110F10C0F48
:10CE680022D10399B1F5803F23D200231846009AB6
:10CE78009468084484421AD30133082BF9D10E4D23
:10CE8800A982EB8253682846AB60D368EB6317F03E
:10CE9800D8F9044640B9094E28466E60FFF7C4FD2C
:10CEA80028466E60FFF7CEFD204604B070BD9BB2E9
:10CEB800E5E76FF02004F7E7F09E0020D886002011
:10CEC80008B5054816F081F9044816F07EF9BDE862
:10CED8000840034816F079B921B5020055B502009B
:10CEE80088B502002DE9F04706460C4600AF002938
:10CEF80036D0D1E90012E9468AB06D46A3684FF0F2
:10CF0800050AA8461F48C5E90723C5E9050148F8E9
:10CF180010AF002342464FF421511B48FFF7BAF9DE
:10CF2800D4E90312CD466369AD461848C5E907231D
:10CF3800C5E90501C5F810A0002342464FF4215168
:10CF48001148FFF7A7F9CD46E3690121104A0E48B9
:10CF580016F0F0FFA36901210E4A0B4816F0EAFF0C
:10CF6800012E07D1EFF305830B4A31460648103BE3
:10CF780016F0E0FF2146304611F0C0FBBD46BDE883
:10CF8800F08700BFB6B50200088C0200E5B50200C4
:10CF980014B6020023B6020051B6020030BFFFF7F4
:10CFA800FDBF00BF2DE9F04105460B4EDFF82C8090
:10CFB800324606EB0807CC1B204609491BF02CFA21
:10CFC800A01942460021083C1BF04DFA6C6707F196
:10CFD8000800BDE8F08100BF000000000800000064
:10CFE800E08C0200074A936893F90E10002907DBCA
:10CFF800526993421FBF044A536843F080535360F9
:10D00800704700BF6CA4002000ED00E070B5344C00
:10D0180006460D463348344917F053F9A36AD90632
:10D028004DD53048314917F04CF91120A36A1A0739
:10D0380004D52C482E4917F044F91220284CA36A2D
:10D048009B0712D52B49274817F03BF9636BA26A57
:10D05800110609D50121284A224816F06BFF1EB196
:10D06800A36A23F08003A36213201D4CA36ADA0786
:10D0780004D51C48214917F024F91420A36A9B06FB
:10D0880004D518481E4917F01CF91520144B9A6A44
:10D09800D60602D49A6A940713D59B6AD90610D586
:10D0A800184940F23313184A184816F0A4F81848DB
:10D0B80016F0A1F840F23311134816F093F8102037
:10D0C800B4E7074B9A6A920642BF5A6A22F40052A2
:10D0D8005A629A6A42F0FF029A6200232B7070BD6E
:10D0E80000ED00E0088C020064B602007AB6020087
:10D0F800ADB60200C0B60200D8B60200EEB6020015
:10D108000DB702006EB702003CB7020065AB020023
:10D11800B8B7020010B5244C2449254817F0D1F8B7
:10D12800A36A99013ED52248224917F0CAF81E2061
:10D13800A36ADA0104D51E481F4917F0C2F81F2058
:10D14800194CA36ADB0204D519481C4917F0B9F831
:10D158000220A36A1C0304D51548194917F0B1F831
:10D168002120114CA36A590304D51148154917F019
:10D17800A8F82220A36A9A0304D50D48124917F08B
:10D18800A0F82320084CA36ADB0304D508480F49FC
:10D1980017F097F82420A36A6FEA03436FEA134352
:10D1A800A36210BD1D20C3E700ED00E01CB802001B
:10D1B800088C020034B8020047B8020061B80200C7
:10D1C8008BB80200A9B80200CEB80200E8B8020085
:10D1D80070B5294C06460D462848294917F071F8BC
:10D1E800A36AD9043CD52548264917F06AF81720C0
:10D1F800A36A1A0504D52148234917F062F81820B4
:10D208001D4CA36A9B0512D51C48204917F059F8F4
:10D21800A36BA26A100409D501211D4A174816F00C
:10D2280089FE1EB1A36A23F40043A3621920124C9D
:10D23800A36A590504D51148164917F042F81A206F
:10D24800A36ADA050ED50D48134917F03AF81B20E2
:10D25800094A936A43F47F43936200232B7070BD9D
:10D268001620C5E7A36A9B04F2D504480B4917F0BA
:10D2780028F81C20ECE700BF00ED00E0088C020055
:10D2880013B9020029B90200ADB602003AB902008A
:10D2980053B9020068B9020083B902000DB7020051
:10D2A8002DE9F0478AB07F4B0546D3F804A088469D
:10D2B8001646002300AFCAF3080983F31188BFF3A9
:10D2C8006F8F02F07F43B3F17F4F0ED076494FF452
:10D2D8008563764A764815F08EFF764815F08BFF01
:10D2E8004FF48561714815F07DFF12F00104EDD10E
:10D2F800530604D4100708D44FF0010808E06E491B
:10D308006E4816F0DEFF710700D545464FF000085D
:10D31800002DDBD00023FB71A9F10303092B00F2D8
:10D328009E80DFE803F0059497779C9C9C9C9C9AD0
:10D338006349624816F0C5FF00235A4EFB71F36A31
:10D348009A0704D55F495D4816F0BBFF32E0F36ADF
:10D35800002B01DA5C49F6E7F36A5B006AD55B49A2
:10D36800564816F0AEFF7369AA6943F48073736177
:10D37800BFF34F8FBFF36F8F736932F8022C23F41A
:10D3880080737361BFF34F8FBFF36F8F4DF60273D6
:10D398009A4208D0B36ADBB27BB30120F91DFFF7CC
:10D3A80035FE044606E02B680121494A434816F039
:10D3B800C1FD2C68FB79E3B907F1080205F12006E5
:10D3C800134628686968083503C3B5421A46F7D179
:10D3D8007B6AB8F1000F5FD0C3F3080222B96FEA85
:10D3E80053236FEA43237B62204607F10801FFF7C6
:10D3F80079FD2837BD46BDE8F087B36A13F47F4F3F
:10D4080004D00120F91DFFF7E3FECAE7B36AB3F5BC
:10D41800803F02D3FFF77EFEC3E72E4940F2FA238E
:10D42800224A234815F0E7FE2B4815F0E4FE40F2A7
:10D43800FA2157E7274940F2FE231C4A1C4815F0F9
:10D44800DAFE264815F0D7FE40F2FE214AE7002012
:10D45800F91DA4E70020F91DD5E7214973E7214A02
:10D468006E461AF4F87F8AB01F4B18BF13466A46F7
:10D478001E49C2E90513A9F11003D3614FF40073E3
:10D4880013841B4B42F8103F00234FF411510B48F3
:10D49800FEF700FFB5468DE723F4FF7323F0010381
:10D4A800A1E700BF00ED00E0C9B902003CB70200E7
:10D4B80065AB0200DCB902001ABA0200088C02004F
:10D4C8003DBA020054BA020075BA020083BA0200DB
:10D4D800A2BA0200CAF30200BEBA0200E2BA02000F
:10D4E80012BB0200B0B902009BB9020036BB0200B1
:10D4F80004000001064B5A6942F010025A615A6949
:10D5080042F480625A615A6922F008025A617047EF
:10D5180000ED00E0EFF30880EFF3098101B57246F2
:10D52800FFF7BEFE01BD00BF002080F31488BFF3E3
:10D538006F8F002080F30A8880F30B880F4880F3F0
:10D54800088819F014FF00200D490860BFF34F8FB9
:10D5580000F02CF8202080F311880A484FF400616D
:10D56800401880F30988EFF314800221084380F300
:10D578001488BFF36F8F00F001F9000008DA00206B
:10D5880094ED00E0C8CC0020002318460649D1F8E5
:10D598009020C2F30722934200DB7047C1F898300D
:10D5A800C1F8A0000133F6E700ED00E010B572B64F
:10D5B800002484F31388FFF7E7FF23464FF0FF307A
:10D5C8000C4A03F120010133102B42F82100F8D155
:10D5D80000234FF0FF30074A03F160010133102B9D
:10D5E80042F82100F8D162B6BFF34F8FBFF36F8FB7
:10D5F80010BD00BF00E100E0084B9B6883420BD1DF
:10D60800EFF3058343B1064B5A6842F080525A60E3
:10D618005A6A22F400425A6213F0B2BF6CA4002086
:10D6280000ED00E018498A6882F881E04FF0300088
:10D638001044EFF3098C80E8F01F202080F3128853
:10D64800BFF36F8F114F4FF000664A698A603E60E2
:10D658004FF07404141920680D4C206092F981E091
:10D66800906F0023936780F3118802F1300090E8EF
:10D67800F01F8CF3098802F1000004B516F02BFEA8
:10D68800BDE80440704700006CA4002004ED00E0F1
:10D69800309F00201EF0040F0CBFEFF30880EFF35B
:10D6A8000980816911F8021C0229FFD001B5724670
:10D6B80016F0FCFD01BD00BF40B2002807DB0123C6
:10D6C8004109034A00F01F00834042F821307047A7
:10D6D80000E100E040B200280CDB012206494309C2
:10D6E80000F01F008240203341F82320BFF34F8F02
:10D6F800BFF36F8F704700BF00E100E0054B4209A0
:10D7080053F82220012300F01F0003FA00F0104014
:10D71800704700BF00E100E038B54B1C072B0446FA
:10D728000D460FD95823104A1049114815F063FDCA
:10D73800294610480723224615F05DFD58210A485E
:10D7480015F050FD40B20028ACBF00F160400A4A15
:10D758004FEA4313DBB2ABBF00F5614000F00F00A6
:10D7680080F80033135438BD49BB020080BB020067
:10D7780065AB02009BBB020014ED00E00B4A08B544
:10D788000B4B22F07F029A60BFF34F8FBFF36F8F6E
:10D79800D3F8882022F47002C3F8882011F0D6F854
:10D7A80014F062F900F04CF811F010F90080000054
:10D7B80000ED00E042F8203C009B0D4942F81C3C7B
:10D7C800019B21F0010142F8183C029B42F8081C19
:10D7D80042F8143C4FF0807342F8043C00238367FE
:10D7E8004FF43C43203A0265C0F88030704700BFD0
:10D7F80029A2000000B50B4B15469860426F0A4BF2
:10D808000E461A60436E83F30B882C4686F309880C
:10D818000020064B98472046002100220023044C94
:10D82800204700BF6CA40020309F0020E742020080
:10D8380029A200001022014B1A61704700ED00E098
:10D84800002320210348C2180133452B82F8001316
:10D85800F9D1704700E100E008B5EFF30583064A07
:10D86800103B02EBC30152F8330049688847BDE812
:10D878000840FFF7B7BB00BF908702001FB5094CEF
:10D88800094A23460121094800F012F900230393AD
:10D89800074B0121E41A01A80193029400F02CF926
:10D8A80004B010BD0000072000800020409902004D
:10D8B800288D002010B50C7A0B6804F01F0223F0A5
:10D8C8001F031A43CB68640923F01F03054943EA81
:10D8D800440343F00103C1F89800C1F89C20C1F843
:10D8E800A03010BD00ED00E010B50A4BD3F8903021
:10D8F800C3F30723013B984208D901210346064A8E
:10D90800064816F017FB6FF0150010BDFFF7D2FFA1
:10D91800FBE700BF00ED00E0DFBB0200F08B020078
:10D928002DE9F04F8946144606464FF00008514D40
:10D9380085B0C84527DAD6F804A0BAF1000F44D05C
:10D94800BAF11F0F17D91AF01F0F14D1D6F800B06B
:10D958001BF01F0F0FD1584616F0FDFC07460AEBC7
:10D968000B00013816F0F7FC874210D06FF015074E
:10D97800414A3B4601E04346404A0121404816F0EF
:10D98800D9FA6FF01504204605B0BDE8F08F17F1FD
:10D99800160FEDD0BC42EBDDC5F89870D5F89C1099
:10D9A800C5F89870D5F8A03021F01F0143F01F0B7F
:10D9B800D6E900321A44994202F1FF3A1DD1D34503
:10D9C80007D13146F8B216F0CFFC08F101080C3641
:10D9D800AFE73146C5F89870D5F89C3022F01F02A1
:10D9E80003F01F031343C5F89C30E0B216F0BCFCEB
:10D9F80010F1160FC5D0441CE7E7C5F89870D5F8A4
:10DA0800A020013B23F01F0302F01F021343D3455C
:10DA18003146E0B2C5F8A030E8D016F0A5FC10F108
:10DA2800160FAED0C5F89870D5F89C209DF8083030
:10DA38000BF1FF3B62F304038DF80830D5F8A030F2
:10DA48009DF808205B0863F347128DF80820D6E993
:10DA580000321344009323F01F035B44A3EB0A0333
:10DA6800013023F01F036946C0B20393FFF73CFF60
:10DA7800BEE700BF00ED00E028BC020005BC0200C4
:10DA8800F08B02000522044BC3F89420BFF34F8F9C
:10DA9800BFF36F8F704700BF00ED00E0BFF35F8FEB
:10DAA8000022024BC3F89420704700BF00ED00E04D
:10DAB80038B50C4D0C462A78FFF732FF287016301F
:10DAC8000FD140F26F13084A0849094815F093FB33
:10DAD8002146084815F08FFB40F26F11024815F0F7
