:10000000D8600020CD1A000001600000B91A00007D
:10001000B91A0000B91A0000B91A0000B91A000094
:10002000000000000000000000000000711B000044
:10003000B91A000000000000B91A0000B91A000047
:10004000BD1C0000BD1C0000BD1C0000BD1C00004C
:10005000BD1C0000BD1C0000BD1C0000BD1C00003C
:10006000BD1C0000BD1C0000BD1C0000BD1C00002C
:10007000BD1C0000BD1C0000BD1C0000BD1C00001C
:10008000BD1C0000BD1C0000BD1C0000BD1C00000C
:10009000BD1C0000BD1C0000BD1C0000BD1C0000FC
:1000A000BD1C0000BD1C0000BD1C0000BD1C0000EC
:1000B000BD1C0000BD1C0000BD1C0000BD1C0000DC
:1000C000BD1C0000BD1C0000BD1C0000BD1C0000CC
:1000D000BD1C0000BD1C0000BD1C0000BD1C0000BC
:1000E000BD1C0000BD1C0000BD1C0000BD1C0000AC
:1000F000BD1C0000BD1C0000BD1C0000BD1C00009C
:10010000BD1C0000BD1C0000BD1C0000BD1C00008B
:10011000BD1C0000BD1C0000BD1C0000BD1C00007B
:10012000BD1C0000BD1C0000BD1C0000BD1C00006B
:10013000BD1C0000BD1C0000BD1C0000BD1C00005B
:10014000BD1C0000BD1C0000BD1C0000BD1C00004B
:04015000BD1C0000D2
:1001540053B94AB9002908BF00281CBF4FF0FF312A
:100164004FF0FF3000F00CB8ADF1080C6DE904CE8F
:1001740000F008F8DDF804E0DDE9022304B070477C
:10018400704700BF2DE9F04786468C460846089E16
:10019400154674461946002B40F0C1808542B2FAD8
:1001A40082F245D94AB1C2F1200300FA02FC95401B
:1001B40094402EFA03F343EA0C0C4FEA154EA8B20E
:1001C400230CBCFBFEF80EFB18CC08FB00F943EA39
:1001D4000C43994528D9EB1808F1FF3704D2994507
:1001E40002D9A8F102072B44A3EB0903A4B2B3FB81
:1001F400FEFC0EFB1C330CFB00F044EA0344A0425B
:1002040014D92C190CF1FF3304D2A04202D9ACF159
:1002140002032C44241A43EA07401EB1D4400023AD
:1002240034607360BDE8F0874746DDE76346F1E775
:1002340092BB431B01214FEA154EAFB2200CB3FB16
:10024400FEFC0EFB1C330CFB07F840EA0343984505
:1002540061D9EB180CF1FF3004D2984502D9ACF106
:1002640002002B44A3EB0803A4B2B3FBFEFC0EFB79
:100274001C330CFB07F744EA0344A7424DD92C195D
:100284000CF1FF3304D2A74202D9ACF102032C448F
:10029400E41B43EA0040C0E7C2F1200395409440C8
:1002A40020FA03F12EFA03F34FEA154E9040AFB251
:1002B4000343B1FBFEFC0EFB1C10190C0CFB07F8EE
:1002C40041EA0041884522D969180CF1FF3004D273
:1002D400884502D9ACF102002944A1EB08019BB284
:1002E400B1FBFEFC0EFB1C110CFB07F743EA0143B8
:1002F4009F420ED9EB180CF1FF3104D29F4202D970
:10030400ACF102012B44DB1B41EA004193E7604658
:10031400E3E76146F7E76046A4E76346B8E783424C
:1003240006D916B9002108467CE7C6E900E0F9E7DA
:10033400B3FA83F78FB9834201D3724508D8BEEB71
:10034400020460EB030301209C461EB9002169E707
:100354003846FAE7C6E9004CF8E7C7F1200CBB4081
:100364000EFA07F522FA0CF42EFA0CF1BA401C43EB
:1003740020FA0CF3B8404FEA144901431FFA84FEF3
:10038400B3FBF9F809FB18300B0C08FB0EFA43EA2F
:1003940000439A4540D9E31808F1FF3004D29A4546
:1003A40002D9A8F102002344A3EB0A0389B2B3FBE8
:1003B400F9F809FB183308FB0EFE41EA03418E45A8
:1003C4002CD9611808F1FF3304D28E4502D9A8F163
:1003D4000203214443EA0040A1EB0E01A0FB029872
:1003E4004145CE46434602D306D14D4504D2013899
:1003F400B9EB020E68EB0403002EA7D0B5EB0E0296
:1004040061EB030101FA0CFC22FA07F3F9404CEA10
:100414000303C6E9003199E74046C5E74346D9E7F7
:10042400F0B5434B434A4921C2F80036C2F80436BA
:10043400C2F80836C2F80C36C2F81036C2F81436C0
:10044400C2F81836C2F81C3602F58052C2F80036DB
:100454003948C2F8043687B0C2F80836C2F80C36F8
:10046400C2F81036C2F81436C2F81836C2F81C3670
:1004740005F01FFD00F092F800F0DEFA054603A82F
:1004840000F04EFD0446284600F0E6FA2B4B1B68AC
:10049400A34205D045212A4805F00BFD05F0B5FB24
:1004A4004921059A274805F004FD039926484B7D08
:1004B4000A7DC98A0091492105F0FBFC49212348A2
:1004C40005F0F7FC4FF44041002002F0EBFD044638
:1004D40020B145211E4805F0ECFCFEE702A99DF879
:1004E400100000F039F8029B059D1D44039B1E89F2
:1004F40002F0C0FDAF1900F0ABFD00F0F7FD00F015
:1005040079FD00F093FD84F30B8884F30A88AB59DA
:1005140083F3088884F31488BFF36F8FBFF36F8F5E
:100524007B68984745210B4805F0C3FCFEE700BFF4
:100534003546526E0080015088800000080000207B
:10054400A1800000C4800000F3800000118100003D
:100554003681000069810000024608B538B10548BB
:100564000023452105F0A5FC6FF0150008BD0860C7
:10057400FCE700BF8C81000021B1012906D06FF097
:1005840015007047044B53F830007047024B03EBDF
:10059400C0035868704700BF887C00004FF4C05106
:1005A400014803F0D5BA00BFD01700202DE9F04F61
:1005B4009B46F7B0864B0746DDE9818936A80E468F
:1005C40014461D6806F084FF002136A803F0F8FBEA
:1005D400B8F1000F07D0B9F1000F04DD4A464146D7
:1005E40036A806F07EFF4FF0000833897289D6F8EA
:1005F4000CA013449A44C24566D80CA936A806F048
:10060400AFFF36A806F068FF839B23B1202218466B
:100614000CA905F058FD00232246009331464FF6FD
:10062400FF7306A805F0F9F9804600285CD121463D
:1006340038460B9E05F09EFA864255D84FF0FF3699
:10064400DFF890A1DFF890910DF1120304AA05A937
:1006540006A805F030FA002846DB40F0AF80059983
:1006640006A805F074FA50B94FF6FF71BDF81200F0
:100674005A4A32F8023B8B4236D09842F9D1BDF83F
:100684001270102F3AD0202F74D0012FDCD1BDF876
:100694001030202B28D82046059936AA05F017FCDF
:1006A400064608BB9DF810B0BBF1200F09D8D9F855
:1006B40000304B4F0393039B1CA89E423DDB06F086
:1006C4000BFF4FF0FF36BFE7809BAAEB0809994563
:1006D40028BF99465A464B464146204605F0F7FB4B
:1006E40028B136A806F0F8FE394B1D6869E04A4681
:1006F400594636A806F0F5FEC8447CE7BDF81070EC
:10070400202FF1D13B462046059936AA05F0DFFBA0
:100714000028E9D100F090F93A46804636A90CA8A1
:1007240000F072F90746404600F096F9DAF8003016
:10073400BB42D9D14FF0010886E706F0C9FE00217B
:100744001CA803F03DFB7A681CA8126857F8081B24
:1007540006F0C7FE14A91CA806F002FF5A4636A9E3
:1007640014A805F089FC18B91CA806F0B5FE6BE7BF
:100774000136A0E7731C3FF467AFD9F80030B342E9
:100784009FDDBDF81030B3F5807FADD120460599CB
:1007940036AA05F09CFB0028A6D100F04DF9F6B26C
:1007A40083463946BDF8103036AA00960CA800F0EE
:1007B400B9F80546584600F04FF982E7B8F1000F42
:1007C40092D000F041F9284677B0BDE8F08F00BF21
:1007D4000400002008000020907C00003480000009
:1007E400947C00002DE9F047894619464B4BADF542
:1007F400AE6D1E68DDF89035B3F5807F40F08680DD
:10080400202A40F083805CAA03F092FA0446002870
:100814007CD19DF86F32BC2B78D10DF19008DF2785
:10082400454601900AA806F053FE00210AA803F0E9
:10083400C7FA20220DF24F210AA806F052FE042224
:100844000AA80DEB020106F04CFE02A90AA806F064
:1008540087FE202FBA46A8BF4FF0200A9DF8073024
:1008640040460133524602A9A7EB0A078DF8073028
:1008740005F029FC002FD044D4DC0AA806F02CFE95
:10088400AC462946DF225CAB087813F8017B013AB9
:1008940080EA070001F8010BF6D12B7803F07F03FF
:1008A4002B701CF8017B8FBB0134BE2CF9D195F859
:1008B400BE30012B2AD10AA806F00AFE39460AA83E
:1008C40003F07EFA082216490AA806F00AFE4946F1
:1008D40020220AA806F005FE20220DF24F110AA8D4
:1008E40006F0FFFD02A90AA806F03AFE0AA806F0DF
:1008F400F3FD00F0A1F8202204460DF24F2102A8D6
:1009040000F082F80646204600F0A6F800F09CF8B5
:1009140030460DF5AE6DBDE8F08700BF0400002041
:10092400B28100002DE9F04F1F46A3B0344B80463E
:1009340004A89DF8B0501E688946924606F081FDD1
:100944000922012104A803F0B5F92E4B03AA53F898
:10095400354003EBC5035B6802941B6802A81C4482
:100964002146302305F058FE00283FD1DDE902324C
:1009740013449C423AD1214606AA02A805F060FE1F
:10098400002833D10DF1200B5A46214602A805F068
:1009940057FE054650BB06A806F000FA029B0590D8
:1009A4009C4223D12B462A46CDE9005B06A904A824
:1009B40006F004FDD0B904A803F094F9B0B906A870
:1009C40006F0ECF9059004A806F045FD87420DD128
:1009D40000F032F8534604464A464146009704A8BC
:1009E400FFF700FF0646204600F036F804A806F09C
:1009F40034FD00F029F8304623B0BDE8F08F00BF85
:100A040004000020947C000070B5094B04461D6866
:100A14000023934205D1074B1D6800F015F82846C2
:100A240070BDE65CC85C8642F7D10133F1E700BFD4
:100A34000400002008000020024B1868421C1A60C1
:100A4400704700BFE0010020024A1368013B1360B5
:100A5400704700BFE0010020034B1B68834201D0B4
:100A640005F0D3B8704700BFE00100202DE9FF472F
:100A74002C2505FB01052F6A044638460E4605F071
:100A84006FFA6B1EEA1C13F8011F81420ED19342C8
:100A9400F9D1294B1C68FFF7D7FF204604B0BDE805
:100AA400F087264B1C6836E0254A40E02C2373432C
:100AB400E2181169C806ECD4E058224B9842F0D1F0
:100AC400D06813891B18ECD25289D218E9D2BB68BA
:100AD4009A42E6D240F60C6A11EA0A0AE1D1FFF71B
:100AE400ABFF8046FFF7A8FF4FF4807381463A4678
:100AF400294600932046144BCDE902AACDF804A060
:100B0400FFF754FD04464846FFF7A6FFFFF79CFF96
:100B14004046FFF7A1FF0D4B1B68A342BBD0002E3C
:100B2400C2D0BA680021384605F0FBF9084A4521CD
:100B3400084805F0BEF9ACE70000002004000020DE
:100B4400BA8100003DB8F396D02F002008000020A1
:100B5400C2810000CC8100002DE9F84F88469146FF
:100B64009A460026DFF88CB0234D244C0B9B9E4202
:100B740001D300200FE00B9B40469F1BB7F5806F0D
:100B840028BF4FF480671B4A3B4606EB0A0105F079
:100B94009EF910B10120BDE8F88F0A993B465A46E8
:100BA4004846711805F0A8F90028F3D1144BC5F88C
:100BB40000463E44C5F80446C5F80846C5F80C4648
:100BC400C5F81046C5F81446C5F81846C5F81C46BD
:100BD400C3F80046C3F80446C3F80846C3F80C46F5
:100BE400C3F81046C3F81446C3F81846C3F81C46A5
:100BF400BCE700BFE4010020008001503546526E7E
:100C0400009001502DE9F0430E460021A14B04460B
:100C1400436203F500638BB003650846FFF7ACFC41
:100C240004F120010546C0B200F0ACFD48B1002338
:100C34002A46452101900093974805F03AF904F0BB
:100C4400E4FF01210020FFF797FC04F14C01054665
:100C5400C0B200F097FD50B101232A46452101900E
:100C640000938D48002305F024F904F0CEFF2046BC
:100C740004F0F3FF054660B90021204604F0D8FFD4
:100C84000546F8B100225721844805F012F90123E2
:100C94005DE04FF480725721814805F00AF9012381
:100CA4009D4284F85830E7D194F85830042B8DF8DD
:100CB4001F304FD8012B4FD800F0C280FF2384F897
:100CC4005830BDE0204600F045F90028DFD006A8E2
:100CD40004F0E5FF04F0ECFF014618B9204604F0E7
:100CE400A7FFD4E79DF81F70012F1ED1284602F0FC
:100CF4006DFA831E022B054614D8FFF79DFE394674
:100D040080462046FFF7B2FE07464046FFF7A4FEA2
:100D1400644B1B689F4205D0634B1D68AF4214BFF0
:100D24000525012584F85850BEE7FFF785FE01210B
:100D340007462046FFF79AFE05463846FFF78CFE25
:100D4400584B1B689D4214BF05239DF81F3084F83F
:100D54005830A9E7052BAFE700252F46012105AA46
:100D64002046059504F009FF2A4649214F4805F01D
:100D7400A0F849214E4805F09CF8236A03A9187885
:100D840000F000FD012004A900F0FCFCD4F8288048
:100D9400B84512D0636A294603EBC703D3F804901D
:100DA40003984A4605F0BDF8059B4D449D426ED319
:100DB400E56DB3FBF5F305FB0355E06D04F0D5FEDB
:100DC400A26A636A013A196803EBC20300225F68EE
:100DD4009C463A449042A3F10803F8D8DCF800306A
:100DE4000398591A05F09DF82B46002249213148F1
:100DF40005F05FF8DDE90321002320460195009307
:100E0400FFF7AAFEE0B9039802F06AF90146B8B9FF
:100E1400236D04985A6805F084F8D4E91423013B3F
:100E240052F8331002EBC30013684268C91A0498DD
:100E340005F077F8039805F049F8049805F046F8AA
:100E440094F85830FF2B05D145211B4805F031F8A3
:100E540004F0DBFE002194F85830184F012B059163
:100E64002ED0204604F0E4FE50B33D681022002149
:100E740006A805F033F9E06C05F028F8206A05F0BF
:100E840025F8FFF7E1FD28460BB0BDE8F0830137F4
:100E94007EE700BFE4050020F481000083820000A7
:100EA400418200000800002000000020AF82000002
:100EB400E4820000028300004C8300000400002050
:100EC400FFF7BAFD002180462046FFF7CFFD054617
:100ED4004046FFF7C1FDDFF84080D8F800309D425E
:100EE400C3D13B689D42C0D00C4B1B689D42BCD013
:100EF400059B01330593059B012B01D004F085FE6E
:100F0400206A04F088FD3071236A5B683460D8F885
:100F14000050B360AAE700BF0800002000000020D2
:100F240070B50B4E044660220021304605F0D6F819
:100F3400FFF782FD214605463046FFF763FE04466F
:100F44002846FFF789FDFFF77FFD204670BD00BFEF
:100F5400E4150020F8B5D0F828C0466DBCF5807FB4
:100F640002D8B6F5807F36D957211F4804F0A1FF77
:100F74000020F8BDAC4216D1476A07EBC2077F6870
:100F840001323C44076D07EBC3077F6801333D44DE
:100F94009445EFD89E42EDD8944501D19E4220D08D
:100FA40057211248E2E70CD2476A022907EBC2072D
:100FB4007F683C4402D157210D48D7E70121013213
:100FC400E6E7076D012907EBC3077F683D44F2D0CC
:100FD40002210133DCE700210B460A460D460C468C
:100FE400D6E70120C5E700BF58830000BE83000098
:100FF40087830000BFF36F8F72B600234FF0FF307A
:10100400094A03F120010133102B42F82100F8D1E1
:1010140000234FF0FF30044A03F160010133102B29
:1010240042F82100F8D1704700E100E0002318469F
:101034000649D1F89020C2F30722934200DB70479F
:10104400C1F89830C1F8A0000133F6E700ED00E0E4
:101054002DE9F8434FF0FF3501274FF00008204BEE
:10106400DFF880905F60C3F84853C3F8085303F572
:1010740080535F60C3F84853C3F8085359F8044BCE
:10108400002644F30730C4F8085300F08FFD802293
:101094006760C4F84C61D4F84C31C4F81061D4F8DA
:1010A4001031C4F844613146D4F84431A018C4F86E
:1010B400006505F013F88022314604F5C07005F090
:1010C4000DF8B8F1000F08D0074BC3F808554FF0DE
:1010D4005023C3F80853BDE8F8834FF00108CDE767
:1010E40000400150A07C0000007001504FF4F02239
:1010F4000021014804F0F2BF00800020014B1B686E
:10110400184700BF0C00002007B50B46002102461B
:101114000091034800F006F803B05DF804FB00BF3B
:10112400011100002DE9F04F82464FF000098DB007
:101134001D46531E01910393039B58785C1C25287C
:1011440019D100204FF0FF381E46444603460236AC
:10115400029031780396392955D81F2914D80029CB
:1011640000F0EF8101992520D04701993078D047CC
:1011740009F10209E0E7002800F0E3810199D04772
:1011840009F101090394D7E7A1F12002192AE9D84A
:1011940001A757F822F000BF0512000069110000F2
:1011A4006911000005120000691100008512000099
:1011B4006911000069110000691100006911000043
:1011C400D11200000512000069110000E5120000B0
:1011D40091120000691100009F120000BF1200006C
:1011E400BF120000BF120000BF120000BF120000B7
:1011F400BF120000BF120000BF120000BF120000A7
:1012040008460136A5E7582900F0EB80A1F16302F6
:10121400D7B2172FA6D8172AA4D801A757F822F0B7
:101224008D1400000B130000691100006911000007
:1012340069110000EB1200000B130000691100009B
:1012440069110000EB12000069110000691100002F
:1012540069110000C1130000691100006911000048
:1012640061140000691100000B13000069110000F3
:1012740069110000C113000069110000EB120000A5
:1012840025200199D04709F1010955E7029A4FF049
:10129400000802F0FE020292B3E7002C0DDAB8F166
:1012A400000F0DDA029A002A00F043810A2224EA90
:1012B400E47402FB0414303CA3E7B8F1000FF5DB3F
:1012C4000A2202FB0812A2F130089AE7B8F1000FD3
:1012D40055F8042B80F22F81002A80F22E8154428B
:1012E400022202928DE7682903D1682B06D1482394
:1012F40087E76C2902D16C2B00F02181002B7FF44D
:1013040031AF0B467DE77A2B06D1752955F8046B6E
:1013140014D14FF0000B0CE06C2BF6D04C2BF4D115
:10132400073525F00703752903F10805D3E9006B98
:1013340006D120283BD1854F013C09E04FEAE67BEA
:10134400BBF1000FF5DA7642814F6BEB4B0B013C9E
:101354000DF12D03059300230493304659460A22C8
:101364000023FEF7F5FE059BB446303203F8012D49
:101374005A460593049BBCF10A0F8B4672F1000296
:1013840003F1FF3106460491E7D2C3F1010B303378
:101394000DEB0306B8F1000FA6F104066DDA029B0B
:1013A400D9077DD4A8EB0B03A4EB0B0413E02B2883
:1013B4000ABF684F684F04F1FF34C9E770290FD1A1
:1013C40055F8042B0023FAB96FF004034FF0050B12
:1013D400614F624E053C029A920770D4A04666E0C3
:1013E40078216C2B03D1002355F8042B08E04C2BF7
:1013F400F9D1073525F007031D465B6855F8082B1E
:10140400232825D1880621D5554F023C002601F01A
:101414006001A1F1390B0DF12D0E02F00F01092924
:1014240088BF594430310EF8011D102A4FEA1211B9
:1014340041EA03714FEA131C73F1000306F1FF3014
:1014440008D2C6F1010B06F13003A1E7454FDCE7F2
:10145400414FDBE706460A466346DEE755F8046B70
:10146400304604F002FEB8F1000F834602DB40452B
:10147400A8BFC3464FF00008374FA8EB0B03002B5F
:1014840092DDA4EB0804A6E755F8043B4FF0010BEA
:101494008DF81830304F4FF0FF33013C06AE9AE719
:1014A400A046EAE7029320200199D047029BB8F1B5
:1014B4000108F7D524EAE472013C9144A41AB84621
:1014C40006E0049302920199D047029A049B904645
:1014D400424612F8010B0028F3D11A46013A15D5F9
:1014E400002BACBFC7EB03077F425B46013B15D51E
:1014F400BBF1000FA8BF5F4426464F44013E14D5FC
:10150400002CA8BF3F1907EB080915E604930292C3
:1015140030200199D047049B029ADFE70293019996
:1015240016F8010BD047029BE0E701992020D04731
:10153400E4E70122D5E6904663E6144661E64C23CF
:101544005FE648460DB0BDE8F08F00BFFC840000A4
:10155400FA840000FE840000578300000685000022
:1015640000850000038500002DE9F047058B044643
:101574002807904611D4022905F0070540F0CC80D5
:10158400204604F0BEFB78B10138218B042811D821
:10159400DFE800F0C2106D85950001290CBF45F00D
:1015A400100545F02005258388F31188BFF36F8F5C
:1015B400BDE8F08701F0070AAA4500F0A5800027DE
:1015C400B9463E46A368002B00F0BC8041F00801F8
:1015D400218388F31188BFF36F8FA168002900F07D
:1015E400BA800D68002900F0B68033465246204682
:1015F400D1F80480C047002D76D02B6829461D46BB
:10160400F0E701F007035A1F012A1BD8002221F03A
:101614000701062B276889B2C4E9002209D13B4699
:1016240003E0628B013262831B68002BF9D141F025
:1016340002012046218304F064FB00287AD041F0A3
:10164400200176E0042B0AD121F0070189B220465B
:10165400218304F056FB10B141F020012183218B3A
:1016640001F0070AAA454FD00027B946AAE7236923
:1016740021F0070141F00601062DD3F800902183E3
:101684002DD1B9F1000F3FD041F00801218388F337
:101694001188BFF36F8F20463949C84729E021F0EC
:1016A4000701236941F0040189B2042DD3F80490A1
:1016B4002183E6D000274FF0040A3E4682E721F05A
:1016C4000701236941F0050189B2052DD3F808907B
:1016D4002183D6D000274FF0050A3E4672E7002743
:1016E4004FF0060A3E466DE72B4687E7B9F1000F37
:1016F400D1D1EFF31188202383F31288BFF36F8FC6
:10170400238B23F008032383258BEA062ED525F0AB
:101714001003238305F007056669218B002EBFF6AD
:1017240070AF00232768C4E9003321F0070141F0BA
:1017340001012183218B4FF0000901F0070AAA451A
:101744007FF440AF002F9CD041F00801218388F33F
:101754001188BFF36F8F002FC8D03D6839463346D8
:101764005246204604F0F9FA2F46F4E7AB067FF51B
:101774001BAF25F02003238305F0070500E700BF16
:101784008B5D000070B5104B0D461C68B4B10F4B57
:10179400196800238B4202DB6FF0010070BD224602
:1017A40012F8106B864202D014460133F2E7E06867
:1017B40006F02EF828B100202C60EFE76FF00C0043
:1017C400ECE76FF01200E9E710000020A87C0000AD
:1017D40010B5436888B0029383680C46CDE90332A0
:1017E40000230A68C068CDE90623054901AA0593C8
:1017F40004F00BFD079808B9059B236008B010BDE1
:10180400735F000008B5054804F06EFA044804F05C
:101814006BFABDE80840034804F066BA0C85000082
:101824003D85000070850000014803F0EDBF00BF56
:101834008C7D000030BFFFF7FDBF00BF154B9A6AD7
:1018440012F0007F9A6A14BF1E201D2012F0807FC0
:101854009A6A18BF1F2012F4801F9A6A18BF0220C8
:1018640012F4002F9A6A18BF212012F4802F9A6A6A
:1018740018BF222012F4003F9A6A18BF232012F4E2
:10188400803F9A6A18BF24206FEA02426FEA12422C
:101894009A62704700ED00E010B5194B0246986A51
:1018A4009C6A10F4805F14BF1720162014F4006F94
:1018B4009C6A18BF1820A40509D5986B986A00047F
:1018C40004D51AB19A6A22F400429A6219200C4B88
:1018D4009A6A12F4806F9A6A18BF1A20D2050CD43F
:1018E4009B6A13F4005F18BF1C20054A936A43F4F3
:1018F4007F43936200230B7010BD1B20F5E700BFEC
:1019040000ED00E010B51C4B0246986A9C6A10F08A
:10191400100F14BF1120102014F0080F9C6A18BF78
:101924001220A40709D5586B986A000604D51AB189
:101934009A6A22F080029A6213200F4B9A6A12F07C
:10194400010F9A6A18BF142012F0200F9A6A18BF68
:101954001520D40658BF9B6A074B9A6A920642BF69
:101964005A6A22F400525A629A6A42F0FF029A6258
:1019740000230B7010BD00BF00ED00E070B5444BB8
:1019840006465B6800258AB0C3F3080385F3118813
:10199400BFF36F8F02F07F40B0F17F4F11D102F09F
:1019A4000C0008280DD010074CBF0E46012500225C
:1019B400033B8DF80720032B05D8DFE803F01E5CFA
:1019C40060592E46F3E700249DF807309BB9202286
:1019D400314602A804F077FB099B002D53D0C3F3D2
:1019E400080222B96FEA53236FEA4323099320467E
:1019F40002A904F0F9FA0AB070BD254BDA6A91071E
:101A0400E1D4DA6A002ADEDBDA6A5200DBD55A69ED
:101A1400B16942F480725A61BFF34F8FBFF36F8F85
:101A24005A6931F8021C22F480725A61BFF34F8F55
:101A3400BFF36F8F4DF60272914209D09A6AD2B207
:101A440042B101200DF10701FFF75CFF0446BBE73B
:101A54003468B9E79A6A12F47F4F05D001200DF17A
:101A64000701FFF719FFF1E79B6AB3F5803FAAD39B
:101A7400FFF7E4FEEAE700200DF10701E4E70020A8
:101A84000DF10701EDE723F4FF7323F00103ADE744
:101A940000ED00E0064B5A6942F010025A615A699F
:101AA40042F480625A615A6922F008025A6170470E
:101AB40000ED00E0EFF30880EFF3098101B5724611
:101AC400FFF75CFF01BD00BF002080F31488BFF363
:101AD4006F8F002080F30A8880F30B880F4880F30F
:101AE400088802F055FA00200D490860BFF34F8FB3
:101AF40000F01AF8202080F311880A484FF400619E
:101B0400401880F30988EFF314800221084380F31E
:101B14001488BFF36F8F00F081F80000D8600020B4
:101B240094ED00E0D830002072B6002383F31388CC
:101B34004FF0FF300C4A03F120010133102B42F81F
:101B44002100F8D100234FF0FF30074A03F1600170
:101B54000133102B42F82100F8D162B6BFF34F8F46
:101B6400BFF36F8F704700BF00E100E01EF0040F69
:101B74000CBFEFF30880EFF30980816911F8021CB0
:101B84000229FFD001B5724604F034FA01BD00BF4A
:101B940040B2002807DB01234109034A00F01F007B
:101BA400834042F82130704700E100E040B2002851
:101BB4000CDB01220649430900F01F008240203358
:101BC40041F82320BFF34F8FBFF36F8F704700BFDF
:101BD40000E100E0054B420953F82220012300F004
:101BE4001F0003FA00F01040704700BF00E100E05E
:101BF40040B2002801F10101ACBF00F16040064B86
:101C04004FEA4111C9B2ABBF00F5614000F00F00CB
:101C140080F800131954704714ED00E00B4A08B51E
:101C24000B4B22F07F029A60BFF34F8FBFF36F8F8D
:101C3400D3F8882022F47002C3F8882003F0AAFCA9
:101C440003F0ECFC00F02CF803F0B0FC0000000002
:101C540000ED00E0154680B506460C46002282F3EE
:101C64000B88094FA7F5205888F30B8887F3098858
:101C74004FF0000005498847204629461A46B047D8
:101C840003488047FEE700BFD860002019600000C9
:101C9400276000001022014B1A61704700ED00E03C
:101CA400002320210348C2180133452B82F8001376
:101CB400F9D1704700E100E008B5EFF30583064A67
:101CC400103B02EBC30152F8330049688847BDE872
:101CD400084004F09AB900BFA479000007B50DF1DB
:101CE400070002F079FA114B98421CD14FF480623C
:101CF4000F4B1049C3F8B8254FF40062C3F83C25D4
:101D04009DF8070005F0D5FC0B499DF8070005F088
:101D1400CBFC01209DF80730984002F057FA0020D0
:101D240003B05DF804FB6FF00B00F9E70000AD0BA6
:101D340000A002502CA0025028A10250054B03EB36
:101D44008000D0F8003223F0E04343F04053C0F861
:101D54000032704700258450012208B50A4B0B4914
:101D6400C3F8002502230020C1F8D036FFF7E6FFB0
:101D74001046FFF7E3FFC1F80427C1F80429C1F8AE
:101D8400002B002008BD00BF001000500040005090
:101D9400052370B5144D154E2C780134B4FBF3F3C0
:101DA40003EB8303E41A04F097FB114A137823B17D
:101DB40056F82430C01A072814D94FF05023D3F80A
:101DC400141141B10021C3F81411D3F814312C704B
:101DD4000CB9012313702C7804F07EFB46F8240020
:101DE400012070BD0020FCE7D13000204416002003
:101DF400D030002048B1054B054A1B68B3FBF2F311
:101E04005843044B43F00103184770472400002053
:101E140040420F00807C00000149024803F0C0BF2B
:101E2400947D0000581600204FF47F032DE9F04103
:101E3400D3F830210646072A0D46D3F8343120D191
:101E4400023B032B02D8124AD35CD3B14FF0502487
:101E54004FF0010800270520C4F81886C4F814764A
:101E640005F020FC4046C4F8148605F01BFCC4F8B9
:101E74001476C4F8187630462B46BDE8F0410021AC
:101E840018474FF050230022C3F81426F3E700BF8D
:101E94009E850000084B70B5C31A0D4607499B1078
:101EA400044659434022064804F032F92B460146C1
:101EB4002046BDE87040184788160020B76DDBB691
:101EC40040790000402373B50B4C0093041B0B4670
:101ED4000D460A49A41061430646094A094804F01C
:101EE40042F9011E05DA30462B4602B0BDE87040C7
:101EF400184702B070BD00BF88160020B76DDBB66E
:101F0400D96100004079000010B5EFF3118420235B
:101F140083F31288BFF36F8F074A136823F002011B
:101F2400DB07116002D4012005F0C8FB84F311889B
:101F3400BFF36F8F10BD00BF281700202DE9F843B1
:101F44000022012106460520FFF752FE114802F047
:101F5400D5F9114B984219D102F0E0F900244FF061
:101F64001C090C27DFF834803569414609FB04500D
:101F740003F016FF002807DB012307FB04551C446C
:101F8400042CAB67F0D10020BDE8F8836FF00400A7
:101F9400FAE700BF692000000000AD0BA07D00003F
:101FA4000C22104B014602FB0033002030B4D3E96D
:101FB4001C521867EFF31180202484F31288BFF3B6
:101FC4006F8F9C6F04F0C00444F002049C6780F39C
:101FD4001188BFF36F8F1DB12B4630BC02481847E0
:101FE40030BC7047881600204079000010B4EFF32D
:101FF4001182202383F31288BFF36F8F174801687F
:1020040041F002040460C80707D482F31188BFF3C7
:102014006F8F012010BC02F099B94FF05021D1F814
:102024000C04D1F80C14C907EFD5EFF3118083F336
:102034001288BFF36F8F0A498B6F03F0C00343F01C
:1020440002038B6780F31188BFF36F8F82F31188CB
:10205400BFF36F8F002010BCFFF7A2BF281700202A
:1020640088160020092813D8DFE800F005101212A2
:10207400121212120E0C074B986F10F0070007D1C2
:10208400FFF78EBF0220FBE70320F9E70120F7E703
:10209400704700BF881600202DE9F8430122074647
:1020A4003449D1E8EF3FC1E8E02F0028F9D133B932
:1020B400314932484B60CB608A6003F084FE7B1E5A
:1020C400012B2DD8012F07D14FF05023D3F81C3406
:1020D40003F00303022B23D005F0DCFB054608BB09
:1020E400274B1B78F3B14FF0502302220646C3F866
:1020F40008234FF050244FF00008DFF88890D4F8FC
:102104001824D4F81834D20315D503F00303022B92
:1021140001D0012F0FD135B386F31188BFF36F8F30
:10212400BDE8F883EFF31186202383F31288BFF30D
:102134006F8F0125DDE7304603F07BFFD4F81835B7
:10214400DBB2012BDBD1D4F80421002AD7D0C4F8A8
:102154000481D4F804210222C4F818252022C9F8E5
:102164008021A360CBE74FF050230222C3F804235D
:10217400D6E700BF8416002074160020A4160020A1
:10218400D530002000E100E000F1744000F5A60025
:102194000A289ABF024B33F910006FF00F00704702
:1021A40052800000024B0B6001231360704700BF94
:1021B400487E000000487047DC7D000002224FF09A
:1021C400502310B5084CC3F8B82522785AB1D3F877
:1021D400B83503F00303022B05D10021012002F0DE
:1021E4001DF90023237010BDD43000200268154B64
:1021F400FF2A08BF4FF0FF32C3F824254268FF2AA4
:1022040008BF4FF0FF32C3F828258268FF2A08BFB1
:102214004FF0FF32C3F83025C268FF2A08BF4FF0E1
:10222400FF32C3F834250269FF2A08BF4FF0FF329A
:10223400C3F838254269FF2A08BF4FF0FF32C3F8BC
:102244003C25704700B0025038B50F4B0446994204
:102254000FD1EFF31180202383F31288BFF36F8F24
:102264001D46237833B10023237080F31188BFF314
:102274006F8F38BD03F0DDFEEFF3118085F3128814
:10228400BFF36F8FEDE700BF0000AD0B38B54FF023
:1022940050250023C5F8B835084C072005F0B3FADB
:1022A40023784BB9D5F8B8359B0705D101210846E9
:1022B40002F0B4F80123237038BD00BFD4300020ED
:1022C4002DE9F04F824688461C46174685B0002A01
:1022D40000F09180002B00F08A800029C0F28B80EE
:1022E4004268CB18D26A934200F28580C8F1000597
:1022F40005F00305006904F02AF8A54228BF254625
:102304007B4203F0030307F0030658BF5E427642A4
:1023140006F00306A64228BF2646631BA41B24F02E
:10232400030423F00309A145C8BFA14603F0030B2E
:10233400C8BFA3EB040BB9F1000F18D0BB1908EB0D
:10234400050249461846019305F056FA044601462B
:10235400DAF81000FFF778FF284A94423DD1B542DD
:1023640005D0019B4A461946781903F095FEC5B17C
:10237400C5F104060421A8EB060202A805F03CFA04
:1023840004460146DAF81000FFF75EFF1B4B9C423F
:1023940023D106F108032A4638460DEB030103F066
:1023A40092FEBBF1000F17D0082108EB05024A4446
:1023B4000DEB010005F020FA04460146DAF810009E
:1023C400FFF742FF0D4B9C4207D109EB05005A462B
:1023D40002A9384403F077FE084CDAF8100003F041
:1023E400ACFF204605B0BDE8F04FFFF7CDBE184660
:1023F40005B0BDE8F08F6FF01500F9E70000AD0BF4
:102404002DE9F3470F4605461E4690464168002ACB
:1024140079D0002B77D0042B01D9B30773D117F0EF
:10242400030470D1002F6EDBCA6ABB1993426AD8C9
:10243400286903F08CFF204603F06AFF044648B184
:10244400012003F065FF286903F077FF204602B0FE
:10245400BDE8F087032E1ED804213A460DEB010097
:1024640005F0CAF9044601462869FFF7EDFE274B3B
:102474009C4235D13246414601A803F024FE042192
:102484003A460DEB010005F0B4F90446014628690B
:10249400FFF7DAFE24E008F06043B3F1005F02D1F5
:1024A40018F0030F2BD0DFF864A0042EB14628BF28
:1024B4004FF0040941464A4601A803F004FE3A4697
:1024C400494601A805F095F9044601462869FFF735
:1024D400BBFE544504D1B6EB0906C8444F44E4D1CD
:1024E4002046FFF751FE0446012003F011FF064683
:1024F400286903F022FF002C08BF3446A6E73A46B9
:1025040031464046BFE76FF015049FE70000AD0B6E
:102514002DE9F047C1F30B0307460E461546D0F8E4
:1025240004C0002A67D0C2F30B0050EA030462D14E
:10253400002960DB8B18DCF82C2093425BD83869C7
:1025440003F005FF2046D7F8048003F0E1FE0446BB
:1025540000284AD1DFF8A490D8F82C30AB4216D129
:1025640005F04DF9AA46044621463869FFF76CFE8A
:102574004C4521D15644A5EB0A0503F0AEFE041EDA
:1025840030DB14F00104F8D1002DE5D118E0B5F5E5
:10259400803F09D3B3B2D3B93146012002F02AFFF8
:1025A4004FF4803A0446DFE7B5F5805F0FD2144953
:1025B4003869FFF749FE124C2046FFF7E5FD044653
:1025C400012003F0A5FE002C08BF04460DE0C6F36D
:1025D4000B000028EBD1314602F00CFF4FF4805A77
:1025E4000446C1E7012003F093FE386903F0A5FE19
:1025F4002046BDE8F0876FF01504F9E70000AD0B45
:102604000400AD0B2DE9F047436890B05D6B0646BE
:10261400002128460AAA03F040FF041E74DB0A9B2B
:102624002A681979186800F097FA041E6CDB0022F6
:1026340001212B20FFF7DCFAFFF728FE77683269C7
:1026440038465B4902F030FEFFF79EFD041E54DB62
:10265400584D4FF000080FCD0AAC0FC495E80300A5
:10266400AB230DF1040984E80300CDF80480C9E923
:1026740001888DF80430504B0AA8D3F8242504AD02
:10268400D2B20492D3F82825D2B20592D3F83025D9
:10269400D2B20692D3F83425D2B20792D3F83825B1
:1026A400D2B20892D3F83C35DBB20993FFF79EFD12
:1026B400012002F077FE01462846FFF797FD3F4BC5
:1026C400994225D14146484603F0D6FD041E14DB49
:1026D400232005F098F84FF0030A9F2341460AA8E7
:1026E400CDE90A88CDF81090CDF814A08DF82830E3
:1026F4000C9503F0C1FD041E0DDAFFF75FFD02F037
:102704006FFE08B102F05AFE204610B0BDE8F08713
:102714006FF00404F1E75246494607F1300003F034
:10272400ABFC002840D17268537F023B012B1BD9BC
:10273400167F023E022E8CBF0026012603F0CDFD3B
:10274400041EDADBC4F380108642E2B20ED1002309
:10275400CDE90A330C93B72301210AA88DF8283058
:1027640003F08AFD0446C8E70126E7E700230121B8
:1027740082F040020AA8ADF800300A938DF80020D8
:10278400CDF810D005910C938DF828100B9503F01B
:1027940073FD041E06D103F0A0FD041EADDBE307A8
:1027A400F9D4D4E7D3DAA8E76FF01204A5E700BFA1
:1027B40067620000507C000000B002500000AD0BC6
:1027C400024B0B6001231360704700BF2C170020DD
:1027D40000487047507E000010B504F0F7FF034C2A
:1027E400206004F0F0FF6060002010BD2C17002072
:1027F400F8B50E461946304617461D4603F0B5FD9A
:10280400B8B145EA060414F0030412D14DB12B19F2
:10281400032BA6EB040006D8074AD2F80034DB07E2
:10282400FBD50020F8BD3B1B196802F0CBFA043C31
:10283400EDE76FF01500F5E700900350F0B5406840
:1028440001F01F04057B87B044EA45140569002D97
:1028540063D0B2F5001F00F1100506D121462846C9
:1028640004F0ACFF002007B0F0BD0027B2F5800FE4
:1028740001AE0197776039D1B3F1007F14BF05230E
:1028840004238DF804300023CDE9046303938368A3
:1028940023FA01F111F001011AD1B2F1A07F17D18D
:1028A40004F01F03620903F180032AD0012A3AD1FC
:1028B4001E4A52F82330DB070AD40DF103063246D0
:1028C4002146284602F0B6F8194B98421BD00296CE
:1028D4002146284603AA01F069FF164B98421FD1EE
:1028E40001222146284602F007F9BBE7B3F1C06F85
:1028F40005D0B3F1007F14BF01230223C1E70323F2
:10290400BFE70D4AD5E73146284602F0EFF8094BF8
:102914009842DCD06FF00B00A5E76FF08500A2E7CA
:102924006FF015009FE751F82330FFDE0028845034
:102934000400AD0B0000AD0B0025845038B545688C
:102944002B69B3B11035284602F0C0F8044680B9AB
:102954000146284602F088F8084B98420BD12246DB
:102964002846074902F060F8224605210D20FFF7AA
:102974003FF9002038BD6FF00400FBE70000AD0B09
:10298400892900004209034670B502D0012A17D0F4
:1029940070BD0D4E326951680029F9D0012503F04C
:1029A4001F030C689D400029F2D08A682A4002D097
:1029B40030464B6898472CB1236821461C46F2E701
:1029C400024EE7E72346F8E76879000054790000EF
:1029D4002DE9F04340F206354668D00648BF03208F
:1029E400337B02EA050558BFC2F3401087B001F0FB
:1029F4001F07B5F5837F144647EA43178DF8030094
:102A040044D00FD8062D18D007D8B5B1022D3FD029
:102A14006FF0150007B0BDE8F083B5F5807FF7D1FE
:102A240001250AE040F20222954233D0B5F5407FF9
:102A340032D0B5F5007FEBD102250123220303FA3E
:102A440001F12BD573689960326972BB07F01F03DB
:102A54007F0928D0012F75D13C4A02EB830284F40C
:102A64008033D2F80012C3F30043C4F3404444EA71
:102A7400430421F4706144EA800421F00F0144EA24
:102A840005230B43C2F800320020C3E70725D4E72F
:102A94000425D2E70525D0E70325CEE7630344BF29
:102AA4007368D960D0E72A4AD7E7103639463046EA
:102AB4000DF1020201F0BEFF14F4403F80460CD138
:102AC4003946304604F078FE224B9845DCD1304636
:102AD4009DF8021002F004F8D6E74FF0000901ABAC
:102AE4003946304603AACDE90439CDE90199CDF838
:102AF4000C9001F05BFE174B984289D114F400331B
:102B040015D09DF8033084F48034C4F300448DF868
:102B14000E3039464B46304603AA8DF80C508DF8DA
:102B24000D4001F0FFFE0B4B9842CDD070E7CDE98C
:102B3400043339460DF10303304603AA039301F02D
:102B440035FEF0E7803352F82330FFDE002884504E
:102B5400002584500000AD0B2DE9F04F8C46002673
:102B640040F2FF18DFF8F090DFF8F0A0DFF8F0B0E3
:102B7400DFF8F0E0F3B29C4502D80020BDE8F08F06
:102B840050F82610C1F3C324082CC1F3080357D806
:102B9400090E1D39434508BF4FF0FF3319F804509F
:102BA400052950D8DFE801F0032934373A3DC2F84B
:102BB40024355C1C1FD0002450F8261003F01F0796
:102BC40011F4004F18BF00245B0937D0012B3DD10D
:102BD400734603EB8703D3F80072C1F341212D023E
:102BE40044F0020445EA8105E4B207EA0A072543F2
:102BF4003D43C3F800520136BCE7C2F82835591CDE
:102C0400F9D0590910D0012916D000239B60FFDEAA
:102C1400C2F83035CDE7C2F83435CAE7C2F83835E2
:102C2400C7E7C2F83C35EAE70D4F012403F01F0162
:102C340004FA01F1B960BFE77746F6E75B46C8E7F7
:102C44006FF015009AE76FF0850097E7002380374F
:102C540053F82730DBE700BF08860000F0F0FCFFE4
:102C640000258450002884500123834070B5DC4340
:102C74000B4AD2E8EF1F01EA0405C2E8E65F002E22
:102C8400F7D14FF4803282400648C0F80823BFF3DE
:102C94005F8FBFF36F8F0B4214BF0120002070BD04
:102CA400501700200050015070B40E4922F07F46A6
:102CB400D1E90034D01AC31844F10004C1E9003446
:102CC400A6F50013B3F5400F09D2074B1B681A0A87
:102CD4001B069C19054B42F10005C3E9004570BC75
:102CE40002F0E6BC480100205417002050010020E7
:102CF400D9B101230D4A8340D2E8EFCF4CEA030C4B
:102D0400C2E8E1CF0029F7D14FF48033084A834069
:102D1400C2F80433074BD3E8AF3FC340DB0742BFDD
:102D24004FF40012044BC3F80021704750170020E1
:102D3400005001504C17002000E100E00D4B1868D2
:102D4400010A0006BFF35F8F0B4BD3F80435181844
:102D540041F10001B3F5801F0AD2084BD3E90023E7
:102D6400904271EB030303D210F1807041F1000132
:102D7400704700BF5417002000500150500100203C
:102D84002DE9F04F85B016461F4604469DF840A035
:102D9400FFF76AFF0190FFF7D1FFB04271EB070321
:102DA40052D23B4B301A67EB0101984271F100019A
:102DB4004DD2384B03EB0413D3E902239F4208BFDF
:102DC400964258D04FF48038334908FA04F8204624
:102DD40026F07F4BC1F8488303F072FB4FF00309E0
:102DE400584604F15005AD00ADB205F1502504F587
:102DF400A87305F580350293029A20F07F4341F8C9
:102E04002230C1F84483D1F80435244AC01A033867
:102E140020F07F4090422ED9286868B1D1F804355B
:102E2400A3EB0B0020F07F40B0F5000F039322D9F1
:102E3400204603F045FB039BBAF1000F07D109EBD1
:102E4400030009F10109D7E7BAF1000F09D06FF0C7
:102E5400150520460199FFF74BFF284605B0BDE84C
:102E6400F08F01230E4AA340D2E8EF0F1843C2E8C3
:102E7400E10F0029F8D107490E982301C8500F9B90
:102E840001EB04120025C2E902675360E1E700BFC9
:102E9400010080003801002000500150FDFF7F0038
:102EA4004C1700207FB500254FF0FF304FF0FF3165
:102EB400194C1A4B0226C4F80833C4F84833184B8B
:102EC400C4F80855C3E902014FF480334FF40012EB
:102ED400C4F80433134B0121C4F804631520C3F868
:102EE40080212A46FEF784FE1520FEF751FE0123B9
:102EF4000D4AA360236013600C4B0D4A00932846CF
:102F04000023CDE90155FFF73BFF3046FFF7C4F836
:102F1400284604B070BD00BF0050015003000F00EC
:102F24003801002000E100E050170020AD2C000023
:102F3400FFFF7F002DE9F7432E4BD3F804239007BE
:102F44000BD5D3F8042142B10022C3F804212A4A44
:102F5400D3F80431136801331360264AD2F80433DA
:102F6400D90326D5254BD3E8EF1F21F00100C3E890
:102F7400E40F002CF7D1CB0702D4D2F84031C3B10F
:102F840000251C4CC4F84051D4F84031FFF7D6FE5C
:102F9400EFF31182202383F31288BFF36F8F184B52
:102FA400D3E90267B042B94106D282F31188BFF374
:102FB4006F8F03B0BDE8F0834FF0FF38D3E9001002
:102FC4004FF0FF391D60C3E902894FF48033C4F820
:102FD4004833C4F84051D4F8403182F31188BFF328
:102FE4006F8F0029E5D0009032463B46284688473B
:102FF400DFE700BF00500150541700204C17002099
:103004003801002030B5431C124C85B005D08442F1
:10301400A8BF0446012CB8BF0124FFF78FFE0E4B56
:103024000C4DD3E90013401AB0F5000F0FD222184B
:10303400AA4228BF2A46002052180849CDE90100B7
:10304400009143F10003FFF79BFE05B030BD2A4613
:10305400F1E700BFFFFF7F0048010020AD2C000016
:1030640008B5FFF76BFE024B1B68C01A08BD00BF12
:1030740048010020012310B5074C15206360FEF7BA
:1030840095FD4FF40012054BC4F80833C4F84833D7
:10309400034BC3F8802110BD0050015003000F0002
:1030A40000E100E040EA0103C3F30D0330B58BB93E
:1030B40040F21515094C890BC0F38730994201D1B0
:1030C400002030BDC218D2B202F5C07244F82250BA
:1030D4000133F3E76FF01500F3E700BF0030005051
:1030E40030B5816885B0103921F00704054602F037
:1030F40037FF10220146684602F0F0FF10226846AE
:10310400064902F0E0FF10236A462146284602F0F1
:10311400F3FE003818BF012005B030BD6880000000
:1031240030B50D46816887B0102302AA10390446D1
:1031340002F0CDFE002802DA012007B030BD1022D3
:10314400204602A903F0EBF900283AD110221E49C7
:1031540002A802F091FF00280CBF012302232B7068
:10316400204603F0C8F9012301460DF10702204669
:1031740002F0ADFE0028DFDB9DF80730204603F0A7
:103184000F021B096A702B7101220DF1070103F074
:10319400C6F910B96B78042B03D901236B70002393
:1031A4002B71A2682046183A22F00702083AA91C9B
:1031B40003F0C8F90028BFD12046E91C03F0DEF96A
:1031C400BBE70323CBE700BF68800000F0B5354FB1
:1031D40085B046000546694657F8260003F0D4F941
:1031E400044610B1FF2005B0F0BD013657F82600A3
:1031F40002A903F0C9F9012837D12A4649212A48EE
:1032040002F057FE294B8DF80C40029300229DF8E2
:1032140000609DF80870264C3146207803F071F95F
:1032240050B33946607803F06CF928B3A378042BC3
:1032340003D09DF8031099421ED1E378042B03D0E8
:103244009DF80B10994217D12379042B10D1627980
:10325400022A1DD1174B18482A46492102F029FE9B
:103264006079831E022BBED9BCE70028CED0B9E713
:103274009DF802109942EAD00132032A04F10604AF
:10328400CAD10E482A46492102F013FE0120AAE7BA
:10329400032A05D00A4B0B49042A08BF0B46DAE778
:1032A400094BD8E7887E000034860000030103033D
:1032B400C9860000168600007F860000A3860000F1
:1032C4001B8600002D86000011860000044B1B683D
:1032D400584043085B4240421843C017704700BF40
:1032E400581700208842F0B504D00025084F043850
:1032F400AA4200D1F0BD3E6850F8044F5E4024EA73
:10330400060451F8256001351E4034430460EFE79C
:10331400581700202DE9F04F8DB01D46189B8346A9
:10332400B3F12A3F8A46179F1A9E059240F08D807A
:103334003946169803F097F9012838BF0120470948
:1033440000F01F044FF001097B01502B34BF4B46A2
:1033540003230A9309FA03F30B930A9B059805FACE
:1033640003F306EB8303069303EB8503079303F050
:1033740052FB4FEA8508424600210890304602F08D
:10338400ADFE079BC6F800900393089B3146CDE938
:103394000153059B3046199A009306EB08092B4606
:1033A40003F04AFB51464246484602F08CFE022393
:1033B400494609930B9B099A934248D142463146A8
:1033C400584602F080FE4FF00009CA46079B5A4651
:1033D4000393089B5946CDE90153059B5846009336
:1033E4002B4603F029FB002C47D11F24013F169BD9
:1033F4000AF1010A53F82730E34003F0010343EADA
:1034040049090A9B534503D0002CDFD1002FDDD19D
:10341400189BB3F12A3F32D1424609FB0861069852
:1034240002F051FE079B59460393089B5846CDE989
:103434000153059B069A00932B4603F0FDFA002CDA
:10344400C1D1BFB90DB0BDE8F08F00247AE7079B66
:1034540001EB080A0393089B4A46CDE90153059BF7
:10346400504600932B4603F0E7FA099B514601337B
:1034740009939FE7A146A246A8E7013CB7E7314676
:103484004FF0000A0A4B2A4618681B68584080EA25
:10349400090080EA0A00FFF719FFC3430698FFF703
:1034A40021FF099B0AF1010A53454144EAD1B9E7D6
:1034B40058170020054B01311B680132434022EAB2
:1034C400030208400243501E00B270475817002000
:1034D4002DE9F04F834699B00F4618460021164651
:1034E400039303F01AFD002800F0898100240125CC
:1034F400774B30461493039915ABCDE90B45CDE9D1
:103504000D45CDE90F45CDE91145139303F08EFC2C
:10351400A04228DABBF1000F05D1E7B90024204608
:1035240019B0BDE8F08F2146584603F007FC044665
:103534000028F2D00BA803F04EFB0DA803F04BFBC0
:103544000FA803F048FB11A803F045FB0C2115A8B4
:1035540000F032FBE3E73146384603F0BAFB044699
:103564000028E7D1DAE731460BA803F0B2FB0446A2
:103574000028DFD103990DA803F0ABFB0446002813
:10358400D8D1F1880FA80231ADF83850ADF83050D9
:1035940003F02FFB04460028CCD101460FA803F00A
:1035A400CDFB04460028C5D1F18811A8023103F0EF
:1035B40020FB04460028BDD10DA803F0EBFB00F06E
:1035C4001F001F2873D0C0F11F0319460BA80193D5
:1035D40003F006FC04460028ACD101990DA803F0C1
:1035E400FFFB04460028A5D1BDF83250BDF83A804F
:1035F4000DA8A5EB080A4FEA4A19494603F0F0FB67
:103604000446002896D14FEA8A0A0DA90BA803F0B4
:103614003CFC00284DDA49460DA803F0FEFB0446A5
:10362400002887D108F1FF3305939B0005F1FF3A89
:10363400069305F1804508F18043023B013D9B0060
:10364400A5EB08050893AB000293059B9A4541D866
:10365400BBF1000F0DD058460FA903F03AFB002828
:1036640040F0C980039AB388928813FB02F3ABF845
:103674000430002F3FF45EAF01990BA803F0CDFB9B
:10368400002840F0B880B3880BA93846ADF8303034
:1036940003F01FFB0146002840F0AF80384603F0DA
:1036A4003CFC00287FF446AF0123BB8042E7019431
:1036B4009AE70F9A0BA952F80A300846013342F8E8
:1036C4000A300DAA03F00EFD044600289DD031E710
:1036D400010003000D9B069A04931344DDF82C901B
:1036E4000793049B4FEA8A089A5859F82A10A8F1BC
:1036F40004030F9D0993029B91421D4476D2A8F1C5
:103704000400002359F80000FCF722FD002914BF2F
:103714004FF0FF330346BAF1010F2B600EBF0023B5
:1037240009EB080353F8083C1593A8F1040359F86E
:103734000330169359F80830DDF8108017932B687E
:1037440001332B60089B98442B680021013B2B60BC
:1037540011A803F0F3FA00284DD1059B002B48D0A3
:10376400D8F80020119B11A91A60079A084612681C
:103774005A602A6803F0BAFC00283CD113A911A8A6
:1037840003F083FB0028DFDC2A680DA911A803F0ED
:10379400ADFC80BB029B11A84FEAC308414603F06D
:1037A4001FFB40BB0BA9084611AA03F09BFC014672
:1037B40018BB0BA803F0B1FB002812DA0DA911A85D
:1037C40003F087FAB8B9414611A803F009FB90B990
:1037D4000BA9084611AA03F082FC60B92B68013BCF
:1037E4002B60029B0AF1FF3A043B2DE74FF0FF33B5
:1037F40091E7059AB6E704469CE60C469AE66FF014
:103804000B048CE62DE9F74F90461F4A06461568CF
:103814000F464540ED43002B14BF9A468A460024C8
:103824000C9B04F104094B4505D20C9B9C4220D30C
:1038340003B0BDE8F08F042208EB04010DEB020095
:1038440002F041FC019A0AEB040106EA020B04228D
:103854000DEB020002F037FC019A38192A4042EAC3
:103864000B02019204220DEB020102F02CFC4C46E7
:10387400D6E718F804301AF8042033402A401343DA
:103884003B550134D1E700BF5817002009280248EE
:1038940018BF0020704700BFDB86000001680E4A95
:1038A4000346914215D1C169A2F11022A2F1EF128F
:1038B40091420ED18268012A0BD8C26812B1016903
:1038C4008A4206D0586928B19B691B1A584258414C
:1038D40070470120704700BF55AA00FF70B50D4B1B
:1038E4009E68A6B13046FFF7D9FF044678B9F3685D
:1038F4006BB935690DB9204670BD2846FFF7CEFF78
:1039040028B9EB68B34202D12E462D69F2E70124AF
:10391400F1E700BF5C1700202DE9F8433F4F3C68F6
:10392400D4B1BC68C4B100284AD0002948D001FBF6
:1039340000F5B5FBF0F0884242D1281D40D8A90714
:103944000DD025F003060436FC6803E06368B34237
:1039540038D2A469002CF9D12046BDE8F8832E465C
:10396400F2E7FB6041E006F120016318203A5A6057
:103974000022C3E902242A4822691A6160502949B5
:10398400D96102B1D36062695A61A1699961AAB12E
:1039940093619A6902B153614FF0010923610023D5
:1039A400C4E90169C4E905333B69DB072ED5FFF798
:1039B40095FF58B31C4B48461B6826E0FB60E8E7BC
:1039C4000024C9E7A3681BB1174B01201B68984763
:1039D400626804F12008921B232AC4D80123A3603F
:1039E400D4E90523002ABCD09361A3690BB16269B1
:1039F4005A610023C4E905333B69DA0706D5FFF7AA
:103A04006DFF18B10120084B1B6898472A46002116
:103A14004046444602F062FB9EE700BF5C1700206C
:103A240055AA00FF669911EE1800002070B50546EE
:103A3400002800F08880444E3368002B00F0838017
:103A4400B268002A7FD0834203D872681344984234
:103A540003D33E4B01201B689847A5F12004204660
:103A6400FFF71CFF18B1394B01201B68984755F824
:103A7400183C012B03D0354B01201B6898470023C9
:103A840045F8183C55F8143C3BB39A682ABB55F8E2
:103A94001C2C02F120015A680A445A6055E9053287
:103AA4001A6155F8145C2B6903B1DD6020220021F2
:103AB400204602F013FB286910B18368002B2ED036
:103AC40033699B073FD5FFF709FF00283BD0BDE8CA
:103AD40070401E4B01201B68184755F8100C002835
:103AE4002AD0836843BB426863681344203363600D
:103AF40003692361D4E905239AB9CBB943696361A6
:103B04008269A261B3B19C61A36903B15C61236959
:103B140003B1DC602022002102F0E0FAD0E72C4659
:103B2400E1E79361A369002BE8D062695A61E5E794
:103B3400F360F7E7F460E7E7F36845F8083C03B19E
:103B44005C61F460BCE770BD5C17002018000020C5
:103B540038B50C46142200210546134802F0BEFA7B
:103B64001249134800F040F8232C1CD915F0030324
:103B74001FBF043CE418C3F10403ED1822460021DE
:103B8400284602F0ABFA084B0A49C3E90054203C2A
:103B94009D606C609A6811609A68A1F11021A1F18E
:103BA400EF11D161DA6038BD5C170020313A0000B2
:103BB4001D39000055AA00FF10B50A46044619B184
:103BC400024B00211B68984710BD00BF1400002061
:103BD400014B1B68184700BF20000020014B1B68E5
:103BE400184700BF1C000020024B1860024B002045
:103BF40019607047200000201C000020F8B500F177
:103C040008064768044630460D4603F0C7F8874265
:103C14004BD16368B3F5806F47D80021304603F079
:103C24007CF9002841DD0021304603F0A3F8E0B31D
:103C340045B9294604F1100003F06FF9002834DD7A
:103C44000020F8BD04F120050021284603F065F9A1
:103C540000282ADD0021284603F08CF828B304F15B
:103C640028050021284603F058F900281DDD00210D
:103C7400284603F07FF8C0B1002104F1100003F0DE
:103C84004CF9002811DD002104F1300003F045F95E
:103C940000280ADD002104F1380003F03EF9002871
:103CA40003DD002104F14000C6E70148C9E700BF75
:103CB40080BFFFFF012970B505460E46144601D9A1
:103CC400074870BD03D00020C5E91C64F9E7002A49
:103CD400F9D01046FFF7DAFD0028F4D1F0E700BF71
:103CE40000BFFFFF70B500210446FFF787FF0546BC
:103CF40010B10E4D284670BD04F10806304603F09D
:103D040049F87F28F5D910342946204603F032F8C3
:103D14000028EED0204603F03DF80128E9D93146C9
:103D2400204603F0B2F80028E4DBE2E700BEFFFF20
:103D3400F0B50C4685B0002105461646FFF75EFF38
:103D4400002839D102A802F041FF21466A6802A87E
:103D540003F02AF8044618B102A802F03CFF0CE074
:103D640005F10804214602A803F08FF8002807DBB8
:103D740002A802F030FF6FF00304A4F5854418E0B4
:103D840005F1480302A96F680846009305F1100283
:103D9400234603F0FBFA04460028DDD13A463146B7
:103DA40002A803F017F8044602A802F014FF002C3E
:103DB400E3D1204605B0F0BD004CFAE780BFFFFF19
:103DC40003460846C1B9C3E910110D4A0D49DFF88D
:103DD40038C0C3E912120D4A0D49C3E914C20D4A91
:103DE400C3E916120C4A1A6602F17452A2F52302B0
:103DF400A2F692425A6670476FF07300704700BF94
:103E040085AE67BB67E6096A72F36E3C3AF54FA567
:103E14007F520E518C68059BABD9831F2DE9F04F5F
:103E2400CFB000F1640300F144070DF58A790093E3
:103E34004A463B46019153F8041F42F8041F009977
:103E44009942F8D104AD4FF000082C46DFF8F8A0F1
:103E5400B8F10F0F61D8019B042203EB880103A87A
:103E640002F031F9039803F031FBA860D4F818C1CB
:103E7400D4E947634FEAFC227340D4F8206182EA14
:103E8400BC1203EA0C0382EA7C6273401344D4F844
:103E940024215AF8041B1344D4F810610B4403443E
:103EA400D4E9421E4FEA713041EA0E0280EAB100C1
:103EB400324001EA0E0B80EAB15042EA0B0202449E
:103EC400D4F81401626018441344D4F8202108F192
:103ED4000108C4F82421D4F81C21B8F1400FC4E926
:103EE40047C2C4E944E6C4E942312360C4F8180176
:103EF40005F10405ACD157F8043F59F8042F1344D5
:103F04003B60009BBB42F6D104A84FF49471FFF7C9
:103F140053FE00204FB0BDE8F08F2B6855F8382CC5
:103F24004FEAF34080EA734080EA932055F8143C4A
:103F340055F8341C134418444FEAB14383EAF1138F
:103F440083EAD103184490E7907E00004FF47F0386
:103F5400D3F83021D3F83431072A05D1023B032B9F
:103F640002D8024AD05C704700207047E686000001
:103F74004FF05023D3F85825034B02F00302D340EB
:103F8400024A1360704700BF0020A10724000020EC
:103F940008B5FFF7DBFF58B1644BD3F8202A3AB9D0
:103FA4000D21C3F8201A0121C3F81C19C3F81C29D8
:103FB4000022D30003F57F03D3F80013013107D0A7
:103FC400D3F800130132D3F80433202A0B60F0D164
:103FD400FFF7BCFF002840F0A080FFF7B7FF40B117
:103FE400534B544AC3F830254FF050230122C3F8F1
:103FF40058254FF47F03D3F83021D3F83431072AFE
:1040040009D1023B032B06D84B4AD35C1BB10022D7
:104014004A4BC3F84C25FFF799FF50B14FF050239A
:10402400D3F80024D10742BF0022C3F81421C3F8F7
:1040340018214FF47F03D3F83021D3F83431072A01
:1040440009D14FF05023D3F80024D20744BF6FF0B6
:104054000102C3F80024FFF779FF18B16522334B3E
:10406400C3F80C274FF47F03D3F83021D3F834314D
:10407400072A16D1314BD3F82034002B11DA4FF034
:1040840050230322C3F8182501229A60D3F804218F
:10409400002AFBD00022C3F804210122DA60C3F80D
:1040A40018254FF47F03D3F83021D3F83431072A8D
:1040B40023D1023B032B02D8214AD35CEBB17E22ED
:1040C4001A4B1B49C3F80C27C3F83C297F231D4A0C
:1040D400C2F818310023C1F8043EC1F8083E01F5C6
:1040E4004821C1F81031C2F82431C2F82C3102F54C
:1040F400FF1202F58052C2F8A032134AD2F88C3073
:1041040043F44063C2F88C30104A114B1168C3F871
:104114004415D269C3F84C2508BD2922034BC3F8C2
:104124000C270322C3F83C2757E700BF0040005088
:10413400009003504400EFBEE286000000200350CC
:10414400DE8600000020005000ED00E00080FF004B
:104154000060005030B50468ACB1B4FA84F30122B5
:10416400C3F11F03DBB29A4024EA0202D0E8EF5FF6
:10417400A54204D1C0E8EC2FBCF1000FF6D1EAD17E
:1041840002480B7030BD0248FCE700BF0000AD0BD5
:104194000200AD0B10B50368CB40DB0710D401233C
:1041A4008B40026843EA0201D0E8EF4F944204D105
:1041B400C0E8EC1FBCF1000FF6D1F2D1014810BDEC
:1041C4000148FCE70000AD0B0400AD0B014BC3F844
:1041D40004057047007001500146014800F0C4B95D
:1041E400280000204FF47F03D3F83021D3F8343172
:1041F400072A05D1023B032B02D8024AD05C704740
:1042040000207047EE8600000328F7B506462ED836
:104214004FF05021364B374A33F81000925DC1F805
:10422400080300250A44012142F210744FF050277C
:10423400314B116033F816308E4203F150231D6068
:104244001B688DF8071008BF0DF10705022E32D048
:10425400032E40D0012E1CD0D7F8183403F4803339
:104264003DB923B1012003F01DFA013CF0D103B0A4
:10427400F0BDD7F8182402F003022A70002BF6D000
:104284009DF807000128F2D103F00CFA013CDDD1BE
:10429400EDE7D7F80C3403F480333DB9002BE6D0B6
:1042A400012003F0FFF9013CF3D1E0E7D7F80C2437
:1042B40002F00102E1E7D7F85C3403F480333DB93E
:1042C400002BD4D0012003F0EDF9013CF3D1CEE76B
:1042D400D7F85C24ECE7D7F85434DB03C7D5002DBA
:1042E400CED1012003F0DEF9013CF4D1BFE700BFD9
:1042F40080800000EA86000078800000044B1A7970
:1043040022B9012218601A710248704702487047A6
:10431400701700200000AD0B0C00AD0B08B50A4B64
:104324001B6833B10520FDF755FC10B90520FDF7D6
:104334002FFC4FF050230122C3F81825C3F814258D
:10434400C3F8802508BD00BF7017002010B50328EE
:1043540045D8DFE800F01802554F00224FF480736F
:104364000121002003F1502318601C68012402F18C
:1043740050221460284A1268002A47D04FF0502374
:10438400C3F804132BE04FF05023D3F81814D3F8D8
:104394001824C90312D502F00303022B05D0012B04
:1043A40002D00020FFF730FF01234FF050220221FA
:1043B400C2F8183508224FF48273D2E7D3F81424D4
:1043C400D207F1D5D3F81C2402F00302013A012AE2
:1043D400E7D8114A12681AB10222C3F8042310BDA7
:1043E400D3F80421002AFBD00022C3F80421D3F817
:1043F4000431F4E718224FF490734FF48071B0E75E
:1044040020224FF492734FF40071AAE71A68002A2D
:10441400FCD018601B68E2E770170020012808B57B
:1044240003D0022852D02E4808BD49B3012954D1E3
:10443400FFF7D8FEE0B1EFF31182202383F3128853
:10444400BFF36F8FBFF34F8F4FF05023C3F858154E
:1044540000232449C1F80C352349C1F848350D21FE
:10446400224BC3F8E41E82F31188BFF36F8F03E07D
:104474004FF05023C3F85815FFF77AFD1C48D3E7D3
:10448400FFF7B0FEE8B1EFF31183202282F3128824
:10449400BFF36F8FBFF34F8F44F24000114AC2F84D
:1044A4000C054020104AC2F848054D2002F5B622FA
:1044B400C2F8E40E4FF05022C2F8581583F3118865
:1044C400D3E74FF05023C3F85805D5E7022904D8A1
:1044D4004FF05023C3F8B815D0E70648A4E700BF4F
:1044E4000300AD0B004084500060025000100850DF
:1044F4000000AD0B0400AD0BF8B54FF050230125BF
:104504000026D3F80443174F04B9F8BDB4FA84F075
:10451400C0F11F00830003F580739BB203F15023A5
:1045240005FA00F2196892B224EA02040029EBD0D9
:104534001E601B684FF05023022AC3F808230DD1D4
:10454400D3F81814D3F8181401F00301012905D184
:10455400C3F81825C3F804239960D5E73B68C0B2B3
:104564009847D1E7701700200079024B03EB001045
:10457400FFF7F0BD30000020036803F01F025B0961
:10458400026004D0012B034818BF00207047024882
:10459400704700BF0028845000258450034A430913
:1045A400D35C00F01F001844C0B27047F2860000CC
:1045B40070B50546FFF7F2FF0C4C083034F81030A4
:1045C4000E46DA0508D5C3F3432304EBC302284699
:1045D40054F8333052689847A3682BB131462846C3
:1045E400E268BDE87040184770BD00BF400000207D
:1045F40008B5FFF7D3FF034B083033F81000400B26
:1046040008BD00BF4000002008B5FFF7C7FF034BFB
:10461400083033F81000C0F3400008BD400000200B
:1046240008B5FFF7BBFF034B083033F81000C0F3A5
:10463400401008BD40000020034611F0010010B5F1
:10464400CCB20BD1A207C4F340000DD5074A106ABF
:1046540058601062003818BF012005E004490A6A56
:104664001A600A62002AEDD010BD00BF00288450F1
:104674000025845010B5FFF791FF124A083032F834
:104684001030D9051CD5C3F3432123F4F85322F881
:104694001030002002F10E0434F8023F13F4807F3E
:1046A40003D0C3F3432399420AD001303028F3D115
:1046B400002342F831300448BDE81040FFF76ABDDA
:1046C40010BD00BF40000020B8000020F0B5054632
:1046D40000200126044607468C420BD1114BD3F827
:1046E4007C2132B10022C3F87C21D3F87C3140F024
:1046F4000040F0BDE3B29B0003F580729B0806FA0C
:1047040003F31D420BD002F1A04202F55042D2F84D
:1047140000C0BCF1000F02D01760126818430134C6
:10472400DAE700BF00D00050F7B506460846FFF7A9
:1047340035FF1A4F00F1080537F815300C46DB0732
:104744002AD5304603F014F82046FFF769FF58B124
:104754002046FFF74DFF0022316800B201EB8003D1
:10476400C3F81025C3F810252046FFF783FF002364
:1047740001A827F815300194FFF7FEFE019B00EB1A
:104784008300D0F80022064B134043F00203C0F824
:104794000032044803B0F0BD0348FBE740000020AA
:1047A400F0F0FCFF0000AD0B0400AD0B2DE9F0436D
:1047B4001646804685B00846FFF7F0FE0D46316880
:1047C400044609B32846FFF71FFF18B12846FFF730
:1047D40027FF10BB00230DF10F02CDE900338DF844
:1047E4000E308DF80F3028460B460DF10E0102F005
:1047F40067FF484A04F1080132F8113023F002033C
:1048040043F0010322F8113073687BB328461F7804
:104814005968FFF7F9FE10B1E9B13F4829E03D4A74
:1048240004F1080032F8103023F02003DB04DB0C21
:1048340022F8103079B1032FEFD87168D1F804E071
:10484400D8F800109EF800C001EB8C01A7B9C1F89C
:104854001075C1F810752F4A04F1080132F81130AF
:1048640023F01C0343EA870322F81130B3683BBBEF
:104874002A4805B0BDE8F083D1F810E543EA4C338B
:104884002EF0030EC1F810E5D8F8001043F0200311
:1048940001EB8C0EDEF8101522F8103021F44F31A4
:1048A40021F44071CEF810152902DEF8108501F4C8
:1048B4007C5141EA074141EA0801CEF81015CAE7E4
:1048C4002846D3E90067FFF7D5FE002ED0D0114D5E
:1048D400D5E90023964203D19F4201D1002209E089
:1048E4000F480DF10F01FFF735FC0C4B9842C0D176
:1048F4009DF80F2005EBC20308345F6035F81430CF
:1049040045F8326043EA422343F4807325F81430B7
:10491400AEE700BF400000200400AD0B0000AD0B6B
:10492400B80000202DE9F0430C46804685B02046AF
:1049340011461D46FFF732FE064629B32046FFF70F
:1049440063FE18B92046FFF76BFE18BB334F06F120
:10495400080937F8193013F01C0F02D04B78012BDB
:1049640018D001238DF80F3000234A1CCDE9001321
:1049740020468B1C0DF10F0102F0A2FE37F819300E
:1049840043F0030327F81930002D44D02046FFF7E5
:104994003BFE18B9224805B0BDE8F083002295F823
:1049A40000C0D8F800301D4F03EB8C03C3F810256A
:1049B400C3F8102506F1080237F812104FEA8C0EDE
:1049C40021F02001C904C90C27F812106E7816B31F
:1049D400D8F80000AD787044D0F81035360423F4CC
:1049E400991323F4F853C0F81035230203F47C53CD
:1049F40006F440362D05D0F810E5334305F4801550
:104A04002B4341EA4C3143EA0E0341F02001C0F844
:104A1400103527F812100348BDE700BF40000020FE
:104A24000400AD0B0000AD0B014BC3E9021270474B
:104A34004000002010B508461446FFF7F1FD50B1C0
:104A44000846FFF7ABFD054B083033F81030044837
:104A54005B0B237010BD0348FCE700BF400000203F
:104A64000000AD0B0400AD0B70B5154D064695F86E
:104A740080401CBB2146602205F1100001F02EFB92
:104A8400214630682E6F8E420ED10023C0F87C314F
:104A9400D0F87C3140F30730FDF77AF80123094858
:104AA40085F88030AB6770BDCBB29B0003F5807294
:104AB4007C2B04BF845083580131E4E70248F2E7B9
:104AC400400000200000AD0B0C00AD0B034B93F82D
:104AD4008000003818BF0120704700BF400000204C
:104AE4000148FFF757BB00BFB40000200148FFF79F
:104AF40031BB00BFB400002073B503681646D3F879
:104B040004230546002AA8BF4FF000420846A8BF68
:104B1400C3F804230C46FFF783FD00B30846FFF7F0
:104B240073FD0146D8B92046FFF762FD04B2A40024
:104B34000346286804F5807281502968825821440C
:104B4400D1F8102542F00102C1F810252EB101223E
:104B5400296802FA03F3C1F8043302B070BD204699
:104B6400FFF71CFD0E4B083033F81030C3F38203FB
:104B7400042B11D0052B11D001A80194FFF7FCFCE4
:104B8400019A0369D34003F00103991C204602B043
:104B9400BDE8704002F0DDBD0321F7E70221F5E72F
:104BA400400000202DE9F04F684BDFF8A481D3F8D2
:104BB4000403D8F87010C0B289B040F00040FFF789
:104BC40085FD051E2FDAC24600235AF87C1F06A86D
:104BD400CDE90633FFF730FD4FF0000B5D4B0DF1CF
:104BE40018090193019A12F8013B0192DA081AF8A4
:104BF400022003F0070322FA03F3DA071CD409F1B5
:104C04000409BBF1000F14D0D8F870104FF0004025
:104C1400FFF75CFDD8F87C1006A8FFF70DFD00280F
:104C2400DAD125F000450124002D76D109B0BDE884
:104C3400F08F4FF0010BD5E7474B5B440293D9F853
:104C440000100029DBD091FAA1F1B1FA81F1029BA5
:104C54001C7841EA44142046FFF7A0FC083038F8D9
:104C64001070C808BB080393012319F8002001F051
:104C7400070103FA01F122EA010209F8002005A85C
:104C84000594FFF779FC059A039B803250F82220A3
:104C9400C7F382065B073746C2F3014222D520469A
:104CA4003946D6B2FFF784FC05A80594FFF764FCE7
:104CB400059B803350F82330C3F301439E4207D150
:104CC4000021204602F045FD3146204602F041FD18
:104CD40005A80594FFF750FC0122059B02FA03F393
:104CE4000362ACE7022A0CD10321204602F031FD15
:104CF40006F00503012BEBD139462046FFF758FC9B
:104D0400E6E702212046039202F023FD032EF3D0AE
:104D1400039A032ADCD1022EEDE795FAA5F3B3FA40
:104D240083F304FA03F29B0003F1A04303F5504319
:104D3400D3F81005D3F81015C0F30520C1F30141D1
:104D440025EA0205FFF734FC6EE700BF00D00050EF
:104D54004000002002870000028700000022034B6D
:104D6400C3F88425C3F80425704700BF009003509E
:104D7400044AD2F80034DB07FBD50160BFF35F8F30
:104D8400704700BF0090035008B5C0F30B0383B90C
:104D94000222094BC3F88425C3F804254FF0FF32DF
:104DA4000260D3F80024D207FBD5FFF7D7FF0348EE
:104DB40008BD0348FCE700BF009003500000AD0BA2
:104DC4000A00AD0B012208B5054BC3F88425C3F8CE
:104DD4000425FFF7CDFFBDE80840FFF7BFBF00BFC4
:104DE4000090035000220121054B83F83820054B25
:104DF400C3F808131961C3F80025C3F800217047EC
:104E04007817002000B0025070B5104D6C6B9CB147
:104E14004FF47A735C430A23B4FBF3F40C4ED6F8D4
:104E2400003163B995F839304BB90A2002F03AFCE5
:104E3400013CF4D1074870BD4CF25034EEE795F8CC
:104E44003930002BF6D10448F5E700BF781700206D
:104E540000B002500700AD0B0000AD0B10B50022EE
:104E64000124084BC3F80045C3F800211C6038B185
:104E7400FFF7CAFF044B984203D1044B83F8384030
:104E8400014810BD00B002500000AD0B781700209F
:104E94002DE9F04106461746984602F09AFC002890
:104EA40063D106F06043B3F1005F60D1B3075ED114
:104EB400314C94F83030012B05D0434559D194F846
:104EC4003830002B55D000232C4AB8F1020F0BBF09
:104ED400C2F81075C2F80475C2F81465C2F8086502
:104EE4000CBFC2F81815C2F80C1584F839302368C1
:104EF4000CBF08250425C3B994F838306BB10022DF
:104F04001E4B05F1A045C3F80021012305F52C35FE
:104F14002B60BDE8F041FFF777BF0120FFF79EFF4C
:104F2400174B9842EBD1BDE8F081A36823B1E6604A
:104F34006161E7611348F6E7104AA6602161A76141
:104F440084F83080C2F800310123C2F8043394F8A5
:104F5400382002F0FF0012B9FFF780FFEAE705F1FD
:104F6400A04505F52C352B60E4E70748DBE7074847
:104F7400D9E70748D7E700BF7817002000B00250F0
:104F84000700AD0B0000AD0B0800AD0B0A00AD0B24
:104F94000B00AD0B084B9A685A621A699A629A69B7
:104FA400DA62DA689A6032B15A691A61DA699A6126
:104FB4000022DA60704770477817002000F01F0362
:104FC40040090FD001280FD10A4A02EB8302D2F81C
:104FD4000002094B034043EA012343F00203C2F8F1
:104FE40000327047054AF0E70022803352F823303C
:104FF400FFDE00BF00288450F0F0FCFF0025845041
:1050040010B50E4B0238D3F83C26D3F838360728AF
:1050140013D8DFE800F0110F0D0B0A080604100E78
:10502400C871100C8871100A48710A711A0ECA707E
:105034001A0C8A701A0A4A700B7010BD00B0025024
:10504400023807281FD8DFE800F02927251123217B
:105054001F04CB791B068A7943EA02434A7943EA5F
:1050640002230A7913430E4AC2F83C36CB781B0656
:105074008A7843EA02434A7843EA02230A781343CC
:10508400074AC2F8383670470023E4E70023E5E70F
:105094000023E6E70023EBE70023ECE70023EDE73A
:1050A40000B002500268154BFF2A08BF4FF0FF32D0
:1050B400C3F824254268FF2A08BF4FF0FF32C3F823
:1050C40028258268FF2A08BF4FF0FF32C3F8302535
:1050D400C268FF2A08BF4FF0FF32C3F834250269C3
:1050E400FF2A08BF4FF0FF32C3F838254269FF2A70
:1050F40008BF4FF0FF32C3F83C25704700B00250A0
:1051040030B5194D8DB006AC0FCD0FC495E8030032
:1051140084E80300154906A8D1F82435DBB20093CE
:10512400D1F82835DBB20193D1F83035DBB20293E4
:10513400D1F83435DBB20393D1F83835DBB20493BC
:10514400D1F83C35DBB20593FFF7ACFF0023C1F87F
:10515400003101230B60D1F80031002BFBD06846ED
:10516400FFF7A0FF0DB030BD687C000000B0025016
:1051740070B590F8293004461BB190F82A20002A13
:105184003CD16068FF2800F08580A168FF2900F009
:105194008180E268FF2A7DD025690E2D7AD11128FD
:1051A40078D1122976D10D2A74D16269FF2A01D0EF
:1051B4000F2A6FD1A269FF2A01D0102A6AD1BBB984
:1051C40003211120FFF7FAFEA068FFF7F7FEE0685D
:1051D400FFF7F4FE2069FFF7F1FE6069FF2801D0B4
:1051E400FFF7ECFEA069FF2802D00321FFF7E6FEDB
:1051F40094F82A3013B9201DFFF754FF636A264E32
:10520400264D736394F8293086F83A300123C5F8A3
:105214000833FFF775FF2368C5F84035A37F617F26
:10522400227F9B0143EAC1031343E27F43EAC21393
:10523400C5F8443594F82320D5F844352ABB43F403
:105244004033C5F844354FF4C063C5F84036D5F84B
:10525400002694F8203022F07F4222F0FF0213430C
:1052640094F8212043EA026394F8222043EA42633B
:1052740094F8232043EA0273C5F80036336813B167
:105284002B20FCF785FC064870BD23F4003343F45F
:105294008033D6E70348F7E77817002000B00250C0
:1052A4000000AD0B0400AD0B38B50C4C94F8305035
:1052B40095B9C4E9001248B900230122C4E90233B4
:1052C400074884F8302084F8383038BDFFF750FFA1
:1052D400034B9842F9D1EFE70248F6E7781700202C
:1052E4000000AD0B0C00AD0B2DE9F84304468846D5
:1052F400154602F06EFA002843D1DFF8909099F831
:10530400300001283FD199F83830214F6BB3012385
:10531400204EC6F80833FFF7F3FEB8F1000F2BD187
:105324004FF0000889F83980C6F80081A3786278C4
:105334001B0343EA022322781343E27843EA42330D
:10534400227943EA8233627943EAC233C6F83436B7
:10535400FFF75AFDB8420CD0C6F800811DB12946AA
:105364006078FFF74DFE0C4804E0FFF777FDB84284
:10537400CDD10748BDE8F88341466078FFF760FE69
:10538400CEE70648F6E70648F4E700BF78170020A2
:105394000700AD0B00B002500000AD0B0800AD0BD0
:1053A4000B00AD0B034B93F838300BB9FFF756BD28
:1053B40001487047781700200C00AD0B08B5054B69
:1053C40093F83030012B03D1FFF70CFD024808BDE0
:1053D4000248FCE7781700200000AD0B0B00AD0B72
:1053E400034B93F83000003818BF0120704700BF0A
:1053F4007817002070B5054602F0EBF900283AD181
:1054040011F0030639D11F4B1A6892B91E4CC4F827
:105414001C15C4F8205583F8392093F838300BB3A1
:105424000023C4F800310123E360BDE87040FFF7B6
:10543400EBBC93F83040012C21D1134AC2F81C155F
:105444000421C2F8205583F8396083F83010C2F87B
:105454000061C2F8044393F8383053B9FFF7FEFCF7
:105464000A4805E00120FFF7F9FC094B9842D7D11F
:1054740070BDD460F4E70748FAE70748F8E707483F
:10548400F6E700BF7817002000B002500000AD0B13
:105494000700AD0B0800AD0B0A00AD0B0B00AD0B04
:1054A40010B5224BD3F8002192B10022204CC3F84E
:1054B400002194F8381094F8302071B90121032A9E
:1054C40084F8381005D0042A05D0022A00D1996046
:1054D40010BD5960FCE7D960FAE7032A19D0042A01
:1054E40019D0022A04D1012384F82030FFF752FD99
:1054F400A36813B9012384F8303094F8393003F0E9
:10550400FF0013B9D4E900319847002384F8203010
:10551400DEE70223E8E7032284F82020D3F81C25E1
:105524006262D3F8203584F82830E1E700B00250F5
:105534007817002038B5094B53F82040013053F850
:105544002050A54200D838BD636823B1204602F03C
:1055540084F90834F5E723689847FAE7907F000058
:10556400012208B5094B03201A70FFF7E3FFFCF78B
:1055740049F902F08EF90420FFF7DCFFFAF750FF37
:10558400034A137B23F00103137308BDD5300020B5
:105594005801002008B50348034A0021121A02F0FA
:1055A40074F908BD38010020D830002008B5002067
:1055B400FFF7C0FF164B03F5006282F3088883F3FC
:1055C4000A880025E023134C84F82230E5772576F9
:1055D4006576A57684F82050636A43F4E023636219
:1055E40084F82350FCF756FAFCF754FB4FF0FF33D2
:1055F400A362E36202F00BF90120FFF79BFF022094
:10560400FFF798FF2B462A4629460348FCF722FB5E
:10561400D830002000ED00E065550000074808B5CB
:10562400074A0849121A02F032F9BDE80840064850
:10563400064A0749121A02F02AB900BF00000020E6
:105644003601002004870000000000200000002034
:1056540004870000024B1868984208BF0020704776
:10566400C4000020034B1B680BB9FDF7F9BC0020F4
:10567400704700BFB417002030B570B10B4B5B68A6
:1056840098420AD0036843B1D3E90421D0E9044520
:10569400121941EB0501C3E90421D0E9003213607A
:1056A4005A600023C0E9003330BD00BFC4000020AD
:1056B4002DE9F047EFF31185202383F31288BFF31C
:1056C4006F8FDFF89C900026C9F800000027FFF7D1
:1056D400C1FFDFF89080D9F80030D8E900ECD91781
:1056E40050B1D0E90442A34271EB020A18DAE41A79
:1056F40062EB0102C0E90442002413EB0E034CEBFD
:105704000101C8E90031C9F8004002F0C9F8214696
:10571400FDF778FC85F31188BFF36F8FBDE8F08740
:1057240014EB0E024CEBE473C0E90467C8E90023F0
:10573400FFF7A2FF85F31188BFF36F8F8368984743
:10574400EFF31185202383F31288BFF36F8FD9F809
:1057540000301B1BC9F80030FFF77CFFBBE700BF1C
:10576400B4170020D801002010B50A4C23681BB1DF
:1057740001232360002010BD00F04EF80028F7D06C
:105784000138072803D8044B53F8200010BD034800
:1057940010BD00BFB8170020A87F0000FE8FFFFFD8
:1057A400BFF34F8F0549064BCA6802F4E062134306
:1057B400CB60BFF34F8F00BFFDE700BF00ED00E0FB
:1057C4000400FA0530B44FF0FE3200250B4B0C4CAC
:1057D4000C494968C3F80024C3F80424C3F8082416
:1057E400C3F80C24C3F81024C3F81424C3F81824F1
:1057F400C3F81C24C4F8005530BC0847005084503A
:1058040000408450CC000020024BD0E90012C3E9D0
:1058140000127047CC00002008B500F011F830B930
:1058240000F010F838B9054AC2F80C0A08BD00F0B7
:1058340037F8032008BD042008BD00BF0050845081
:105844000020704710B5114800F048F800B110BDB1
:105854000F4800F043F80028F9D10E4C204600F020
:105864003DF80028F3D10C4B0C481C6000F036F8CE
:1058740001460028EBD100F02DF8044608B120467B
:1058840010BD00F03FF82046FAE700BFE400002016
:10589400E0000020DC000020D4000020D80000201C
:1058A40008B5084800F024F8074800F021F8074834
:1058B40000F01EF8064800F01BF8BDE8084000F0B0
:1058C4000BB800BFE4000020E0000020DC00002052
:1058D400D800002000207047704700BF08B5034B74
:1058E40002681B6810689847002008BDFC0000206F
:1058F40008B5034B02685B6810689847002008BD30
:10590400FC00002070B5094C094D2069AB6898472C
:1059140018B1084B08485B6898470021074AEB68B0
:1059240011602069BDE87040184700BFE8000020FE
:10593400FC000020CC000020C87F0000BC17002021
:1059440010B5044650B1636813F0685F05D0064A89
:10595400934202D000236260236010BD034B0448CD
:105964005B689847EFE700BF2C5F5CA9CC00002080
:10597400E87F0000C8B143680D4A934213D013F086
:10598400685F0ED0012350E8002F194640E8001C40
:105994009CF0000FF7D1012AF5D0BFF35F8F0020F0
:1059A400704704487047044870476FF4E0407047FC
:1059B4002C5F5CA9E98FFFFFEA8FFFFF034680B1EC
:1059C400426809498A420AD012F0685F05D0BFF3E1
:1059D4005F8F002210461A607047044870470448DD
:1059E40070476FF4E04070472C5F5CA9E98FFFFFBC
:1059F400EA8FFFFF10B5044620B10023034A236059
:105A0400626010BD0248FFF7DDFEF6E73A00003A97
:105A1400108000007047002070472DE9F7430E46C0
:105A240017469946044628B94FF0FF38404603B05C
:105A3400BDE8F0830029F7D0002AF5D0CB680D89A2
:105A440038461D44042329460DEB030200F03FFAB7
:105A540080460028E8D146F60812BDF80410738980
:105A6400914225D1BDF806109942DDD10423384670
:105A74000DEB0302294400F02AFA0028D4D146F69B
:105A84000713BDF804209A42CED1C4E900679DF8FB
:105A94002830A4F80890A3727389BDF806202B441B
:105AA400E360738913442B44043563612561BDE7C6
:105AB400002BE4D0B8E72DE9F3410E4617461D4606
:105AC400044620B94FF0FF3002B0BDE8F08103680E
:105AD400002BF7D04368002BF4D04FF6FF78D4E9BD
